:020000040800F2
:10000000D8090020C1010008DD140008610D0008B6
:10001000C1120008C9070008C3260008000000003C
:10002000000000000000000000000000451A000869
:10003000750A0008000000000D180008311B0008B8
:10004000E1010008E1010008E1010008E101000808
:10005000E1010008E1010008770A0008E101000859
:10006000E1010008E1010008E1010008E1010008E8
:10007000CD070008E1010008E1010008E1010008E6
:10008000B1080008E1010008E1010008E1010008F1
:10009000E1010008E1010008E1010008E1010008B8
:1000A000E1010008E1010008E1010008E1010008A8
:1000B000E1010008791D0008E1010008E1010008E4
:1000C000E1010008E1010008E1010008E101000888
:1000D000E10100083D210008BD210008712300084E
:1000E000890A0008E1010008E1010008E1010008B7
:1000F000E1010008E1010008E1010008E101000858
:10010000E1010008E1010008E1010008E101000847
:10011000E1010008E1010008ED1E0008E10100080E
:10012000E1010008E1010008E1010008E101000827
:10013000E1010008E1010008E1010008E101000817
:10014000E1010008E1010008E1010008E101000807
:10015000E1010008E1010008E1010008E1010008F7
:10016000E1010008E1010008E1010008E1010008E7
:10017000E1010008E1010008E101000800000000C1
:10018000E1010008E1010008E1010008E1010008C7
:10019000E1010008E1010008E1010008E1010008B7
:1001A000E1010008E1010008E1010008DFF80CD0DE
:1001B00000F0DCFA00480047B5300008D8090020FC
:1001C0000848016841F47001016007480047FEE7F4
:1001D000FEE7FEE7FEE7FEE7FEE7FEE7FEE7FEE7F7
:1001E000FEE7000088ED00E0AD010008202A04DBF6
:1001F000203A00FA02F1002070479140C2F120033A
:1002000020FA03F3194390407047202A06DBCB17EE
:10021000203A41FA02F043EAE07306E041FA02F3C1
:10022000D040C2F12002914008431946704710B5F2
:10023000431A934209D28318881803E010F8011D6D
:1002400003F8011D521EF9D210BD40EA01039B07BD
:1002500003D009E008C9121F08C0042AFAD203E03B
:1002600011F8013B00F8013B521EF9D210BDD2B289
:1002700001E000F8012B491EFBD270470022F6E78F
:1002800010B513460A4604461946FFF7F0FF20460C
:1002900010BD2DE9FE4F804681EA0300C00F0C46D9
:1002A000009021F0004123F00045B8EB0200A94185
:1002B00005D24046214690461C460B46024623F096
:1002C0000040104347D0270DC7F30A00C3F30A517B
:1002D0000290401A019040286BDAC3F3130040F4F7
:1002E000801B0098924620B10023D2EB030A63EBF7
:1002F0000B0B01985946C0F140025046FFF776FFBC
:1003000006460D4650465946019AFFF77EFF10EB10
:1003100008006141002487EA115284EAE7731A4316
:1003200040D0009A62B3019A012A4FEA075215DCC5
:10033000001B61EB02014FF0004202EA0752CDE9D7
:100340000042001C41F5801132462B4600F0A8F90E
:1003500003B0BDE8F08F40462146F9E7001B61EB92
:100360000201001C41F5801300185B412018A2F522
:10037000001747EB030140EAD570B6196D4111E053
:100380006D084FEA360645EAC0754FEA0752001B72
:1003900061EB0201001C41F5801149084FEA300071
:1003A0000019514132462B4603B0BDE8F04F00F032
:1003B00068B90098012240000023D0EB020263EBF1
:1003C000E073009821464FEAE074B8EB000061EB5F
:1003D0000401E9E783F000435BE781F0004158E75F
:1003E0002DE9FE4F81EA030404F0004421F00041AE
:1003F00000944FF0000B23F0004350EA01045ED05C
:1004000052EA03045BD0C3F30A54C1F30A552C44E7
:10041000A4F2F3340194A0FB0254C1F3130141F49C
:100420008011C3F3130343F4801301FB024400FB68
:10043000034E840A970A44EA815447EA8357A4FB8F
:10044000076802958D0A05FB07854FEA932C04FB8C
:100450000C542705029D4FEA065847EA1637B5EBBC
:1004600008056EEB070C870E920E47EA811742EAE9
:100470008312A7FB0201B6EB0B0164EB00042B0D0A
:1004800043EA0C335E1844EB1C50DA465146E7FB56
:100490000201C5F313044FEA0B3343EA14534FEA46
:1004A0000432019C43EA0603A4F10C040294009C6C
:1004B000CDE900B400F0F4F803B0BDE8F08F0020FF
:1004C0000146F9E72DE9F04D81EA030404F0004B01
:1004D00021F0004514464FF0000A23F0004150EA95
:1004E000050220D054EA01021DD0C5F30A57024686
:1004F000C5F31303C1F31300C1F30A5640F480158A
:1005000043F48013A7EB0608101BD64608F2FD380B
:1005100073EB050002D308F1010801E092185B417A
:10052000B8F1000F03DA00200146BDE8F08D00208D
:100530004FF48011064684460EE0171B73EB050747
:1005400005D3121B63EB050306434CEA010C490873
:100550004FEA300092185B4150EA0107EDD152EAB0
:10056000030012D082EA040083EA0501084305D0A3
:10057000101BAB4106D20122002306E000224FF0FF
:10058000004302E06FF0010253101AEB06004CEB3F
:10059000085110EB0A0041EB0B01BDE8F04D00F0F3
:1005A00070B8000030B5041E71F1000404DB4FF098
:1005B0000044404264EB0101141E73F1000405DBAA
:1005C0001C464FF00043524263EB0403994208BFBC
:1005D000904230BD30B50B46014600202022012458
:1005E00009E021FA02F59D4205D303FA02F5491B01
:1005F00004FA02F52844151EA2F10102F1DC30BD17
:100600002DE9F05F0546002092469B468846064647
:10061000814640241BE0284641464746224600F0DA
:1006200020F853465A46C01A914110D31146184635
:100630002246FFF7DBFD2D1A67EB01084F462246E5
:1006400001200021FFF7D2FD17EB00094E41201ECB
:10065000A4F10104DFDC484631462A464346BDE8A2
:10066000F09F202A04DB203A21FA02F00021704793
:1006700021FA02F3D040C2F120029140084319460A
:10068000704710B5141E73F1000408DA401C41F1E4
:10069000000192185B411A4301D120F0010010BD06
:1006A0002DE9F04D92469B4611B1B1FA81F202E07C
:1006B000B0FA80F220329046FFF798FD04460F46CC
:1006C00040EA0A0041EA0B0153465A46084313D058
:1006D000114653EA010019D0C8F140025046FFF715
:1006E000C0FF05460E46504659464246FFF77EFD7E
:1006F000084305D0012004E020463946BDE8F08DCE
:100700000020054346EAE0762C4337430A98630508
:10071000E40AA0EB08000022FD0A44EA47540A302C
:1007200002D500200146E9E7010510196941DDE91C
:10073000084500196941BDE8F04DA2E7C1F30A522E
:10074000C1F3130140F2FF3341F480119A4202DAFF
:1007500000200146704740F233439A42A2F23342EE
:1007600002DC5242FFF77DBFFFF740BD064C074D4C
:1007700006E0E06840F0010394E807009847103471
:10078000AC42F6D3FFF716FD783E0008983E00080D
:100790001CB50A48006840F0800008490860002045
:1007A000032103460122CDE900100821044800F08E
:1007B00068FA0120034908601CBD0000303802407F
:1007C000001C02408C82434200BFFEE710B52D4959
:1007D0002D4800F01DF938B12A492B4800F0F2F8F5
:1007E0000021294800F008F92649274800F010F9AF
:1007F00080B12449244800F0E5F80021224800F0A7
:10080000FBF82049204800F0C3F8002240211F488F
:1008100001F0A3FE1E491C4800F0FAF838B11C494B
:10082000194800F0CFF81B49174800F0B1F81A49F1
:10083000154800F0EDF838B11749134800F0C2F838
:100840001649114800F0A4F815490F48603000F02F
:10085000DFF838B113490C4800F0B4F812490A48DF
:1008600000F096F81149084800F0D2F840B10F495D
:10087000054800F0A7F80C49C039034800F088F893
:1008800010BD0000008800102860024000480040B1
:1008900000440010000400100022001000020010AC
:1008A0000011002000110010000100104000009015
:1008B00010B52C492C4800F0ABF838B129492A482A
:1008C00000F080F80021284800F096F827492648D3
:1008D00000F09EF880B12549234800F073F800210C
:1008E000214800F089F821491F4800F051F8002202
:1008F00040211F4801F031FE1E491B4800F088F8D6
:1009000038B11C49184800F05DF81B49164800F042
:100910003FF81A49144800F07BF838B117491248DB
:1009200000F050F81649104800F032F815490E480A
:1009300000F06EF838B113490B4800F043F8124943
:10094000094800F025F81149074800F061F840B166
:100950000E49054800F036F80B49C039024800F04E
:1009600017F810BD00880010886002400088002041
:100970000044004000440020000400200022002029
:10098000000200200011002000010020400000A013
:100990000246094B9A4201D2084801E00648103845
:1009A00001F000531BB1064B0B40C36002E0044B47
:1009B0000B408360704700001064024000600240FA
:1009C0007D0F7D0F0246094B9A4201D2084801E093
:1009D0000648103801F000531BB1064B0B40C360B2
:1009E00002E0044B0B40836070470000106402403B
:1009F000006002407D0F7D0F21B1026842F00102CC
:100A0000026003E0026822F0010202607047000009
:100A100070B50246002000240025124EB24201D2D9
:100A2000114B01E00F4B103B104E0E4036B11E260D
:100A300006EAD124166806EA040502E0566906F0C3
:100A4000800501F000560EB15C6800E01C68084E9D
:100A5000344004EA010616B10DB1012000E0002087
:100A600070BD000010640240006002403C0F3C0F6B
:100A70007D0F7D0F704710B5012000F017F810B101
:100A8000012000F00DF810BD10B54FF4005000F03B
:100A90000DF818B14FF4005000F002F810BD00003E
:100AA0000149086070470000143C014001460020E5
:100AB000034A12680A400AB1012000E00020704792
:100AC000143C0140002123498279002A3AD00A4689
:100AD000126803689A430B461A600A1D126803687D
:100AE0009A430B1D1A60027911440A6803681A437D
:100AF0000A60184A0832126803689A43154B083393
:100B00001A601A1D126803689A43124B0C331A605C
:100B10004279102A0ED11A1F126803681A430D4B2E
:100B200008331A601A1D126803681A43094B0C3304
:100B30001A600DE00749427911440A6803681A43B4
:100B40000A6005E0027911440A6803689A430A6062
:100B500070470000003C014010B501F071F801F051
:100B6000C3F801F031F901F079F910BD30B5CC10BE
:100B700000F1200353F824304C07E50E0F24AC405D
:100B8000A343CD1000F1200444F82530CC1000F12F
:100B9000200353F824304C07E40E02FA04F42343F4
:100BA000CD1000F1200444F8253030BDF0B50A46E0
:100BB00000210023002400BF3DE0012505FA01F3D8
:100BC000156805EA03049C4234D105684F000326EA
:100BD000BE40B543056015794E00B5400668354303
:100BE00005601579012D02D01579022D16D1856881
:100BF0004F000326BE40B543856055794E00B54091
:100C0000866835438560456801268E40B54345605A
:100C1000456896798E40B6B235434560C5684F0049
:100C20000326BE40B543C560D5794E00B540C668C1
:100C30003543C560491C1029BFD3F0BDF0B5002372
:100C400000244D07ED0E02FA05F3CE1000F1200549
:100C500055F826504E07F70E0F26BE40B543CF106D
:100C600000F1200646F82750CE1000F1200555F877
:100C7000265045EA0304CE1000F1200545F8264031
:100C8000F0BD2DE9F0470C46DDE90867002100259D
:100C90008C4600BF60E04FF0010808FA01F504EA55
:100CA000050CAC4557D1D0F800804FEA410A4FF00F
:100CB000030909FA0AF928EA0908C0F80080D0F8FF
:100CC00000804FEA410902FA09F948EA0908C0F828
:100CD0000080012A01D0022A27D1D0F808804FEAEB
:100CE000410A4FF0030909FA0AF928EA0908C0F88D
:100CF0000880D0F808804FEA410906FA09F948EA65
:100D00000908C0F80880D0F804904FF0010808FAEC
:100D100001F829EA0809C0F80490D0F8048003FA21
:100D200001F948EA0908C0F80480D0F80C804FEABD
:100D3000410A4FF0030909FA0AF928EA0908C0F83C
:100D40000C80D0F80C804FEA410907FA09F948EA0B
:100D50000908C0F80C80491C10299CD3BDE8F08715
:100D600000BFFEE721B1028842F48062028004E005
:100D700002884FF6FF331A400280704770B5024672
:100D80000024002500230020958A138B1B0445EACC
:100D9000030626F07F4404EA01068E4201D10120B9
:100DA00000E0002070BD21B1028842F00102028003
:100DB00004E002884FF6FE731A400280704710B5B7
:100DC00000F004F800F0BEF810BD00001CB50121D1
:100DD000480500F02DFD0121022000F019FD04223C
:100DE00008211148FFF72AFF042209210E48FFF7C6
:100DF00025FF4FF48070009002208DF804008DF8DC
:100E0000050001208DF8060000208DF807006946D6
:100E10000548FFF7CBFE4FF400700090694602488A
:100E2000FFF7C4FE1CBD00000004024021B102888F
:100E300042F48072028004E002884FF6FF631A4099
:100E40000280704721B1028842F40072028004E0FF
:100E500002884FF6FF531A40028070472DE9FF4782
:100E600004460D460026B1460427DFF8CC80A6884C
:100E70004FF6C0700640684600F0FAFCDDF80880C6
:100E80002E48B8FBF0F01FFA80F946EA0906A68062
:100E900020884FF6FE7108402080002628492868E7
:100EA00088420CD828684000B8FBF0F087B2042FC5
:100EB00000DA04273E4309F10100208427E0E88896
:100EC0004BF6FF71884206D1286800EB4000B8FB62
:100ED000F0F087B209E0286800EBC00101EB0010D8
:100EE000B8FBF0F087B247F48047C7F30B0008B9AE
:100EF00047F0010747F4004006434FF4967009FBA2
:100F000000F04FF47A7190FBF1F0401C2084A6832E
:100F1000208840F00100208026884FF6F5300640FA
:100F2000A8886989084306432680A8892989084337
:100F30002081BDE8FF87000000127A0040420F00C8
:100F4000A08601001FB50020ADF804004BF6FF702D
:100F5000ADF806000A20ADF808004FF48060ADF847
:100F60000A000001ADF80C000748009069460748E8
:100F7000FFF774FF01210548FFF715FF0121034822
:100F8000FFF7F0FE1FBD0000400D030000540040BD
:100F90002DE9F04105460F4614461E4601211D4825
:100FA000FFF744FF00BF1C491A48FFF7E7FE00287F
:100FB000F9D000222946174800F070F800BF174901
:100FC0001448FFF7DBFE0028F9D03946114800F03D
:100FD0006DF800BF1149891C0E48FFF7CFFE0028AD
:100FE000F8D00CE021780B4800F060F8641C00BFDA
:100FF0000A49891C0748FFF7C1FE0028F8D0301EB7
:10100000A6F101018EB2EDD101210248FFF71AFFCE
:10101000BDE8F08100540040010003008200070099
:1010200070B504460E46154601211948FFF7FEFE2D
:1010300000BF18491648FFF7A1FE0028F9D000228A
:101040002146134800F02AF800BF13491048FFF763
:1010500095FE0028F9D031460D4800F027F800BF72
:101060000D49891C0A48FFF789FE0028F8D0294657
:10107000074800F01BF800BF0749891C0448FFF728
:101080007DFE0028F8D001210148FFF7DBFE70BD8E
:1010900000540040010003008200070012B141F03B
:1010A000010101E001F0FE010182704701827047F9
:1010B0000246B3EE041AB0EE410AB3EE0E1AF0EE99
:1010C000410A501A124B186018460068114B1B68F1
:1010D000C01A01EE100AB8EEC11A21EE001A0C482F
:1010E000D0ED001AF8EEE11A00EEA11A0A48D0ED90
:1010F000001AF8EEE11A31EE211ABDEEC11A80EDA8
:10110000001A03480068034B1860034800687047E2
:101110001C00002024000020200000201FB5012119
:10112000052000F075FB0121880300F091FB00F021
:10113000D6F90120029000208DF80C008DF80F00E8
:1011400002A91848FFF732FD0021084600F07CFC98
:101150000120009000208DF8040008208DF8050083
:1011600001208DF806006846FFF7ACFC4FF40050F4
:10117000029002A90C48FFF719FD0D21022000F092
:1011800063FC4FF40050009000208DF804000C2008
:101190008DF8050001208DF806006846FFF792FCE7
:1011A0001FBD000000000240000802401CB51348AB
:1011B000006840F48070114908600846006840F0FB
:1011C000080008600120032100230246CDE9001039
:1011D00008210B48FFF755FD01200321002302469B
:1011E000CDE9001010210748FFF74BFD012006490B
:1011F00008600649C1F88C021CBD0000303802406E
:1012000000200240000C0240908241420000444213
:101210002DE9F0410746884614461D46284600F051
:1012200033F8C5F1040007FA00F60F20284100EA60
:101230000800064306F00F06E21704EBD2625211D3
:10124000920002F1E022D2F800212146E31704EBDC
:10125000D3635B11A4EB431C012303FA0CF31A4381
:101260002046E31704EBD3635B119B0003F1E023FB
:10127000C3F800210348005D40EA06100149085503
:10128000BDE8F08100E400E00146072323EA010203
:101290001202054B18684FF6FF031840034B184322
:1012A0001043014B186070470CED00E00000FA0598
:1012B0004A0A52020243014B1A60704708ED00E0EF
:1012C00000BFFEE742F23411884200DD08460249C1
:1012D000884200DA08467047CCDEFFFF00B50346BF
:1012E0000A46981A184908600846006817490968AC
:1012F000401A00EE100AB8EEC00A1548D0ED000AF8
:1013000020EE200A134890ED001A0F48D0ED000A95
:10131000F8EEE00A01EE200A0F48D0ED000AF8EEE0
:10132000E00A30EEC00ABDEEC00A80ED000A0648B1
:1013300000680649086008480068FFF7C3FF0649CF
:1013400008600846006800BD4800002050000020EA
:10135000380000203C0000204C00002000B503466F
:101360000A46981A1849086008460068174909682B
:10137000401A00EE100AB8EEC00A1548D0ED000A77
:1013800020EE200A134890ED001A0F48D0ED000A15
:10139000F8EEE00A01EE200A0F48D0ED000AF8EE60
:1013A000E00A30EEC00ABDEEC00A80ED000A064831
:1013B00000680649086008480068FFF783FF06498F
:1013C00008600846006800BD540000205C00002052
:1013D000380000203C0000205800002000B50346E3
:1013E0000A46981A184908600846006817490968AB
:1013F000401A00EE100AB8EEC00A1548D0ED000AF7
:1014000020EE200A134890ED001A0F48D0ED000A94
:10141000F8EEE00A01EE200A0F48D0ED000AF8EEDF
:10142000E00A30EEC00ABDEEC00A80ED000A0648B0
:1014300000680649086008480068FFF743FF06494E
:1014400008600846006800BD6000002068000020B9
:10145000380000203C0000206400002000B5034656
:101460000A46981A1849086008460068174909682A
:10147000401A00EE100AB8EEC00A1548D0ED000A76
:1014800020EE200A134890ED001A0F48D0ED000A14
:10149000F8EEE00A01EE200A0F48D0ED000AF8EE5F
:1014A000E00A30EEC00ABDEEC00A80ED000A064830
:1014B00000680649086008480068FFF703FF06490E
:1014C00008600846006800BD6C0000207400002021
:1014D000380000203C00002070000020704708B554
:1014E0004FF4C06000F050F806208DF80000012095
:1014F0008DF801008DF802008DF80300684600F0B9
:1015000007F828208DF80000684600F001F808BDB3
:1015100070B5002100230F22C4781CB3174C246837
:1015200004F4E064C4F5E064C4F30721C1F10404E9
:10153000E3B20A4144789C40E1B2847814402143EC
:101540000C07210E0E4C05786155047804F01F0538
:101550000124AC4005786D11AD0005F1E025C5F81A
:10156000004109E0047804F01F050124AC40054D5A
:101570000678761145F8264070BD00000CED00E0BD
:1015800000E400E080E100E002490143024A11600A
:10159000704700000000FA050CED00E010B500F007
:1015A00095F800F063F800F09FF810BD2DE9F047C2
:1015B00005460C4616464FF0000AA01CC4B2D146A0
:1015C0003AE005F1B000C2B200217820FFF728FD13
:1015D0002746E01704EB107000111030C2B2002152
:1015E0007820FFF71DFDE01704EB10700011A4EB4D
:1015F0000010C2B200217820FFF712FD4FF0000862
:1016000011E00AEB0610A0F500700E490A5C4021BB
:101610007820FFF705FD0AF1010000F0FF0A08F14C
:10162000010000F0FF08B8F1080FEADB681CC5B242
:1016300009F1010000F0FF09B9F1020FC1DBBDE8BB
:10164000F0870000F733000870B506460C46002509
:1016500008E014F8012BE806010E3046FFF7A6FF5C
:10166000681CC5B220780028F3D170BD70B5B024D5
:101670001BE0224600217820FFF7D2FC1022002137
:101680007820FFF7CDFC002211467820FFF7C8FC38
:10169000002506E0002240217820FFF7C1FC681CED
:1016A000C5B2842DF6DB601CC4B2B82CE1DB70BD82
:1016B00010B50446812200217820FFF7B1FC2246B4
:1016C00000217820FFF7ACFC10BD000008B505A094
:1016D0000068009003236A4600217820FFF758FC39
:1016E00008BD0000AE8D100000B587B01C2206A119
:1016F0006846FEF79CFD1C236A4600217820FFF710
:1017000047FC07B000BD0000AE0010D580A83FD355
:1017100000B0408D14A1C8DA1281FFD9F1DB30206E
:1017200000A4A6AF70B5002420E004F1B000C2B25E
:1017300000217820FFF774FC102200217820FFF7A9
:101740006FFC022200217820FFF76AFC002509E0E7
:1017500005EBC41007490A5C40217820FFF760FCC4
:10176000681CC5B2802DF3DB601CC4B2082CDCDB26
:1017700070BD0000773A000800B587B00121202035
:1017800000F046F802208DF8180000208DF81A00AD
:1017900001208DF81B0000208DF8190040200590D5
:1017A00005A91848FFF702FA8020059005A91548F9
:1017B000FFF7FCF9082206211248FFF73FFA08223A
:1017C00007211048FFF73AFA0121880700F030F8A6
:1017D0004FF4165001900020ADF80800ADF80A0053
:1017E000ADF80C000C20ADF80E000020ADF8100094
:1017F00001A9054800F0F2FE0121034800F0A1FE16
:1018000007B000BD0014024000780040704700009F
:1018100029B1064A12680243044B1A6004E0034AE5
:1018200012688243014B1A60704700003038024052
:1018300029B1064A12680243044B1A6004E0034AC5
:1018400012688243014B1A60704700004038024022
:1018500029B1064A12680243044B1A6004E0034AA5
:1018600012688243014B1A607047000044380240FE
:10187000F0B5002100220024022500260223324F69
:101880003F6807F00C0121B1042905D0082937D1A0
:1018900005E02E4F076036E02D4F076033E02A4FFA
:1018A0003F1F3F68C7F38056274F3F1F3F6807F031
:1018B0003F036EB1264FB7FBF3F7DFF88CC0ACF1F6
:1018C000040CDCF800C0CCF3881C07FB0CF40CE023
:1018D0001E4FB7FBF3F7DFF870C0ACF1040CDCF877
:1018E00000C0CCF3881C07FB0CF4174F3F1F3F6868
:1018F000C7F301477F1C7D00B4FBF5F7076002E0EA
:10190000124F076000BF00BF0F4F3F6807F0F001A4
:101910000909104F7A5C0768D74047600A4F3F6853
:1019200007F4E051890A0B4F7A5C4768D74087601B
:10193000054F3F6807F46041490B064F7A5C4768E2
:10194000D740C760F0BD0000083802400024F40012
:1019500040787D01000000200246022A06D0032ABA
:101960001DD0042A33D0052A61D148E04FF08040D1
:10197000008800F0100050B14FF08040406AC0F184
:10198000FF314FF0FF304FF08043586206E04FF0D8
:101990008040416A00204FF08043586249E0264869
:1019A000008800F0100050B12348243000684FF642
:1019B000FF73191A1846204B2433186006E01E489E
:1019C0002430016800201C4B2433186031E01B4890
:1019D000008800F0100050B11848243000684FF61D
:1019E000FF73191A1846154B2433186006E0134884
:1019F000243001680020114B2433186019E010488E
:101A0000008800F0100050B10D4824300068C0F18B
:101A1000FF314FF0FF300A4B2433186006E00848CE
:101A2000243001680020064B2433186001E00021B7
:101A300000BF00BFC8B2704700040040000800406B
:101A4000000C00407047000030B500228B071C0FCF
:101A50000F2303FA04F20B4B8C1053F824309343FA
:101A6000084C8D1044F8253023468C1053F8243050
:101A70008C07240F00FA04F42343024C8D1044F821
:101A8000253030BD0838014000B50246002A07DD88
:101A900000200A49086001200949C1F8A00206E0B7
:101AA00001200649086000200549C1F8A00210463F
:101AB00001F0ACFB0349086000BD0000A4024142F4
:101AC000000041423C040140F0B504460D46164674
:101AD0001F461448006840F00100124908600020C9
:101AE0001049083108600F4800680F4908400D4947
:101AF00008600E48091D0860081F006820F4802057
:101B0000091F0860002007490C3108603B46324637
:101B10002946204600F00EF800210846FFF7C8FBD2
:101B2000F0BD000000380240FFFFF6FE1030002438
:101B300070470000F0B504460D46002100203D4EE0
:101B4000366846F480363B4F3E6001E04E1CB1B231
:101B5000384E366806F400361EB941F6FF76B142BB
:101B6000F4DB41F6FF76B14201D1012060E0314E55
:101B70004036366846F080562E4F40373E602E4E37
:101B8000366846F440462C4F3E602A4E083636688A
:101B900046F41446274F08373E60264E366826F036
:101BA0008076244F3E6045EA84160127C7EB520732
:101BB00046EA074646EA036646F480061D4F3F1D87
:101BC0003E603E1F366846F080763F1F3E6000BF95
:101BD000184E366806F00076002EF9D0174E36689B
:101BE00046F48076154F3E603E46366846F40076F1
:101BF0003E603E46366846F480663E603E46366845
:101C000046F005063E600B4E0836366826F00306A1
:101C1000084F08373E603E46366846F002063E6092
:101C200000BF044E0836366806F00C06082EF8D1C0
:101C3000F0BD00000038024000700040003C02404F
:101C400000B585B001210846FFF7F2FD01210846E5
:101C5000FFF7DEFD01210220FFF7DAFD4FF400401F
:101C6000039003208DF8110002208DF81000012050
:101C70008DF812008DF8130003A91948FEF796FF9E
:101C80000820039003A91748FEF790FF684600F06C
:101C90004BFA0020ADF8000042F2273001900020FE
:101CA000ADF80800ADF8020069464FF0804000F042
:101CB000F9F901220F210A48FEF7C0FF0122032192
:101CC0000848FEF7BBFF00231A460121880700F0F1
:101CD000AEF90121880700F09EF905B000BD0000B3
:101CE000000002400004024000B585B0012102203E
:101CF000FFF79EFD01210846FFF78AFDC0200390F3
:101D000003208DF8110002208DF8100001208DF8BD
:101D100012008DF8130003A91548FEF747FF684627
:101D200000F002FA0020ADF800004FF6FE700190BE
:101D30000020ADF80800ADF8020069460D4800F03B
:101D4000B1F9022206210A48FEF778FF0222072194
:101D50000748FEF773FF00231A460121054800F0EB
:101D600066F90121034800F056F905B000BD0000F6
:101D7000000002400004004010B501210E4800F0B0
:101D800077F9012815D101210B4800F041F9022013
:101D9000FFF7E2FD09490860086809490968FFF78B
:101DA00087F90849086000F08FFC06480068FFF7D3
:101DB0006BFE002010BD0000000400409C000020CD
:101DC000180000201400002000B585B00121042077
:101DD000FFF72EFD01210220FFF71AFDC02003901E
:101DE00003208DF8110002208DF8100001208DF8DD
:101DF00012008DF8130003A91548FEF7D7FE022242
:101E000006211348FEF71AFF022207211048FEF7A9
:101E100015FF684600F088F90020ADF800004FF685
:101E2000FE7001900020ADF80800ADF80200694690
:101E3000084800F037F900231A460121064800F04F
:101E4000F6F80121044800F0E6F805B000BD0000F6
:101E500000040240000400400008004000B585B0C6
:101E600001210820FFF7E4FC01210846FFF7D0FC20
:101E7000032003908DF8110002208DF8100001203E
:101E80008DF812008DF8130003A91548FEF78EFE99
:101E9000684600F049F90020ADF800004FF6FE70EA
:101EA00001900020ADF80800ADF8020069460D4829
:101EB00000F0F8F8022200210948FEF7BFFE0222D6
:101EC00001210748FEF7BAFE00231A460121064801
:101ED00000F0ADF80121044800F09DF805B000BD08
:101EE0000000024000040040000C004000B591B02A
:101EF000202109A8FEF7C2F941F288300190029032
:101F00000390049001212F4800F0BBF8002857D01F
:101F10000220FFF721FD2C4908600320FFF71CFD7C
:101F2000294948600420FFF717FD274988600520EC
:101F3000FFF712FD2449C860234A0199D068FFF7D2
:101F4000CDF90590204A02999068FFF707FA0690AC
:101F50001D4A03995068FFF741FA07901A4A0499FD
:101F60001068FFF77BFA08900598A0F6B83017497B
:101F700008600698A0F6B830154988630798A0F65F
:101F8000B8301249083908600898A0F6B8301049EE
:101F900008640D48C068303800900B488068A0F194
:101FA000300309484068A0F1300207480068A0F1FA
:101FB000300108A000F09CFB0121024800F028F845
:101FC00011B000BD001000409C0000203C04014006
:101FD00000000140456E636F646572303D256420EA
:101FE0000D0A20456E636F646572313D2564200DD6
:101FF0000A20456E636F646572323D2564200D0AC8
:1020000020456E636F646572333D2564200D0A00C0
:10201000CA430282704721B1028842F00102028065
:1020200004E002884FF6FE731A4002807047F0B554
:102030000C4615461E460021002200230189028B12
:10204000038C4FF6F877394021434FF6FC473A406E
:1020500040F201173A434FF6DD773B404FF6FF77EA
:1020600007EA06172F433B43018102830384F0BD37
:1020700002460020138A0B400BB1012000E0002033
:10208000704730B50246002000230024158A05EA77
:102090000103958905EA010413B10CB1012000E0A8
:1020A000002030BD00220288184B98420ED0184BF9
:1020B00098420BD0B0F1804F08D0164B984205D013
:1020C000154B984202D0154B984204D14FF68F73AE
:1020D0001A404B881A43124B984207D0114B984232
:1020E00004D04FF6FF431A400B891A4302804B6815
:1020F000C3620B880385054B984202D0044B98427B
:1021000001D18B7A0386012383827047000001404E
:10211000000401400004004000080040000C0040A2
:1021200000100040001400404FF0FF3141600021DA
:102130000180018141808172704700001C4909883B
:1021400001F0200109B31A498988C8B219490988E0
:1021500001F40041C9B91749098801F4804161B10E
:102160000A2803D00021134A118020E01149098870
:1021700041F400410F4A118019E00D2806D10D49A4
:10218000098841F480410B4A118010E0094909880F
:10219000C1F30D01084A505406490988491C054AF3
:1021A000118011460988C72901DD0021118070477F
:1021B0000010014030000020AC00002010B50024C9
:1021C00040F22551594800F0DEF9002812D0574856
:1021D000008857490870554800F06AFA5449087059
:1021E00008460078592806D15248007818B90120CD
:1021F0005049087095E04E480078592807D14D485D
:102200000078012803D102204A49087089E0494832
:102210000078022807D14648007847490870032013
:10222000444908707DE043480078032879D140484C
:1022300000784249087042480078B0F5966F0BDC90
:102240003F480078592807D03D480078562803D0E9
:102250003B4800783B49087037480078374909788F
:1022600040EA0120364908703648007809788842EB
:1022700015DB33480078782811DC3148007859287C
:102280000DD02F480078562809D02D4801782E48C7
:1022900002780078401C2C4B18702C488154294837
:1022A000007827490978884203DB254800782549CA
:1022B000087025480078082830D10020224908708D
:1022C00000240CE02148005D1E490978884204DCA6
:1022D0001D480078401C1C490870601CC4B2082CC2
:1022E000F0DB1948007803280CDB601E174A105CED
:1022F000811E17A000F0FCF9601E1449085C801EC6
:102300001A490860002010490870002404E00020E9
:102310000E490855601CC4B20A2CF8DB00200549A0
:1023200008704021014800F0FDF810BD0044004055
:102330007C0000207F0000207D0000207E00002027
:1023400080000020810000208200002098010020F1
:1023500072656365697665206F6E6365A3BA202038
:10236000256420636D200D0A000000008800002015
:1023700010B5002440F22551594800F004F9002816
:1023800012D05748008857490870554800F090F916
:102390005449087008460078592806D152480078F8
:1023A00018B901205049087094E04E480078592827
:1023B00007D14D480078012803D102204A4908700E
:1023C00088E049480078022807D146480078474904
:1023D00008700320444908707CE0434800780328D3
:1023E00078D14048007842490870424800787828FF
:1023F0000BDC40480078592807D03E480078562822
:1024000003D03C4800783C49087038480078384987
:10241000097840EA01203749087037480078097880
:10242000884215DB33480078782811DC3148007881
:1024300059280DD02F480078562809D02D4801780A
:102440002E4802780078401C2C4B18702C48815480
:102450002948007827490978884203DB2548007815
:102460002549087025480078082830D100202349E4
:10247000087000240CE02248005D1F49097888425A
:1024800004DC1E480078401C1C490870601CC4B263
:10249000082CF0DB1948007803280CDB601E184A72
:1024A000105C811E17A000F023F9601E1449085C1F
:1024B000801E1B490860002010490870002404E0B9
:1024C00000200F490855601CC4B20A2CF8DB00201C
:1024D000054908704021024800F024F810BD0000B2
:1024E000004800408C0000208F0000208D0000205C
:1024F0008E0000209000002091000020920000201B
:10250000B601002072656365697665206F6E63654C
:10251000A3BA2020256420636D200D0A000000006E
:102520009800002010B50022002340F66A14A14252
:1025300000D100BF0A1201249440A3B2DC430480FE
:1025400010BD21B1828942F40052828104E0828967
:102550004DF6FF731A40828170471AB1838A0B438C
:10256000838202E0838A8B43838270470246002085
:10257000B1F5007F00D100BF13880B400BB10120E3
:1025800000E00020704770B50246002400230025BB
:10259000002040F66A16B14200D100BFC1F34215D7
:1025A00001F01F03012606FA03F3012D02D19689DB
:1025B000334006E0022D02D1168A334001E0968AAC
:1025C00033400C12012606FA04F41688344013B185
:1025D0000CB1012000E0002070BD00002DE9FF4794
:1025E00005460E460024A14600BFA046B08900B1B2
:1025F00000BF2C8A24F44054F08804432C82AC8918
:1026000041F20C608443B0883189084371890843E2
:102610000443AC81AC8A24F44074B0890443AC8296
:102620006846FFF725F92048854202D01F488542B9
:1026300002D1DDF80C9001E0DDF80890A88900F4E3
:10264000004040B109EBC90000EB091031684900B6
:10265000B0FBF1F707E009EBC90000EB09103168A6
:102660008900B0FBF1F76420B7FBF0F0040120090A
:10267000642101FB1078A88900F4004040B13220A9
:1026800000EBC800B0FBF1F000F00700044308E0E5
:10269000322000EB08106421B0FBF1F000F00F00D5
:1026A00004432C81BDE8FF87001001400014014065
:1026B00001468888C0F308007047C1F30802828091
:1026C000704700BFFEE7000041F6BC3007490968CB
:1026D0004242914202DA4142044A116003490968C8
:1026E000814201DD014908607047000014000020AC
:1026F0000FB4054B10B503A9044A029800F0DAF8AC
:1027000010BC5DF814FB0000913000082C00002084
:1027100002E008C8121F08C1002AFAD170477047AA
:10272000002001E001C1121F002AFBD17047000008
:102730002DE9FF5F82B00021DDE90430020DDDF8F4
:1027400040B0034318D044F61050A2F2FF32424387
:102750001514119801281FD0A5EB0B00401C5FEA4F
:10276000000A4FF000064E4FDFF83891B046504651
:1027700015D5CAF1000413E0119801244AA30128D9
:1027800001D16FEA0B010298119AC0E90031C0E94A
:10279000024206B0BDE8F09FCBF10000DFE704463F
:1027A0000021404A491842EB0450CDE9001012E0E4
:1027B000E00707D032463B4640464946FDF710FE4B
:1027C0008046894632463B4610461946FDF708FECC
:1027D00006460F466410002CEAD1DDE90401DDE96C
:1027E0000023BAF1000F06DAFDF7FAFD42464B4628
:1027F000FDF7F6FD05E0FDF765FE42464B46FDF7A9
:1028000061FE04460E460022284BFDF7CBFE03D89E
:102810004FF0FF30014607E00022254B20463146AD
:10282000FDF737FDFDF78AFF102409E0002C0ADBD5
:102830000A220023FDF7E4FE039B30321A55641E82
:1028400050EA0102F2D1641C039AC4F1110314444A
:10285000119A012A03D0012208430DD10AE008434E
:1028600004D000204FF0110B119072E7A3EB0B0581
:102870006D1E0DE05B4504DD4FF0000205F1010522
:1028800004E003DA4FF00002A5F10105002AECD0C4
:1028900002981199C0E90231C0E9004579E70000CA
:1028A000000014400000F03F300000000000F04342
:1028B0000000E03F2DE9FF4F95B09B468946064654
:1028C00000250FE2252877D100242746F84A012168
:1028D000059400E0044316F8013F203B01FA03F0A1
:1028E0001042F7D130782A2811D06FF02F033078BA
:1028F000A0F13002092A16D8059A44F0020402EB2E
:10290000820203EB42021044761C0590EFE759F86F
:10291000042B0592002A03DA504244F40054059037
:1029200044F00204761C30782E2816D116F8010FD8
:1029300044F004042A280DD06FF02F023078A0F163
:102940003003092B09D807EB870302EB4303C718B1
:10295000761CF3E759F8047B761C30786C280FD08E
:1029600006DC4C2817D068280DD06A2814D104E062
:10297000742810D07A280FD10DE044F400140AE036
:1029800044F4801401E044F440147278824202D18D
:1029900004F58014761C761C307866280BD013DC86
:1029A000582877D009DC002875D04528F6D046286D
:1029B000F4D047281AD19DE118E0632835D0642867
:1029C00079D0652812D195E1702873D008DC67288A
:1029D000F1D069286FD06E280DD06F2806D1B5E0F0
:1029E00073282CD0752875D0782874D05A4617993A
:1029F00090476D1C75E1C4F30250022809D00328EA
:102A00000DD0D9F8001004280DD00D6009F104098B
:102A100067E1D9F80010EA17C1E90052F6E7D9F8E2
:102A200000100D80F2E70D70F0E719F8041B8DF827
:102A3000001000208DF80100EA46012003E059F85B
:102A400004AB4FF0FF3061074FF0000102D40DE0FE
:102A500008F101018846B9420FDA8045F8DB1AF81F
:102A600008100029F4D108E008F1010188468142EC
:102A7000FADB1AF808100029F6D105985B46A0EB9E
:102A8000080721463846179A00F094FA284400EBCC
:102A9000080507E04DE029E10DE01AF8010B5A4660
:102AA00017999047B8F10108F7D25B46214638469E
:102AB000179A13E142E00A220092C4F302524FF047
:102AC000000A022A08D059F804CB032A4FEAEC7115
:102AD0000AD00DE029E02AE009F1070121F0070200
:102AE000F2E802C1914609E00FFA8CFC4FEAEC7162
:102AF000042A03D14FFA8CFC4FEAEC71002907DA63
:102B00000A460021DCF1000C61EB02012D2202E0FB
:102B1000220504D52B228DF80420012203E0E207D0
:102B200001D02022F7E7904659E00A2102E0102266
:102B30000DE010214FF0000A00910BE010224FF041
:102B4000000A44F004040827009203E008224FF032
:102B5000000A0092C4F30252022A05D059F804CBAD
:102B60000021032A08D009E009F1070121F007023A
:102B7000F2E802C1914605E01FFA8CFC042A01D15B
:102B80000CF0FF0C4FF00008220728D5702806D063
:102B9000009B83F0100353EA0A0305D00EE04022A5
:102BA0008DF80420012208E05CEA010206D0302200
:102BB0008DF804208DF8050002229046009B83F0DA
:102BC000080353EA0A030AD15CEA010201D1620751
:102BD00005D530228DF804204FF001087F1E5828BB
:102BE00004D034A003900EA802900DE036A0F9E7BF
:102BF00053466046009AFDF703FD84460398825CC5
:102C00000298401E029002705CEA0100F0D1029826
:102C100006A9081A00F1200A600702D524F48034BE
:102C200000E00127574502DDA7EB0A0000E0002085
:102C300000EB0A01009005984144401A0590E0031A
:102C400006D45B462146179A059800F0B3F905446F
:102C5000002706E001A85A46C05D179990476D1CF1
:102C60007F1C4745F6DBE0030CD55B462146179AEF
:102C7000059800F09FF9054404E030205A46179962
:102C800090476D1C0099481E00900029F5DC08E073
:102C9000029802995A460078491C02911799904768
:102CA0006D1CBAF10001AAF1010AF1DC65E1000036
:102CB0000928010030313233343536373839616212
:102CC00063646566000000003031323334353637D6
:102CD00038394142434445460000000000F058F9AD
:102CE0000544761C307800287FF4ECAD19B02846F6
:102CF000BDE8F08F620700D4062709F1070222F031
:102D0000070CFCE80223E14603F000485FEA080CE8
:102D100002D00FF2702C0DE05FEA045C02D50FF2D6
:102D2000682C07E05FEAC47C02D00FF2602C01E05F
:102D3000AFF2700C4FF0FF3823F00043CDF850C0D5
:102D400065280CD006DC452809D046281DD0472828
:102D50003DD13DE0662818D067287ED138E00021BB
:102D6000112F01DB112000E0781CCDE9000106A93C
:102D70000EA8FFF7DDFCDDE90F010E9A039100219B
:102D8000009207F1010A04914DE04FF000400097D6
:102D9000CDE9011006A90EA8FFF7CAFCDDE90F0274
:102DA00003920E9B11990022DDF80CA0009304926F
:102DB00011B9791C00EB010AB7EB0A0004D4C0F189
:102DC000FF3007F1010A0490AAEB0700019044E0EC
:102DD000012F00DA01270021112F01DD112000E071
:102DE0003846CDE9000106A90EA8FFF7A1FCDDE9F0
:102DF0000F010E9A0391002104910092BA46210717
:102E00000CD40399514500DA8A46BAF1010F05DD69
:102E1000009AAAF10101515C302908D0B84202DAC7
:102E200010F1040F06DA0121CDE9011015E0AAF135
:102E30000101E9E7002805DC049901440491AAEBAB
:102E4000000102E0411C514500DD8A460499401A08
:102E5000401C01904FF000400290200704D40198DC
:102E6000504501DBCDF8048000208DF84F0002981A
:102E70000DF14F07B0F1004F25D02B200E90029896
:102E80004FF0020800280CDA404202902D200E90EC
:102E900007E00A210298FDF79DFB3031029007F808
:102EA000011DB8F10001A8F10108F2DC0298002828
:102EB000EFD1791E0E980870307800F0200040F0B5
:102EC000450007F8020D12A8C01B00F1070814986E
:102ED000007800B1012000EB0A01019801EBE071DC
:102EE00005984144401A401E0590E00306D45B4615
:102EF0002146179A059800F05DF80544149800786B
:102F000018B15A46179990476D1CE00324D55B46CB
:102F10002146179A059800F04DF805441CE00498E6
:102F2000002807DBDDE90301884203DD0098405CEF
:102F3000179901E0179930205A469047049805F1F7
:102F40000105401C04900198401E019004D12E20E0
:102F50005A46179990476D1CBAF10001AAF1010A6F
:102F6000DDDC05E017F8010B5A46179990476D1CF8
:102F7000B8F10001A8F10108F4DC5B462146179A7C
:102F80000598ABE62D0000002B000000200000009B
:102F90002DE9F041044600251E461746880404D456
:102FA00005E039462020B0476D1C641EF9D528463F
:102FB000BDE8F0812DE9F041044600251E4690460B
:102FC000C80301D5302700E02027880404D505E098
:102FD00041463846B0476D1C641EF9D52846BDE809
:102FE000F08100004FF0E021096921F004014FF069
:102FF000E0221161C21700EB5272C2F3C702054B07
:103000001A704FF47A714143C1F3CF01024A118023
:1030100070470000280000202A00002070B50446F8
:103020004FF4077094FBF0F0C6B24FF4077094FBB6
:10303000F0F100FB114085B205E04FF4077000F09D
:1030400009F8701EC6B2002EF7D115B1284600F05F
:1030500001F870BD01460D4A12884A434FF0E02343
:103060005A6100229A6101221A6100BF4FF0E022EA
:10307000106900F001021AB100F48032002AF5D084
:1030800000224FF0E0231A619A6170472A00002065
:1030900070B504460D46E1B20548FFF70EFB00BFD0
:1030A00080210348FFF762FA0028F9D0204670BD5E
:1030B00000100140B8B014223E4933A8FDF7B7F81C
:1030C00028223C49143129A8FDF7B1F828223949B2
:1030D0003C311FA8FDF7ABF820223649643117A810
:1030E000FDF7A5F82022334984310FA8FDF79FF89A
:1030F0001C223049A43108A8FDF799F81C222D495B
:10310000C03101A8FDF793F80823022219214FF4DA
:10311000B470FEF7D9FCB420FFF764FF4FF4E1313F
:103120005A2000F07BF8FDF74AFE23A0FFF7E0FAF3
:10313000FEF73CF8FDF7F2FFFDF72AFBFEF71CFB5C
:10314000FDF70AFDFEF72AFAC820FFF767FF002007
:103150001F4908601FA0FFF7CBFA6420FEF7A8FA0A
:10316000FEF7E0FA4FF47A70FFF758FFFEF77EFAA9
:103170001DA10020FEF768FA1EA10620FEF764FAE2
:1031800033A91FA0FFF7B4FAC820FFF747FF0020BC
:103190001C49C1F890021C490860C820FFF73EFF97
:1031A00007E04FF47A70FFF739FF41F28830FFF7FC
:1031B00035FFF6E71C33000853544D3332CDE2C9D6
:1031C000E8B3F5CABCBBAFB3C9B9A6A3A100000060
:1031D0008C824342D3B2BCFEB3F5CABCBBAFB3C909
:1031E000B9A6A3A1000000002020202020204741F4
:1031F000484F200020204B50A3BA4B49A3BA0000EF
:1032000025730000008041428C024442014600299F
:1032100001DA484200E0084670470000F0B52DEDA5
:10322000028B83B005460E46384905FB01F000EEDF
:10323000100AF8EE400A300100EE100AB8EE400A1B
:1032400080EE801AB0EE418ABCEEC80A10EE100A79
:1032500084B200EE104AB8EE400A38EE400AF3EEAF
:10326000000A20EE200ABCEEC00A10EE107A4FF6DB
:10327000FF7000EA0414E01984B22548006840F0A9
:1032800001002349086022481430006840F0100013
:103290001F49143108600120022100230A46CDE9AC
:1032A00000104FF4C0611B48FDF7EBFC0722092119
:1032B0001848FDF75BFC07220A211648FDF756FC6B
:1032C00015480481808920F400401349888108460C
:1032D000808940F0080088810846808940F0040019
:1032E00088810846808940F02000888102232522B9
:1032F00003210846FDF78CFF0748808940F4005001
:103300000549888103B0BDEC028BF0BD40420F003F
:1033100030380240000002400010014041463A337C
:10332000300000000000000000000000000000006D
:10333000C9A8C3E8CDEAB3C9A3ACC7EBD7B0C8EB03
:1033400031BAC5CEEFC1CFA3ACB2A2B9D8B1D5B214
:10335000D6C3C50000000000C9A8C3E8CDEAB3C9C0
:10336000A3ACC7EBD7B0C8EB32BAC5CEEFC1CFA381
:10337000ACB2A2B9D8B1D5B2D6C3C5000000000026
:10338000B5BDB4EF31BAC5CAD5BBF5B5E3A3ACC77B
:10339000EBB3F6CABECCE1BBF5C2EB000000000007
:1033A000B5BDB4EF32BAC5CAD5BBF5B5E3A3ACC75A
:1033B000EBB3F6CABECCE1BBF5C2EB0000000000E7
:1033C000C7EBC8A1B3F631BAC5CEEFC1CFA3ACB23B
:1033D000A2B9D8B1D5B2D6C3C5000000C7EBC8A109
:1033E000B3F632BAC5CEEFC1CFA3ACB2A2B9D8B151
:1033F000D5B2D6C3C50000000000000000000000E8
:1034000000000000000000000038FCFC3800000054
:1034100000000D0D000000000E1E00001E0E00003A
:103420000000000000000020F8F820F8F82000025A
:103430000F0F020F0F0200387C444747CC9800035F
:1034400006041C1C07030030300080C06030000CF4
:10345000060301000C0C0080D87CE4BCD8400007B7
:103460000F0808070F080000101E0E0000000000E3
:10347000000000000000000000F0F80C0400000054
:103480000003070C0800000000040CF8F000000026
:1034900000080C0703000080A0E0C0C0E0A080008E
:1034A00002030101030200008080E0E08080000050
:1034B0000000030300000000000000000000000006
:1034C00000101E0E00000080808080808080000040
:1034D00000000000000000000000000000000000EC
:1034E00000000C0C00000000000080C06030000CE8
:1034F00006030100000000F8FC04C424FCF80007E7
:103500000F0908080F0700001018FCFC000000005D
:1035100008080F0F080800080C84C4643C18000E4B
:103520000F0908080C0C00080C444444FCB80004C3
:103530000C0808080F0700C0E0B098FCFC800000F1
:103540000000080F0F08007C7C4444C4C4840004BD
:103550000C0808080F0700F0F84C4444C08000072E
:103560000F0808080F07000C0C0484C47C3C000002
:10357000000F0F00000000B8FC444444FCB80007F2
:103580000F0808080F0700387C444444FCF800008A
:103590000808080C0703000000003030000000009D
:1035A00000000606000000000000303000000000AF
:1035B00000080E060000000080C0603018080000FF
:1035C000000103060C08004040404040404000021B
:1035D000020202020202000008183060C0800000EF
:1035E000080C0603010000181C04C4E43C18000089
:1035F00000000D0D000000F0F808C8C8F8F0000742
:103600000F080B0B0B0100E0F0988C98F0E0000F16
:103610000F0000000F0F0004FCFC4444FCB800083D
:103620000F0F08080F0700F0F80C04040C18000333
:10363000070C08080C060004FCFC040CF8F0000859
:103640000F0F080C07030004FCFC44E40C1C0008EA
:103650000F0F08080C0E0004FCFC44E40C1C0008CE
:103660000F0F0800000000F0F80C84848C98000311
:10367000070C0808070F00FCFC404040FCFC000F52
:103680000F0000000F0F00000004FCFC040000000D
:1036900000080F0F08000000000004FCFC040007F5
:1036A0000F08080F07000004FCFCC0F03C0C0008E9
:1036B0000F0F00010F0E0004FCFC040000000008C6
:1036C0000F0F08080C0E00FCFC387038FCFC000FD3
:1036D0000F0000000F0F00FCFC3870E0FCFC000F36
:1036E0000F0000000F0F00F0F80C040CF8F00003BE
:1036F000070C080C07030004FCFC44447C38000859
:103700000F0F0800000000F8FC040404FCF8000798
:103710000F080E3C3F270004FCFC44C4FC380008A2
:103720000F0F00000F0F00183C6444C49C180006E3
:103730000E0808080F0700001C0CFCFC0C1C000005
:1037400000080F0F080000FCFC000000FCFC000754
:103750000F0808080F0700FCFC000000FCFC00013B
:1037600003060C06030100FCFC008000FCFC0003C7
:103770000F0E030E0F03000C3CF0C0F03C0C000CCD
:103780000F0300030F0C00003C7CC0C07C3C000019
:1037900000080F0F0800001C0C84C4643C1C000EC1
:1037A0000F0908080C0E000000FCFC0404000000D7
:1037B000000F0F080800003870E0C0800000000013
:1037C00000000103070E0000000404FCFC000000E0
:1037D0000008080F0F0000080C0603060C08000084
:1037E00000000000000000000000000000000020B9
:1037F00020202020202020000003070400000000DB
:103800000000000000000000A0A0A0E0C000000731
:103810000F0808070F080004FCFC2060C0800008A7
:103820000F0708080F0700C0E020202060400007B5
:103830000F0808080C040080C06024FCFC0000078E
:103840000F0808070F0800C0E0A0A0A0E0C0000714
:103850000F0808080C040040F8FC440C180000088D
:103860000F0F0800000000C0E02020C0E02000276B
:103870006F48487F3F000004FCFC4020E0C0000887
:103880000F0F00000F0F00000020ECEC0000000004
:1038900000080F0F0800000000000020ECEC000002
:1038A000307040407F3F0004FCFC80C06020000876
:1038B0000F0F01030E0C00000004FCFC00000000D0
:1038C00000080F0F080000E0E060C060E0C0000FDB
:1038D0000F000F000F0F0020E0C02020E0C000000C
:1038E0000F0F00000F0F00C0E0202020E0C00007F5
:1038F0000F0808080F070020E0C02020E0C00040AB
:103900007F7F48080F0700C0E02020C0E0200007AC
:103910000F08487F7F400020E0C0602060C00008A2
:103920000F0F080000000040E0A0202060400004CD
:103930000C09090B0E04002020F8FC2020000000D8
:1039400000070F080C0400E0E00000E0E0000007C2
:103950000F0808070F080000E0E00000E0E00000AA
:1039600003070C0C070300E0E0000000E0E00007A4
:103970000F0C070C0F07002060C080C060200008FB
:103980000C0703070C0800E0E0000000E0E000473F
:103990004F4848683F1F00606020A0E06020000C96
:1039A0000E0B09080C0C00004040F8BC0404000099
:1039B0000000070F080800000000BCBC0000000069
:1039C00000000F0F000000000404BCF8404000009D
:1039D00008080F07000000080C040C080C04000085
:1039E0000000000000000080C0603060C080000760
:1039F000070404040707001022640C8008494A4C9D
:103A0000F84C4A490800000404FE010404040404BC
:103A1000FF0404040604001010D0FF50902040FF63
:103A200000FF4020300000040300FF8044221907FB
:103A3000003F414640700000F848484848FF484869
:103A40004848FC080000000007020202023F424210
:103A50004242474070000080808282828282E2A2DD
:103A6000928A8680C08000000000000040807F00B5
:103A70000000000000000000000000000000000046
:103A80000000000000000000000000000000000036
:103A90000000000000000000000000000000000026
:103AA0000000000000000000000000000000000016
:103AB0000000000000000000000000000000000006
:103AC00000000000000000000000000000000000F6
:103AD00000000000000000000000000000000000E6
:103AE00000000000000000000000000000000000D6
:103AF00000000000000000000000000000000000C6
:103B000000000000000000000000000000000000B5
:103B1000F8FC1C3830381CFCF800F8F800F8F80005
:103B20000000F8FC8C8C8C0080D050F0E000F0F0AD
:103B300020300000808000808000808000000C1217
:103B400024120C00000000000000008000000000B3
:103B500000000018244488442418000000000000DD
:103B60000000000000000000000000000000000055
:103B70000000000000000000000000000000000045
:103B80000000000000000000000000000000000035
:103B900003838000808000030300080B0B0F078065
:103BA00040804083030303000003030303000383F7
:103BB00080808080C3C3C0C3C3C0C3C3C0C0C0C0F3
:103BC000C0808080C0C040201804030000000000B6
:103BD0002050A05020000000000000000000000065
:103BE00000000000000000000000000000000000D5
:103BF00000000000000000000000000000000000C5
:103C000000000000000000000000000000000000B4
:103C10000304081108040300000000000000000174
:103C20000284C2E160301078ECFCF63A1B058597FF
:103C3000131213131111111111110181FFF9F9F26E
:103C4000C2822225058D8B93B3E6C68C1C18387072
:103C500070E0C08000000000000018244824180014
:103C60000000000000000000000000000000000054
:103C70000000000000000000000000000000000044
:103C80000000000000000000000000000000000034
:103C90000080E0E0703018181C1C1C0C1C16161656
:103CA0000627636DAECE0E0E0F0F0F0E060607072A
:103CB0000606060606060606060666776767E7072F
:103CC0000707060606070787C767232312100008A1
:103CD00008090B0F0E0E0C3C70F0C08000000000B5
:103CE00000000000000000000000000000000000D4
:103CF00000000000000000000000000000000000C4
:103D000000000000000000000000000000F0F8DEED
:103D1000FFF63611E0F0F8FCFEDE1E3F3F1EFEFE11
:103D2000FCF8F2E4080107FC0000000000000000BD
:103D30000000000000000000000000000000FF0084
:103D4000000000003CFFE7311CE6FFFFFFFEFE1F06
:103D50003F3F1FFFFEFEFCF8F8F031FBFFFEFC3892
:103D60000000000000000000000000000000000053
:103D70000000000000000000000000000000000043
:103D80000000000000000000000000000000030729
:103D90004F4C60607F7F7F7F7D4D44727240797DA4
:103DA0007F7F7F7F7C7070737370707474747474B1
:103DB00074747474747474767676767676767370BA
:103DC00070727272737070707C7F7F7F7F7D7D6296
:103DD000727260687D7F7F7F7F77746767630000A2
:103DE00000000000000000000000000000000000D3
:103DF00000000000000000000000000000000000C3
:103E000000000000000000000000000000000000B2
:103E100000000000000000000000000000000000A2
:103E20000000000000000000000000000000000092
:103E30000000000000000000000000000000000082
:103E40000000000000000000000000000000000072
:103E50000000000000000000000000000000000062
:103E60000000000000000000000000000000000052
:103E70000000000000000000983E00080000002044
:103E80009C00000010270008343F00089C00002020
:103E90003C09000020270008000000000102030484
:103EA00001020304060708090100000000000000E9
:103EB00032000000000000000000000000000000D0
:103EC000000000000000000000000000272327235E
:103ED0000000F0410000A0410000E0400000A040D0
:103EE00000000000000000000000000000000000D2
:103EF00000000000000000000000000000000000C2
:103F000000000000000000000000000000000000B1
:103F100000000000000000000000000000000000A1
:103F20000000000000000000000000000000000091
:043F3000000000008D
:04000005080001AD41
:00000001FF
