:020000040800F2
:10000000680B0020C101000835150008A90D000883
:1000100019130008C3070008B32A000800000000F5
:10002000000000000000000000000000011C0008AB
:10003000710A000800000000D9190008ED1C000832
:10004000E1010008E1010008E1010008E101000808
:10005000E1010008E1010008E1010008E1010008F8
:10006000B10A0008E1010008E1010008E10100080F
:10007000C9070008E1010008E1010008E1010008EA
:10008000AD080008E1010008E1010008E1010008F5
:10009000E1010008E1010008E1010008E1010008B8
:1000A000E1010008E1010008E1010008E1010008A8
:1000B000E1010008351F0008E1010008E101000826
:1000C000E1010008E1010008E1010008E101000888
:1000D000E101000871260008F12600083128000817
:1000E000750A0008E1010008E1010008E1010008CB
:1000F000E1010008E1010008E1010008E101000858
:10010000E1010008E1010008E1010008E101000847
:10011000E1010008E1010008A9200008E101000850
:10012000E1010008E1010008E1010008E101000827
:10013000E1010008E1010008E1010008E101000817
:10014000E1010008E1010008E1010008E101000807
:10015000E1010008E1010008E1010008712900083F
:10016000E1010008E1010008E1010008E1010008E7
:10017000E1010008E1010008E101000800000000C1
:10018000E1010008E1010008E1010008E1010008C7
:10019000E1010008E1010008E1010008E1010008B7
:1001A000E1010008E1010008E1010008DFF80CD0DE
:1001B00000F0CAFA00480047A5340008680B002088
:1001C0000848016841F47001016007480047FEE7F4
:1001D000FEE7FEE7FEE7FEE7FEE7FEE7FEE7FEE7F7
:1001E000FEE7000088ED00E0AD010008202A04DBF6
:1001F000203A00FA02F1002070479140C2F120033A
:1002000020FA03F3194390407047202A06DBCB17EE
:10021000203A41FA02F043EAE07306E041FA02F3C1
:10022000D040C2F12002914008431946704710B5F2
:10023000431A934209D28318881803E010F8011D6D
:1002400003F8011D521EF9D210BD40EA01039B07BD
:1002500003D009E008C9121F08C0042AFAD203E03B
:1002600011F8013B00F8013B521EF9D210BD2DE9F7
:10027000FE4F804681EA0300C00F0C46009021F03B
:10028000004123F00045B8EB0200A94105D24046E9
:10029000214690461C460B46024623F00040104380
:1002A00047D0270DC7F30A00C3F30A510290401A42
:1002B000019040286BDAC3F3130040F4801B0098D0
:1002C000924620B10023D2EB030A63EB0B0B01989B
:1002D0005946C0F140025046FFF788FF06460D46DA
:1002E00050465946019AFFF790FF10EB0800614114
:1002F000002487EA115284EAE7731A4340D0009A37
:1003000062B3019A012A4FEA075215DC001B61EB28
:1003100002014FF0004202EA0752CDE90042001C00
:1003200041F5801132462B4600F0A8F903B0BDE834
:10033000F08F40462146F9E7001B61EB0201001CEB
:1003400041F5801300185B412018A2F5001747EB18
:10035000030140EAD570B6196D4111E06D084FEA0E
:10036000360645EAC0754FEA0752001B61EB0201F1
:10037000001C41F5801149084FEA30000019514135
:1003800032462B4603B0BDE8F04F00F068B9009844
:10039000012240000023D0EB020263EBE0730098DF
:1003A00021464FEAE074B8EB000061EB0401E9E795
:1003B00083F000435BE781F0004158E72DE9FE4FF1
:1003C00081EA030404F0004421F0004100944FF05E
:1003D000000B23F0004350EA01045ED052EA03040C
:1003E0005BD0C3F30A54C1F30A552C44A4F2F3348E
:1003F0000194A0FB0254C1F3130141F48011C3F333
:10040000130343F4801301FB024400FB034E840AF0
:10041000970A44EA815447EA8357A4FB0768029588
:100420008D0A05FB07854FEA932C04FB0C54270526
:10043000029D4FEA065847EA1637B5EB08056EEB02
:10044000070C870E920E47EA811742EA8312A7FB38
:100450000201B6EB0B0164EB00042B0D43EA0C33F5
:100460005E1844EB1C50DA465146E7FB0201C5F327
:1004700013044FEA0B3343EA14534FEA0432019C4E
:1004800043EA0603A4F10C040294009CCDE900B4F5
:1004900000F0F4F803B0BDE8F08F00200146F9E762
:1004A0002DE9F04D81EA030404F0004B21F00045F2
:1004B00014464FF0000A23F0004150EA050220D014
:1004C00054EA01021DD0C5F30A570246C5F31303CF
:1004D000C1F31300C1F30A5640F4801543F48013AE
:1004E000A7EB0608101BD64608F2FD3873EB050093
:1004F00002D308F1010801E092185B41B8F1000F46
:1005000003DA00200146BDE8F08D00204FF4801191
:10051000064684460EE0171B73EB050705D3121B36
:1005200063EB050306434CEA010C49084FEA30002F
:1005300092185B4150EA0107EDD152EA030012D054
:1005400082EA040083EA0501084305D0101BAB4191
:1005500006D20122002306E000224FF0004302E011
:100560006FF0010253101AEB06004CEB085110EB30
:100570000A0041EB0B01BDE8F04D00F070B800003F
:1005800030B5041E71F1000404DB4FF0004440421A
:1005900064EB0101141E73F1000405DB1C464FF0EF
:1005A0000043524263EB0403994208BF904230BDBE
:1005B00030B50B46014600202022012409E021FA33
:1005C00002F59D4205D303FA02F5491B04FA02F530
:1005D0002844151EA2F10102F1DC30BD2DE9F05FC7
:1005E0000546002092469B468846064681464024A2
:1005F0001BE0284641464746224600F020F8534675
:100600005A46C01A914110D3114618462246FFF7A8
:10061000EDFD2D1A67EB01084F462246012000210F
:10062000FFF7E4FD17EB00094E41201EA4F1010481
:10063000DFDC484631462A464346BDE8F09F202A83
:1006400004DB203A21FA02F00021704721FA02F37C
:10065000D040C2F12002914008431946704710B5BE
:10066000141E73F1000408DA401C41F100019218D5
:100670005B411A4301D120F0010010BD2DE9F04D7E
:1006800092469B4611B1B1FA81F202E0B0FA80F2D3
:1006900020329046FFF7AAFD04460F4640EA0A00C2
:1006A00041EA0B0153465A46084313D0114653EA18
:1006B000010019D0C8F140025046FFF7C0FF0546BF
:1006C0000E46504659464246FFF790FD084305D076
:1006D000012004E020463946BDE8F08D00200543A6
:1006E00046EAE0762C4337430A986305E40AA0EB18
:1006F00008000022FD0A44EA47540A3002D50020CF
:100700000146E9E7010510196941DDE908450019CD
:100710006941BDE8F04DA2E7C1F30A52C1F31301EC
:1007200040F2FF3341F480119A4202DA0020014680
:10073000704740F233439A42A2F2334202DC524203
:10074000FFF77DBFFFF752BD064C074D06E0E0689E
:1007500040F0010394E8070098471034AC42F6D308
:10076000FFF728FDC8400008E840000870B58C1865
:1007700010F8015B15F0070301D110F8013B2A11B5
:1007800006D110F8012B03E010F8016B01F8016BA2
:100790005B1EF9D12B0705D40023521E0DD401F89E
:1007A000013BFAE710F8013BCB1A921C03E013F867
:1007B000015B01F8015B521EF9D5A142D8D300209C
:1007C00070BD00BFFEE7000010B52D492D4800F0B8
:1007D0001DF938B12A492B4800F0F2F800212948C8
:1007E00000F008F92649274800F010F980B12449A3
:1007F000244800F0E5F80021224800F0FBF82049E9
:10080000204800F0C3F8002240211F4802F008F9F8
:100810001E491C4800F0FAF838B11C49194800F08C
:10082000CFF81B49174800F0B1F81A49154800F0F5
:10083000EDF838B11749134800F0C2F816491148CD
:1008400000F0A4F815490F48603000F0DFF838B127
:1008500013490C4800F0B4F812490A4800F096F821
:100860001149084800F0D2F840B10F49054800F09E
:10087000A7F80C49C039034800F088F810BD000003
:10088000008800102860024000480040004400102A
:1008900000040010002200100002001000110020CF
:1008A00000110010000100104000009010B52C490C
:1008B0002C4800F0ABF838B129492A4800F080F8FC
:1008C0000021284800F096F82749264800F09EF8B5
:1008D00080B12549234800F073F80021214800F039
:1008E00089F821491F4800F051F8002240211F4893
:1008F00002F096F81E491B4800F088F838B11C49F0
:10090000184800F05DF81B49164800F03FF81A49F6
:10091000144800F07BF838B11749124800F050F83D
:100920001649104800F032F815490E4800F06EF8EC
:1009300038B113490B4800F043F81249094800F058
:1009400025F81149074800F061F840B10E49054803
:1009500000F036F80B49C039024800F017F810BD16
:100960000088001088600240008800200044004099
:10097000004400200004002000220020000200208B
:100980000011002000010020400000A00246094B99
:100990009A4201D2084801E00648103801F000539D
:1009A0001BB1064B0B40C36002E0044B0B4083605D
:1009B0007047000010640240006002407D0F7D0F10
:1009C0000246094B9A4201D2084801E00648103815
:1009D00001F000531BB1064B0B40C36002E0044B17
:1009E0000B408360704700001064024000600240CA
:1009F0007D0F7D0F21B1026842F00102026003E029
:100A0000026822F0010202607047000070B50246E1
:100A1000002000240025124EB24201D2114B01E009
:100A20000F4B103B104E0E4036B11E2606EAD12465
:100A3000166806EA040502E0566906F0800501F032
:100A400000560EB15C6800E01C68084E344004EAB1
:100A5000010616B10DB1012000E0002070BD0000BC
:100A600010640240006002403C0F3C0F7D0F7D0F80
:100A70007047000010B54FF4805000F03BF888B18B
:100A80000948406980F0080007494861074890ED2F
:100A9000000AF7EE000A30EE200A80ED000A881402
:100AA00000F022F810BD00000020024020010020CC
:100AB00010B5042000F01EF888B10948006880F0E5
:100AC000100007490860074890ED000AF7EE000A99
:100AD00030EE200A80ED000A042000F005F810BD79
:100AE000140C02401C0100200149086070470000FE
:100AF000143C014001460020034A12680A400AB132
:100B0000012000E000207047143C014000212349EF
:100B10008279002A3AD00A46126803689A430B4643
:100B20001A600A1D126803689A430B1D1A60027945
:100B300011440A6803681A430A60184A08321268A6
:100B400003689A43154B08331A601A1D126803682C
:100B50009A43124B0C331A604279102A0ED11A1F95
:100B6000126803681A430D4B08331A601A1D126885
:100B700003681A43094B0C331A600DE007494279A8
:100B800011440A6803681A430A6005E002791144B7
:100B90000A6803689A430A6070470000003C0140FD
:100BA00010B501F02BF901F07DF901F0EBF901F03E
:100BB00033FA10BD30B5CC1000F1200353F82430C7
:100BC0004C07E50E0F24AC40A343CD1000F12004E8
:100BD00044F82530CC1000F1200353F824304C07A2
:100BE000E40E02FA04F42343CD1000F1200444F88B
:100BF000253030BDF0B50A4600210023002400BF97
:100C00003DE0012505FA01F3156805EA03049C425D
:100C100034D105684F000326BE40B5430560157901
:100C20004E00B5400668354305601579012D02D0A8
:100C30001579022D16D185684F000326BE40B543B5
:100C4000856055794E00B5408668354385604568B6
:100C500001268E40B5434560456896798E40B6B210
:100C600035434560C5684F000326BE40B543C560A7
:100C7000D5794E00B540C6683543C560491C10297A
:100C8000BFD3F0BDF0B5002300244D07ED0E02FAEE
:100C900005F3CE1000F1200555F826504E07F70E4B
:100CA0000F26BE40B543CF1000F1200646F827506E
:100CB000CE1000F1200555F8265045EA0304CE1069
:100CC00000F1200545F82640F0BD2DE9F0470C461F
:100CD000DDE90867002100258C4600BF60E04FF089
:100CE000010808FA01F504EA050CAC4557D1D0F823
:100CF00000804FEA410A4FF0030909FA0AF928EA8D
:100D00000908C0F80080D0F800804FEA410902FAD3
:100D100009F948EA0908C0F80080012A01D0022A2E
:100D200027D1D0F808804FEA410A4FF0030909FAA9
:100D30000AF928EA0908C0F80880D0F808804FEAC4
:100D4000410906FA09F948EA0908C0F80880D0F80C
:100D500004904FF0010808FA01F829EA0809C0F8E0
:100D60000490D0F8048003FA01F948EA0908C0F8B1
:100D70000480D0F80C804FEA410A4FF0030909FAC9
:100D80000AF928EA0908C0F80C80D0F80C804FEA6C
:100D9000410907FA09F948EA0908C0F80C80491C1A
:100DA00010299CD3BDE8F08700BFFEE721B102887F
:100DB00042F48062028004E002884FF6FF331A405A
:100DC0000280704770B502460024002500230020F1
:100DD000958A138B1B0445EA030626F07F4404EA38
:100DE00001068E4201D1012000E0002070BD21B13A
:100DF000028842F00102028004E002884FF6FE738E
:100E00001A400280704710B500F004F800F0BEF8F8
:100E100010BD00001CB50121480500F0EFFD0121C7
:100E2000022000F0DBFD042208211148FFF72AFF11
:100E3000042209210E48FFF725FF4FF4807000902F
:100E400002208DF804008DF8050001208DF80600C1
:100E500000208DF8070069460548FFF7CBFE4FF4E8
:100E60000070009069460248FFF7C4FE1CBD0000F8
:100E70000004024021B1028842F48072028004E042
:100E800002884FF6FF631A400280704721B1028842
:100E900042F40072028004E002884FF6FF531A40C9
:100EA000028070472DE9FF4704460D460026B146F3
:100EB0000427DFF8CC80A6884FF6C070064068464D
:100EC00000F0BCFDDDF808802E48B8FBF0F01FFAFA
:100ED00080F946EA0906A68020884FF6FE71084090
:100EE000208000262849286888420CD828684000BD
:100EF000B8FBF0F087B2042F00DA04273E4309F173
:100F00000100208427E0E8884BF6FF71884206D173
:100F1000286800EB4000B8FBF0F087B209E02868D1
:100F200000EBC00101EB0010B8FBF0F087B247F412
:100F30008047C7F30B0008B947F0010747F40040AA
:100F400006434FF4967009FB00F04FF47A7190FB62
:100F5000F1F0401C2084A683208840F0010020800E
:100F600026884FF6F5300640A8886989084306436D
:100F70002680A889298908432081BDE8FF870000D1
:100F800000127A0040420F00A08601001FB5002029
:100F9000ADF804004BF6FF70ADF806000A20ADF87E
:100FA00008004FF48060ADF80A000001ADF80C00B5
:100FB0000748009069460748FFF774FF012105487C
:100FC000FFF715FF01210348FFF7F0FE1FBD0000EA
:100FD000400D0300005400402DE9F04105460F4646
:100FE00014461E4601211D48FFF744FF00BF1C495F
:100FF0001A48FFF7E7FE0028F9D0002229461748D3
:1010000000F070F800BF17491448FFF7DBFE002816
:10101000F9D03946114800F06DF800BF1149891C1C
:101020000E48FFF7CFFE0028F8D00CE021780B48DF
:1010300000F060F8641C00BF0A49891C0748FFF7EC
:10104000C1FE0028F8D0301EA6F101018EB2EDD10C
:1010500001210248FFF71AFFBDE8F081005400406B
:10106000010003008200070070B504460E461546D5
:1010700001211948FFF7FEFE00BF18491648FFF787
:10108000A1FE0028F9D000222146134800F02AF8DA
:1010900000BF13491048FFF795FE0028F9D03146EC
:1010A0000D4800F027F800BF0D49891C0A48FFF7DA
:1010B00089FE0028F8D02946074800F01BF800BF39
:1010C0000749891C0448FFF77DFE0028F8D001215C
:1010D0000148FFF7DBFE70BD005400400100030033
:1010E0008200070012B141F0010101E001F0FE01B0
:1010F00001827047018270470246B3EE041AB0EED7
:10110000410AB3EE0E1AF0EE410A501A124B186063
:1011100018460068114B1B68C01A01EE100AB8EEA1
:10112000C11A21EE001A0C48D0ED001AF8EEE11AAF
:1011300000EEA11A0A48D0ED001AF8EEE11A31EEDD
:10114000211ABDEEC11A80ED001A03480068034B56
:101150001860034800687047F0000020F800002085
:10116000F40000201FB50121802000F037FC012190
:10117000880300F053FC00F0DEF904200290002008
:101180008DF80C008DF80F0002A91848FFF732FD0A
:101190000221072000F036FD0420009000208DF889
:1011A000040008208DF8050001208DF8060068462F
:1011B000FFF7ACFC4FF48050029002A90B48FFF7F8
:1011C00019FD0C21072000F01DFD4FF48050009008
:1011D00000208DF804000C208DF8050001208DF80A
:1011E00006006846FFF792FC1FBD0000001C02408D
:1011F0001CB51348006840F4807011490860084627
:10120000006840F008000860012003210023024626
:10121000CDE9001008210B48FFF757FD01200321FD
:1012200000230246CDE9001010210748FFF74DFDCD
:101230000120064908600649C1F88C021CBD000067
:101240003038024000200240000C024090824142AF
:101250000000444210B500210248008800F0BAFFA7
:1012600010BD00001A0100202DE9F0410746884614
:1012700014461D46284600F033F8C5F1040007FA6D
:1012800000F60F20284100EA0800064306F00F068A
:10129000E21704EBD2625211920002F1E022D2F87E
:1012A00000212146E31704EBD3635B11A4EB431C3D
:1012B000012303FA0CF31A432046E31704EBD3632C
:1012C0005B119B0003F1E023C3F800210348005D9C
:1012D00040EA061001490855BDE8F08100E400E04D
:1012E0000146072323EA01021202054B18684FF654
:1012F000FF031840034B18431043014B186070471D
:101300000CED00E00000FA054A0A52020243014BCC
:101310001A60704708ED00E000BFFEE741F2185187
:10132000884200DD08460249884200DA08467047D4
:10133000E8EAFFFF00B503460A46981A1849086014
:101340000846006817490968401A00EE100AB8EE0E
:10135000C00A1548D0ED000A20EE200A134890ED8F
:10136000001A0F48D0ED000AF8EEE00A01EE200A5C
:101370000F48D0ED000AF8EEE00A30EEC00ABDEEEC
:10138000C00A80ED000A064800680649086008485F
:101390000068FFF7C3FF064908600846006800BD03
:1013A0002C010020340100201C010020200100201D
:1013B0003001002000B503460A46981A1849086013
:1013C0000846006817490968401A00EE100AB8EE8E
:1013D000C00A1548D0ED000A20EE200A134890ED0F
:1013E000001A0F48D0ED000AF8EEE00A01EE200ADC
:1013F0000F48D0ED000AF8EEE00A30EEC00ABDEE6C
:10140000C00A80ED000A06480068064908600848DE
:101410000068FFF783FF064908600846006800BDC2
:1014200038010020400100201C0100202001002084
:101430003C01002000B503460A46981A1849086086
:101440000846006817490968401A00EE100AB8EE0D
:10145000C00A1548D0ED000A20EE200A134890ED8E
:10146000001A0F48D0ED000AF8EEE00A01EE200A5B
:101470000F48D0ED000AF8EEE00A30EEC00ABDEEEB
:10148000C00A80ED000A064800680649086008485E
:101490000068FFF743FF064908600846006800BD82
:1014A000440100204C0100201C01002020010020EC
:1014B0004801002000B503460A46981A18490860FA
:1014C0000846006817490968401A00EE100AB8EE8D
:1014D000C00A1548D0ED000A20EE200A134890ED0E
:1014E000001A0F48D0ED000AF8EEE00A01EE200ADB
:1014F0000F48D0ED000AF8EEE00A30EEC00ABDEE6B
:10150000C00A80ED000A06480068064908600848DD
:101510000068FFF703FF064908600846006800BD41
:1015200050010020580100201C0100202001002053
:1015300054010020704708B54FF4C06000F050F827
:1015400008208DF8000001208DF801008DF80200C0
:101550008DF80300684600F007F828208DF8000099
:10156000684600F001F808BD70B5002100230F2285
:10157000C4781CB3174C246804F4E064C4F5E06438
:10158000C4F30721C1F10404E3B20A4144789C404A
:10159000E1B28478144021430C07210E0E4C0578EB
:1015A0006155047804F01F050124AC4005786D11E5
:1015B000AD0005F1E025C5F8004109E0047804F02C
:1015C0001F050124AC40054D0678761145F82640EC
:1015D00070BD00000CED00E000E400E080E100E000
:1015E00002490143024A1160704700000000FA05F9
:1015F0000CED00E010B500F083F800F051F800F0B9
:101600008DF810BD2DE9F04705460C4616464FF003
:10161000000AA01CC4B2D1463AE005F1B000C2B243
:1016200000217820FFF720FD2746E01704EB10701B
:1016300000111030C2B200217820FFF715FDE0172D
:1016400004EB10700011A4EB0010C2B2002178204E
:10165000FFF70AFD4FF0000811E00AEB0610A0F5B5
:1016600000700E490A5C40217820FFF7FDFC0AF16A
:10167000010000F0FF0A08F1010000F0FF08B8F1D6
:10168000080FEADB681CC5B209F1010000F0FF0990
:10169000B9F1020FC1DBBDE8F08700004836000851
:1016A00070B5B0241BE0224600217820FFF7DCFC57
:1016B000102200217820FFF7D7FC00221146782065
:1016C000FFF7D2FC002506E0002240217820FFF73A
:1016D000CBFC681CC5B2842DF6DB601CC4B2B82CF0
:1016E000E1DB70BD10B50446812200217820FFF7B0
:1016F000BBFC224600217820FFF7B6FC10BD00009D
:1017000008B505A00068009003236A4600217820F0
:10171000FFF762FC08BD0000AE8D100000B587B079
:101720001C2206A16846FEF782FD1C236A460021A2
:101730007820FFF751FC07B000BD0000AE0010D5C7
:1017400080A83FD300B0408D14A1C8DA1281FFD920
:10175000F1DB302000A4A6AF70B5002420E004F136
:10176000B000C2B200217820FFF77EFC10220021D9
:101770007820FFF779FC022200217820FFF774FC23
:10178000002509E005EBC41007490A5C40217820D8
:10179000FFF76AFC681CC5B2802DF3DB601CC4B285
:1017A000082CDCDB70BD0000C83C000810B56420CC
:1017B000FFF798FFFFF7D0FF4FF47A7001F026FE95
:1017C000FFF76EFF4B2200210846FFF71BFF502258
:1017D00008210020FFF716FF3A2210210020FFF712
:1017E00011FF4B2240210020FFF70CFF4922482126
:1017F0000020FFF707FF3A2250210020FFF702FFE9
:10180000474890ED000ABDEEC00A10EE100A6421B0
:1018100090FBF1F00A2190FBF1F201FB1200303055
:1018200084B2224658210020FFF7ECFE3C4890EDA0
:10183000000ABDEEC00A10EE100A0A2190FBF1F07A
:1018400090FBF1F201FB1200303084B2224660219D
:101850000020FFF7D7FE324890ED000ABDEEC00A27
:1018600010EE100A0A2190FBF1F201FB1200303059
:1018700084B2224668210020FFF7C4FE58220021CE
:101880000220FFF7BFFE3A2208210220FFF7BAFE2E
:10189000592240210220FFF7B5FE3A2248210220BA
:1018A000FFF7B0FE4D2200210846FFF7ABFE3122C4
:1018B00008210020FFF7A6FE3A2210210020FFF7A2
:1018C000A1FE4D2240210020FFF79CFE332248213B
:1018D0000020FFF797FE3A2250210020FFF792FEEA
:1018E0004D2200210846FFF78DFE322208210020FC
:1018F000FFF788FE3A2210210020FFF783FE4D22D9
:1019000040210020FFF77EFE342248210020FFF70F
:1019100079FE3A2250210020FFF774FE10BD00002E
:10192000200100202849097829B9AA2803D10121DA
:10193000254A117046E024490978012905D1552826
:1019400003D10221204A11703CE01F490978022985
:1019500005D11E49087003211B4A117032E01A4953
:101960000978032905D1194948700421164A1170D4
:1019700028E015490978042905D114498870052102
:10198000114A11701EE010490978052917D1542811
:1019900015D10E4909780D4A52781144C9B20B4A43
:1019A0009278914207D109490978094A116007499B
:1019B0004978084A11600021034A117002E00021B1
:1019C000014A1170704700000801002058030020F0
:1019D0000C010020100100207047000029B1064AC8
:1019E00012680243044B1A6004E0034A12688243FF
:1019F000014B1A60704700003038024029B1064A96
:101A000012680243044B1A6004E0034A12688243DE
:101A1000014B1A60704700004038024029B1064A65
:101A200012680243044B1A6004E0034A12688243BE
:101A3000014B1A607047000044380240F0B50021A5
:101A400000220024022500260223324F3F6807F0BF
:101A50000C0121B1042905D0082937D105E02E4F0A
:101A6000076036E02D4F076033E02A4F3F1F3F6885
:101A7000C7F38056274F3F1F3F6807F03F036EB103
:101A8000264FB7FBF3F7DFF88CC0ACF1040CDCF8A1
:101A900000C0CCF3881C07FB0CF40CE01E4FB7FB16
:101AA000F3F7DFF870C0ACF1040CDCF800C0CCF345
:101AB000881C07FB0CF4174F3F1F3F68C7F3014713
:101AC0007F1C7D00B4FBF5F7076002E0124F076052
:101AD00000BF00BF0F4F3F6807F0F0010909104F2A
:101AE0007A5C0768D74047600A4F3F6807F4E051C7
:101AF000890A0B4F7A5C4768D7408760054F3F687B
:101B000007F46041490B064F7A5C4768D740C760CD
:101B1000F0BD0000083802400024F40040787D0148
:101B2000000000200146022906D003291BD0042909
:101B30002FD0052959D142E04FF08042128802F09F
:101B4000100242B14FF08042526A504200224FF0E0
:101B500080435A6206E04FF08042506A00224FF004
:101B600080435A6243E0234A128802F0100242B1D5
:101B7000204A24321268504200221E4B24331A603D
:101B800006E01C4A2432106800221A4B24331A60E3
:101B90002DE0194A128802F0100242B1164A24328E
:101BA000126850420022144B24331A6006E0124A95
:101BB000243210680022104B24331A6017E00F4AB9
:101BC000128802F0100242B10C4A243212685042CC
:101BD00000220A4B24331A6006E0084A24321068B7
:101BE0000022064B24331A6001E0002000BF00BF32
:101BF000704700000004004000080040000C004056
:101C00007047000030B500228B071C0F0F2303FA2A
:101C100004F20B4B8C1053F824309343084C8D1076
:101C200044F8253023468C1053F824308C07240FB9
:101C300000FA04F42343024C8D1044F8253030BDE3
:101C40000838014000B50246002A07DD00200A4995
:101C5000086001200949C1F8A00206E001200649F8
:101C6000086000200549C1F8A002104601F064FC9C
:101C70000349086000BD0000A40241420000414247
:101C80003C040140F0B504460D4616461F46144874
:101C9000006840F001001249086000201049083136
:101CA00008600F4800680F4908400D4908600E4859
:101CB000091D0860081F006820F48020091F0860C3
:101CC000002007490C3108603B4632462946204631
:101CD00000F00EF800210846FFF716FBF0BD0000EB
:101CE00000380240FFFFF6FE10300024704700006D
:101CF000F0B504460D46002100203D4E366846F4FE
:101D000080363B4F3E6001E04E1CB1B2384E366823
:101D100006F400361EB941F6FF76B142F4DB41F617
:101D2000FF76B14201D1012060E0314E4036366885
:101D300046F080562E4F40373E602E4E366846F4B1
:101D400040462C4F3E602A4E0836366846F414460C
:101D5000274F08373E60264E366826F08076244F9F
:101D60003E6045EA84160127C7EB520746EA07465C
:101D700046EA036646F480061D4F3F1D3E603E1F47
:101D8000366846F080763F1F3E6000BF184E3668CA
:101D900006F00076002EF9D0174E366846F48076AD
:101DA000154F3E603E46366846F400763E603E463D
:101DB000366846F480663E603E46366846F0050664
:101DC0003E600B4E0836366826F00306084F08378B
:101DD0003E603E46366846F002063E6000BF044E56
:101DE0000836366806F00C06082EF8D1F0BD000063
:101DF0000038024000700040003C024000B585B051
:101E000001210846FFF7FAFD01210846FFF7E6FD2C
:101E100001210220FFF7E2FD4FF400400390032070
:101E20008DF8110002208DF8100001208DF81200AD
:101E30008DF8130003A91948FEF7DCFE0820039073
:101E400003A91748FEF7D6FE684600F007FC0020FD
:101E5000ADF8000042F2273001900020ADF80800F4
:101E6000ADF8020069464FF0804000F0B5FB01225A
:101E70000F210A48FEF706FF012203210848FEF75A
:101E800001FF00231A460121880700F04DFA0121C5
:101E9000880700F02EFA05B000BD000000000240E7
:101EA0000004024000B585B001210220FFF7A6FD25
:101EB00001210846FFF792FDC020039003208DF812
:101EC000110002208DF8100001208DF812008DF80D
:101ED000130003A91548FEF78DFE684600F0BEFB0F
:101EE0000020ADF800004FF6FE7001900020ADF824
:101EF0000800ADF8020069460D4800F06DFB0222B3
:101F000006210A48FEF7BEFE022207210748FEF717
:101F1000B9FE00231A460121054800F005FA012107
:101F2000034800F0E6F905B000BD000000000240E3
:101F30000004004010B501210E4800F016FA0128F7
:101F400015D101210B4800F0D1F90220FFF7EAFD7D
:101F500009490860086809490968FFF7CDF8084988
:101F6000086000F0A9FD06480068FFF76BFE00203E
:101F700010BD000000040040B8010020EC0000206B
:101F80001400002000B585B001210420FFF736FDC4
:101F900001210220FFF722FDC020039003208DF8CD
:101FA000110002208DF8100001208DF812008DF82C
:101FB000130003A91548FEF71DFE0222062113484F
:101FC000FEF760FE022207211048FEF75BFE68461E
:101FD00000F044FB0020ADF800004FF6FE700190C9
:101FE0000020ADF80800ADF802006946084800F08E
:101FF000F3FA00231A460121064800F095F9012161
:10200000044800F076F905B000BD0000000402406D
:10201000000400400008004000B585B00121082000
:10202000FFF7ECFC01210846FFF7D8FC03200390E2
:102030008DF8110002208DF8100001208DF812009B
:102040008DF8130003A91548FEF7D4FD684600F08B
:1020500005FB0020ADF800004FF6FE700190002057
:10206000ADF80800ADF8020069460D4800F0B4FA7A
:10207000022200210948FEF705FE0222012107483D
:10208000FEF700FE00231A460121064800F04CF935
:102090000121044800F02DF905B000BD0000024008
:1020A00000040040000C004000B589B042F6E0603A
:1020B00001900290039004900121294800F05EF9FC
:1020C00000284BD00520FFF72DFD2649086004208D
:1020D000FFF728FD234948600320FFF723FD21492E
:1020E00088600220FFF71EFD1E49C8601D4A019945
:1020F0001068FFF71FF905901A4A02995068FFF718
:1021000059F90690174A03999068FFF793F90790D9
:10211000144A0499D068FFF7CDF908900598A0F506
:10212000FA70114908600798A0F5FA700E4908394D
:102130000860089800900DA005A90EC900F0D0FC19
:102140000848C0680090074883684268016812A088
:1021500000F0C6FC0121024800F0C8F809B000BD3B
:1021600000100040B80100203C04014050574D30A1
:102170003D2563200D0A2050574D313D2563200D2C
:102180000A2050574D323D2563200D0A2050574DEF
:10219000333D2563200D0A00456E636F6465723020
:1021A0003D2564200D0A20456E636F646572313DE4
:1021B0002564200D0A20456E636F646572323D25EB
:1021C00064200D0A20456E636F646572333D25649B
:1021D000200D0A0030B58BB004460D4601210420C5
:1021E000FFF7FCFB3848048002208DF8280000200F
:1021F0008DF82A004FF47070099000208DF82B00A4
:1022000003208DF8290009A93048FEF7F3FC0322CA
:1022100006212E48FEF736FD032207212B48FEF744
:1022200031FD032208212948FEF72CFD0322092154
:102230002648FEF727FD01210220FFF7EFFB0020D3
:10224000ADF82000ADF81A00ADF81850E0B28DF8E6
:1022500022001D480088079006A91D4800F0BCF91F
:102260006020ADF804000120ADF806000020ADF8B4
:1022700008000390ADF810004FF48070ADF8140022
:102280000121134800F026F801A9114800F088F850
:102290000020039001A90E4800F0C0F80020039030
:1022A00001A90B4800F00CF90020039001A908488F
:1022B00000F056F90121064800F01BF801210448FE
:1022C00000F023F80BB030BD1A01002000080240D6
:1022D0000004014021B1028842F08002028004E043
:1022E00002884FF67F731A4002807047CA43028209
:1022F000704721B1028842F00102028004E00288A6
:102300004FF6FE731A400280704731B1B0F8442096
:1023100042F40042A0F8442005E0B0F84420C2F3A3
:102320000E02A0F844207047F0B50C4615461E4634
:102330000021002200230189028B038C4FF6F877DD
:10234000394021434FF6FC473A4040F201173A43E7
:102350004FF6DD773B404FF6FF7707EA06172F432E
:102360003B43018102830384F0BD02460020138AAF
:102370000B400BB1012000E00020704730B5024651
:10238000002000230024158A05EA0103958905EA47
:10239000010413B10CB1012000E0002030BD0000A9
:1023A00070B5002400220023058C4FF6FE763540E0
:1023B0000584028C8388048B4FF68F752C40B51EE4
:1023C0002C400D882C43751E2A408D892A434D8848
:1023D0002A43104DA84202D00F4DA84213D14FF608
:1023E000F7752A40CD892A434FF6FB752A408D8820
:1023F0002A434FF6FF652B404FF6FF552B400D8AC1
:102400002B434D8A2B43838004838D68456302846C
:1024100070BD0000000001400004014070B50024C0
:1024200000220023058C4FF6EF7635400584028CA0
:102430008388048B48F6FF752C404FF6FF452C40EF
:102440000D884FF6FF7606EA05252C434FF6DF751B
:102450002A408D8906EA05152A434D8806EA0515A6
:102460002A43154DA84202D0144DA8421DD14FF663
:102470007F752A40CD894FF6FF7606EA05152A4377
:102480004FF6BF752A408D8806EA05152A434FF698
:10249000FF352B404FF2FF752B400D8A06EA85056C
:1024A0002B434D8A06EA85052B43838004838D6880
:1024B0008563028470BD00000000014000040140FB
:1024C00070B5002400220023058C4FF6FF663540CE
:1024D0000584028C8388848B4FF68F752C404FF6D1
:1024E000FC752C400D882C434FF6FF552A408D89F2
:1024F0004FF6FF7606EA05252A434D8806EA0525AC
:102500002A43154DA84202D0144DA8421DD14FF2C6
:10251000FF752A40CD894FF6FF7606EA05252A4346
:102520004FF6FF352A408D8806EA05252A434EF6E8
:10253000FF752B404DF6FF752B400D8A06EA0515F9
:102540002B434D8A06EA05152B43838084838D68CF
:10255000C563028470BD000000000140000401401A
:1025600070B5002200230024058C4EF6FF7635401E
:102570000584038C8488828B48F6FF752A404FF6C9
:10258000FF452A400D884FF6FF7606EA05252A43C7
:102590004DF6FF752B408D8906EA05352B434D8896
:1025A00006EA05352B430A4DA84202D0094DA84240
:1025B00008D14BF6FF752C400D8A4FF6FF7606EAE0
:1025C00085152C43848082838D680564038470BDE7
:1025D000000001400004014000220288184B98428C
:1025E0000ED0184B98420BD0B0F1804F08D0164B4C
:1025F000984205D0154B984202D0154B984204D111
:102600004FF68F731A404B881A43124B984207D0EB
:10261000114B984204D04FF6FF431A400B891A43DE
:1026200002804B68C3620B880385054B984202D039
:10263000044B984201D18B7A038601238382704731
:102640000000014000040140000400400008004078
:10265000000C004000100040001400404FF0FF311B
:10266000416000210180018141808172704700003A
:1026700010B5002401211D4800F0DBF930B11B48E2
:1026800000F00EFA0121194800F0B2F908211748AC
:1026900000F0CFF930B1154800F002FA08211348D4
:1026A00000F0A6F90221114800F0C3F930B10F483B
:1026B00000F0F6F902210D4800F09AF940F2255198
:1026C0000A4800F0C3F978B12021084800F090F9D9
:1026D00040F22551054800F094F9044800F0E0F973
:1026E000C4B22046FFF71EF910BD000000100140E3
:1026F00070B5002540F22551464800F0A7F90028A2
:1027000012D04448008844490870424800F0C8F993
:102710004149087008460078592806D13F4800789A
:1027200018B901203D4908706EE03B4800785928EF
:1027300007D13A480078012803D1022037490870B0
:1027400062E036480078022807D1334800783449DF
:10275000087003203149087056E03048007803289B
:1027600052D12D4800782F4908702D4800780978FB
:1027700040EA01202C490870084600782B4908607F
:10278000084600684FF47A7190FBF1F00A2190FB43
:10279000F1F201FB1200303084B2224650210220B7
:1027A000FEF730FF21480068642190FBF1F00A2118
:1027B00090FBF1F201FB1200303084B22246582126
:1027C0000220FEF71FFF194800680A2190FBF1F074
:1027D00090FBF1F201FB1200303084B222466021FE
:1027E0000220FEF70FFF114800680A2190FBF1F26A
:1027F00001FB1200303084B2224668210220FEF72D
:1028000001FF0020054908704021024800F0F9F856
:1028100070BD000000440040600100206301002002
:102820006101002062010020640100208801002075
:1028300070B5002540F22551464800F007F9002800
:1028400012D04448008844490870424800F028F9F2
:102850004149087008460078592806D13F48007859
:1028600018B901203D4908706EE03B4800785928AE
:1028700007D13A480078012803D10220374908706F
:1028800062E036480078022807D13348007834499E
:10289000087003203149087056E03048007803285A
:1028A00052D12D4800782F4908702D4800780978BA
:1028B00040EA01202C490870084600782B4908603E
:1028C000084600684FF47A7190FBF1F00A2190FB02
:1028D000F1F201FB1200303084B2224610210220B6
:1028E000FEF790FE21480068642190FBF1F00A2178
:1028F00090FBF1F201FB1200303084B22246182125
:102900000220FEF77FFE194800680A2190FBF1F0D3
:1029100090FBF1F201FB1200303084B222462021FC
:102920000220FEF76FFE114800680A2190FBF1F2C9
:1029300001FB1200303084B2224628210220FEF72B
:1029400061FE0020054908704021024800F059F856
:1029500070BD0000004800408C0100208F01002065
:102960008D0100208E01002090010020B401002084
:1029700010B5002401211D4800F05BF830B11B4860
:1029800000F08EF80121194800F032F808211748AC
:1029900000F04FF830B1154800F082F808211348D4
:1029A00000F026F80221114800F043F830B10F483A
:1029B00000F076F802210D4800F01AF840F2255197
:1029C0000A4800F043F878B12021084800F010F8D8
:1029D00040F22551054800F014F8044800F060F872
:1029E000C4B22046FEF79EFF10BD00000014014057
:1029F00001F40072B2F5007F00D100BFCA4302802B
:102A0000704710B50022002340F66A14A14200D19D
:102A100000BF0A1201249440A3B2DC43048010BD1D
:102A20001AB1838A0B43838202E0838A8B438382B9
:102A3000704702460020B1F5007F00D100BF138827
:102A40000B400BB1012000E00020704770B502463A
:102A5000002400230025002040F66A16B14200D170
:102A600000BFC1F3421501F01F03012606FA03F36C
:102A7000012D02D19689334006E0022D02D1168A3B
:102A8000334001E0968A33400C12012606FA04F422
:102A90001688344013B10CB1012000E0002070BD55
:102AA00001468888C0F308007047C1F3080282809D
:102AB000704700BFFEE7000041F6BC3007490968D7
:102AC0004242914202DA4142044A116003490968D4
:102AD000814201DD014908607047000014000020B8
:102AE0000FB4054B10B503A9044A029800F0DAF8B8
:102AF00010BC5DF814FB00008134000800010020C8
:102B000002E008C8121F08C1002AFAD170477047B6
:102B1000002001E001C1121F002AFBD17047000014
:102B20002DE9FF5F82B00021DDE90430020DDDF800
:102B300040B0034318D044F61050A2F2FF32424393
:102B40001514119801281FD0A5EB0B00401C5FEA5B
:102B5000000A4FF000064E4FDFF83891B04650465D
:102B600015D5CAF1000413E0119801244AA30128E5
:102B700001D16FEA0B010298119AC0E90031C0E956
:102B8000024206B0BDE8F09FCBF10000DFE704464B
:102B90000021404A491842EB0450CDE9001012E0F0
:102BA000E00707D032463B4640464946FDF706FC63
:102BB0008046894632463B4610461946FDF7FEFBE5
:102BC00006460F466410002CEAD1DDE90401DDE978
:102BD0000023BAF1000F06DAFDF7F0FB42464B4640
:102BE000FDF7ECFB05E0FDF75BFC42464B46FDF7CD
:102BF00057FC04460E460022284BFDF7C1FC03D8C3
:102C00004FF0FF30014607E00022254B20463146B9
:102C1000FDF72DFBFDF780FD102409E0002C0ADBF9
:102C20000A220023FDF7DAFC039B30321A55641E9A
:102C300050EA0102F2D1641C039AC4F11103144456
:102C4000119A012A03D0012208430DD10AE008435A
:102C500004D000204FF0110B119072E7A3EB0B058D
:102C60006D1E0DE05B4504DD4FF0000205F101052E
:102C700004E003DA4FF00002A5F10105002AECD0D0
:102C800002981199C0E90231C0E9004579E70000D6
:102C9000000014400000F03F300000000000F0434E
:102CA0000000E03F2DE9FF4F95B09B468946064660
:102CB00000250FE2252877D100242746F84A012174
:102CC000059400E0044316F8013F203B01FA03F0AD
:102CD0001042F7D130782A2811D06FF02F033078C6
:102CE000A0F13002092A16D8059A44F0020402EB3A
:102CF000820203EB42021044761C0590EFE759F87C
:102D0000042B0592002A03DA504244F40054059043
:102D100044F00204761C30782E2816D116F8010FE4
:102D200044F004042A280DD06FF02F023078A0F16F
:102D30003003092B09D807EB870302EB4303C718BD
:102D4000761CF3E759F8047B761C30786C280FD09A
:102D500006DC4C2817D068280DD06A2814D104E06E
:102D6000742810D07A280FD10DE044F400140AE042
:102D700044F4801401E044F440147278824202D199
:102D800004F58014761C761C307866280BD013DC92
:102D9000582877D009DC002875D04528F6D0462879
:102DA000F4D047281AD19DE118E0632835D0642873
:102DB00079D0652812D195E1702873D008DC672896
:102DC000F1D069286FD06E280DD06F2806D1B5E0FC
:102DD00073282CD0752875D0782874D05A46179946
:102DE00090476D1C75E1C4F30250022809D00328F6
:102DF0000DD0D9F8001004280DD00D6009F1040998
:102E000067E1D9F80010EA17C1E90052F6E7D9F8EE
:102E100000100D80F2E70D70F0E719F8041B8DF833
:102E2000001000208DF80100EA46012003E059F867
:102E300004AB4FF0FF3061074FF0000102D40DE00A
:102E400008F101018846B9420FDA8045F8DB1AF82B
:102E500008100029F4D108E008F1010188468142F8
:102E6000FADB1AF808100029F6D105985B46A0EBAA
:102E7000080721463846179A00F094FA284400EBD8
:102E8000080507E04DE029E10DE01AF8010B5A466C
:102E900017999047B8F10108F7D25B4621463846AA
:102EA000179A13E142E00A220092C4F302524FF053
:102EB000000A022A08D059F804CB032A4FEAEC7121
:102EC0000AD00DE029E02AE009F1070121F007020C
:102ED000F2E802C1914609E00FFA8CFC4FEAEC716E
:102EE000042A03D14FFA8CFC4FEAEC71002907DA6F
:102EF0000A460021DCF1000C61EB02012D2202E008
:102F0000220504D52B228DF80420012203E0E207DC
:102F100001D02022F7E7904659E00A2102E0102272
:102F20000DE010214FF0000A00910BE010224FF04D
:102F3000000A44F004040827009203E008224FF03E
:102F4000000A0092C4F30252022A05D059F804CBB9
:102F50000021032A08D009E009F1070121F0070246
:102F6000F2E802C1914605E01FFA8CFC042A01D167
:102F70000CF0FF0C4FF00008220728D5702806D06F
:102F8000009B83F0100353EA0A0305D00EE04022B1
:102F90008DF80420012208E05CEA010206D030220C
:102FA0008DF804208DF8050002229046009B83F0E6
:102FB000080353EA0A030AD15CEA010201D162075D
:102FC00005D530228DF804204FF001087F1E5828C7
:102FD00004D034A003900EA802900DE036A0F9E7CB
:102FE00053466046009AFDF7F9FA84460398825CDE
:102FF0000298401E029002705CEA0100F0D1029833
:1030000006A9081A00F1200A600702D524F48034CA
:1030100000E00127574502DDA7EB0A0000E0002091
:1030200000EB0A01009005984144401A0590E00326
:1030300006D45B462146179A059800F0B3F905447B
:10304000002706E001A85A46C05D179990476D1CFD
:103050007F1C4745F6DBE0030CD55B462146179AFB
:10306000059800F09FF9054404E030205A4617996E
:1030700090476D1C0099481E00900029F5DC08E07F
:10308000029802995A460078491C02911799904774
:103090006D1CBAF10001AAF1010AF1DC65E1000042
:1030A000092801003031323334353637383961621E
:1030B00063646566000000003031323334353637E2
:1030C00038394142434445460000000000F058F9B9
:1030D0000544761C307800287FF4ECAD19B0284602
:1030E000BDE8F08F620700D4062709F1070222F03D
:1030F000070CFCE80223E14603F000485FEA080CF5
:1031000002D00FF2702C0DE05FEA045C02D50FF2E2
:10311000682C07E05FEAC47C02D00FF2602C01E06B
:10312000AFF2700C4FF0FF3823F00043CDF850C0E1
:1031300065280CD006DC452809D046281DD0472834
:103140003DD13DE0662818D067287ED138E00021C7
:10315000112F01DB112000E0781CCDE9000106A948
:103160000EA8FFF7DDFCDDE90F010E9A03910021A7
:10317000009207F1010A04914DE04FF000400097E2
:10318000CDE9011006A90EA8FFF7CAFCDDE90F0280
:1031900003920E9B11990022DDF80CA0009304927B
:1031A00011B9791C00EB010AB7EB0A0004D4C0F195
:1031B000FF3007F1010A0490AAEB0700019044E0F8
:1031C000012F00DA01270021112F01DD112000E07D
:1031D0003846CDE9000106A90EA8FFF7A1FCDDE9FC
:1031E0000F010E9A0391002104910092BA46210723
:1031F0000CD40399514500DA8A46BAF1010F05DD76
:10320000009AAAF10101515C302908D0B84202DAD3
:1032100010F1040F06DA0121CDE9011015E0AAF141
:103220000101E9E7002805DC049901440491AAEBB7
:10323000000102E0411C514500DD8A460499401A14
:10324000401C01904FF000400290200704D40198E8
:10325000504501DBCDF8048000208DF84F00029826
:103260000DF14F07B0F1004F25D02B200E900298A2
:103270004FF0020800280CDA404202902D200E90F8
:1032800007E00A210298FDF793F93031029007F820
:10329000011DB8F10001A8F10108F2DC0298002834
:1032A000EFD1791E0E980870307800F0200040F0C1
:1032B000450007F8020D12A8C01B00F1070814987A
:1032C000007800B1012000EB0A01019801EBE071E8
:1032D00005984144401A401E0590E00306D45B4621
:1032E0002146179A059800F05DF805441498007877
:1032F00018B15A46179990476D1CE00324D55B46D8
:103300002146179A059800F04DF805441CE00498F2
:10331000002807DBDDE90301884203DD0098405CFB
:10332000179901E0179930205A469047049805F103
:103330000105401C04900198401E019004D12E20EC
:103340005A46179990476D1CBAF10001AAF1010A7B
:10335000DDDC05E017F8010B5A46179990476D1C04
:10336000B8F10001A8F10108F4DC5B462146179A88
:103370000598ABE62D0000002B00000020000000A7
:103380002DE9F041044600251E461746880404D462
:1033900005E039462020B0476D1C641EF9D528464B
:1033A000BDE8F0812DE9F041044600251E46904617
:1033B000C80301D5302700E02027880404D505E0A4
:1033C00041463846B0476D1C641EF9D52846BDE815
:1033D000F08100004FF0E021096921F004014FF075
:1033E000E0221161C21700EB5272C2F3C702054B13
:1033F0001A704FF47A714143C1F3CF01024A118030
:1034000070470000FC000020FE00002070B504465C
:103410004FF4077094FBF0F0C6B24FF4077094FBC2
:10342000F0F100FB114085B205E04FF4077000F0A9
:1034300009F8701EC6B2002EF7D115B1284600F06B
:1034400001F870BD01460D4A12884A434FF0E0234F
:103450005A6100229A6101221A6100BF4FF0E022F6
:10346000106900F001021AB100F48032002AF5D090
:1034700000224FF0E0231A619A617047FE0000209D
:1034800070B504460D46E1B20548FFF70EFB00BFDC
:1034900080210348FFF7CDFA0028F9D0204670BDFF
:1034A000001001400823022219214FF4B470FEF7E6
:1034B000E9FB0020174908601749C1F8A802B420A9
:1034C000FFF788FF4FF4E1315A2000F03DF8FDF797
:1034D0009AFCFDF7BFFEFDF78BFEFDF743FEFEF7FE
:1034E00089F8FDF75DFBFEF761F90CA0FFF7F8FA2C
:1034F00000BFC820FFF78AFF00200D4908600D4972
:10350000C1F88C02C820FFF781FF02E0C820FFF756
:103510007DFFFBE7A402404200004042D3B2BCFE64
:10352000B3F5CABCBBAFB3C9B9A6A3A100000000E4
:1035300090824142000044420146002901DA48429B
:1035400000E0084670470000F0B52DED028B83B017
:1035500005460E46384905FB01F000EE100AF8EE6C
:10356000400A300100EE100AB8EE400A80EE801AE0
:10357000B0EE418ABCEEC80A10EE100A84B200EE2A
:10358000104AB8EE400A38EE400AF3EE000A20EE88
:10359000200ABCEEC00A10EE107A4FF6FF7000EA67
:1035A0000414E01984B22548006840F00100234962
:1035B000086022481430006840F010001F491431A0
:1035C00008600120022100230A46CDE900104FF4D3
:1035D000C0611B48FDF779FB072209211848FDF758
:1035E000E9FA07220A211648FDF7E4FA1548048192
:1035F000808920F40040134988810846808940F082
:10360000080088810846808940F0040088810846C7
:10361000808940F02000888102232522032108466A
:10362000FDF722FE0748808940F400500549888153
:1036300003B0BDEC028BF0BD40420F0030380240B9
:1036400000000240001001400000000000000000E7
:103650000000000000000000000038FCFC38000002
:103660000000000D0D000000000E1E00001E0E00E8
:10367000000000000000000020F8F820F8F820000A
:10368000020F0F020F0F0200387C444747CC98000E
:103690000306041C1C07030030300080C0603000AB
:1036A0000C060301000C0C0080D87CE4BCD8400060
:1036B000070F0808070F080000101E0E000000008A
:1036C00000000000000000000000F0F80C04000002
:1036D000000003070C0800000000040CF8F00000D4
:1036E0000000080C0703000080A0E0C0C0E0A0803C
:1036F0000002030101030200008080E0E0808000FE
:1037000000000003030000000000000000000000B3
:103710000000101E0E0000008080808080808000ED
:103720000000000000000000000000000000000099
:103730000000000C0C00000000000080C0603000A1
:103740000C06030100000000F8FC04C424FCF8008F
:10375000070F0908080F0700001018FCFC00000004
:103760000008080F0F080800080C84C4643C180007
:103770000E0F0908080C0C00080C444444FCB80067
:10378000040C0808080F0700C0E0B098FCFC80009B
:10379000000000080F0F08007C7C4444C4C484006F
:1037A000040C0808080F0700F0F84C4444C08000DF
:1037B000070F0808080F07000C0C0484C47C3C00A9
:1037C00000000F0F00000000B8FC444444FCB800A7
:1037D000070F0808080F0700387C444444FCF80031
:1037E000000808080C07030000000030300000004B
:1037F000000000060600000000000030300000005D
:103800000000080E060000000080C06030180800AC
:1038100000000103060C08004040404040404000CA
:1038200002020202020202000008183060C080009A
:1038300000080C0603010000181C04C4E43C180036
:103840000000000D0D000000F0F808C8C8F8F000F6
:10385000070F080B0B0B0100E0F0988C98F0E000CC
:103860000F0F0000000F0F0004FCFC4444FCB800E4
:10387000080F0F08080F0700F0F80C04040C1800DC
:1038800003070C08080C060004FCFC040CF8F0000C
:10389000080F0F080C07030004FCFC44E40C1C0098
:1038A000080F0F08080C0E0004FCFC44E40C1C007C
:1038B000080F0F0800000000F0F80C84848C9800BA
:1038C00003070C0808070F00FCFC404040FCFC000C
:1038D0000F0F0000000F0F00000004FCFC040000AC
:1038E0000000080F0F08000000000004FCFC0400AA
:1038F000070F08080F07000004FCFCC0F03C0C0098
:10390000080F0F00010F0E0004FCFC040000000073
:10391000080F0F08080C0E00FCFC387038FCFC0087
:103920000F0F0000000F0F00FCFC3870E0FCFC00E3
:103930000F0F0000000F0F00F0F80C040CF8F0005F
:1039400003070C080C07030004FCFC44447C38000B
:10395000080F0F0800000000F8FC040404FCF80045
:10396000070F080E3C3F270004FCFC44C4FC380051
:10397000080F0F00000F0F00183C6444C49C18008F
:10398000060E0808080F0700001C0CFCFC0C1C00AD
:103990000000080F0F080000FCFC000000FCFC0009
:1039A000070F0808080F0700FCFC000000FCFC00E3
:1039B0000103060C06030100FCFC008000FCFC0077
:1039C000030F0E030E0F03000C3CF0C0F03C0C0084
:1039D0000C0F0300030F0C00003C7CC0C07C3C00BB
:1039E0000000080F0F0800001C0C84C4643C1C007D
:1039F0000E0F0908080C0E000000FCFC0404000077
:103A000000000F0F080800003870E0C080000000C0
:103A10000000000103070E0000000404FCFC00008D
:103A2000000008080F0F0000080C0603060C080031
:103A30000000000000000000000000000000000086
:103A40002020202020202020000003070400000068
:103A5000000000000000000000A0A0A0E0C00000E6
:103A6000070F0808070F080004FCFC2060C0800056
:103A7000080F0708080F0700C0E020202060400062
:103A8000070F0808080C040080C06024FCFC00003C
:103A9000070F0808070F0800C0E0A0A0A0E0C000C2
:103AA000070F0808080C040040F8FC440C1800003C
:103AB000080F0F0800000000C0E02020C0E0200038
:103AC000276F48487F3F000004FCFC4020E0C00016
:103AD000080F0F00000F0F00000020ECEC000000AA
:103AE0000000080F0F0800000000000020ECEC00B0
:103AF00000307040407F3F0004FCFC80C06020002C
:103B0000080F0F01030E0C00000004FCFC00000075
:103B10000000080F0F080000E0E060C060E0C00097
:103B20000F0F000F000F0F0020E0C02020E0C000AA
:103B3000000F0F00000F0F00C0E0202020E0C000A9
:103B4000070F0808080F070020E0C02020E0C00091
:103B5000407F7F48080F0700C0E02020C0E0200021
:103B6000070F08487F7F400020E0C0602060C00051
:103B7000080F0F080000000040E0A0202060400077
:103B8000040C09090B0E04002020F8FC2020000082
:103B90000000070F080C0400E0E00000E0E0000077
:103BA000070F0808070F080000E0E00000E0E00051
:103BB0000003070C0C070300E0E0000000E0E00059
:103BC000070F0C070C0F07002060C080C0602000AA
:103BD000080C0703070C0800E0E0000000E0E0002C
:103BE000474F4848683F1F00606020A0E060200009
:103BF0000C0E0B09080C0C00004040F8BC0404003B
:103C0000000000070F080800000000BCBC00000016
:103C10000000000F0F000000000404BCF84040004A
:103C20000008080F07000000080C040C080C040032
:103C3000000000000000000080C0603060C0800014
:103C400007070404040707001022640C8008494A8F
:103C50004CF84C4A490800000404FE010404040422
:103C600004FF0404040604001010D0FF509020400C
:103C7000FF00FF4020300000040300FF80442219B1
:103C800007003F414640700000F848484848FF4858
:103C9000484848FC080000000007020202023F42B8
:103CA000424242474070000080808282828282E2EB
:103CB000A2928A8680C08000000000000040807FC1
:103CC00000000000000000000000000000000000F4
:103CD00000000000000000000000000000000000E4
:103CE0000000FFFFFF07070707070707070707078A
:103CF0000707070707070707070707070707070754
:103D000007070700000000000000000003070F1F66
:103D10003F7BF3E3C38303030303030303030303AF
:103D200003030303030303030303FFFFFF00000078
:103D30000000000000000000000000000000000083
:103D40000000000000000000000000000000000073
:103D50000000000000000000000000000000000063
:103D60000000FFFFFF000000000000000000000056
:103D70000000000000000000000000000000000043
:103D8000C0C0C000000000000000000000000000F3
:103D90000000000103070F1E3C78F0E0C080000027
:103DA00000000000000000000000FFFFFF00000016
:103DB0000000000000000000000000000000000003
:103DC00000000000000000000000000000000000F3
:103DD00000000000000000000000000000000000E3
:103DE0000000FFFFFF0000000000000000000000D6
:103DF00000000000000000000000000000000000C3
:103E0000FFFFFF00000000000000000000000000B5
:103E100000000000000000000000000103070F1E6A
:103E20003C78F0E0C08000000000FFFFFF000000D1
:103E30000000000000000000000000000000000082
:103E40000000000000000000000000000000000072
:103E50000000000000000000000000000000000062
:103E600000003F3F3F38383838383838383838382D
:103E700038383838383838383838383838383838C2
:103E80003F3F3F0000000000000000000000000075
:103E90000000000000000000000000000000000022
:103EA0000000000103070F1E3C383F3F3F000000A9
:103EB0000000000000000000000000000000000002
:103EC00000000000000000000000000000000000F2
:103ED00000000000000000000000000000000000E2
:103EE0000000FEFEFE0000000000000000000000D8
:103EF00000000000000000000000000000000000C2
:103F0000FEFEFE000000000000000000FCFCFC1CA7
:103F10001C1C1C1C1C1C1C1C1C1C1C1C1C1C1C1CE1
:103F20001C1C1C1C1C1C1C1C1C1CFCFCFC00000085
:103F30000000000000000000000000000000000081
:103F40000000000000000000000000000000000071
:103F50000000000000000000000000000000000061
:103F60000000FFFFFFC0C0C0C0C0C0C0C0C0C0C014
:103F7000C0C0C0C0C0C0C0C0C0C0C0C0C0C0C0C041
:103F8000FFFFFF000000000000000000FFFFFF0037
:103F90000000000000000000000000000000000021
:103FA00000000000000000000000FFFFFF00000014
:103FB0000000000000000000000000000000000001
:103FC00000000000000000000000000000000000F1
:103FD00000000000000000000000000000000000E1
:103FE0000000FFFFFF0101010101010101010101C9
:103FF00001010101010101010101010101010101B1
:10400000FFFFFF000000000000000000FFFFFF00B6
:1040100000000000000000000000000000000000A0
:1040200000000000000000000000FFFFFF00000093
:104030000000000000000000000000000000000080
:104040000000000000000000000000000000000070
:104050000000000000000000000000000000000060
:104060000000FFFFFF000000000000000000000053
:104070000000000000000000000000000000000040
:10408000FFFFFF000000000000000000FFFFFFE056
:10409000E0E0E0E0E0E0E0E0E0E0E0E0E0E0E0E020
:1040A000E0E0E0E0E0E0E0E0E0E0FFFFFF00000053
:1040B0000000000000000000000000000000000000
:1040C0000000000000000000E840000800000020A0
:1040D000B80100006C07000870410008B80100201A
:1040E000B0090000102B0008412D010203040476E2
:1040F0000607080901F641463A3330082411C9A8D9
:10410000C3E8CDEAB3C9A3ACC7EBD7B0C8EB31BAAB
:10411000C5CEEFC1CFA3ACB2A2B9D8B1D5B2D6C388
:10412000C5260A1332261DB5BDB4EF402FCAD5BB34
:10413000F5B5E32B580BB3F6CABECCE1BBF5C2EB29
:104140001E193809151E0F13C7EBC8A1B3F67E4917
:104150001B09147311022B32252723272323F04137
:104160001AA0041BE04008190401380A4F302C0043
:04000005080001AD41
:00000001FF
