:020000040800F2
:10000000880A0020C1010008790F00088108000853
:100010005D0D0008F50200080B2400080000000038
:10002000000000000000000000000000491400086B
:10003000A105000800000000AF12000835150008F7
:10004000E1010008E1010008E1010008E101000808
:10005000E1010008E1010008E1010008E1010008F8
:10006000C9050008E1010008E1010008E1010008FC
:10007000F9020008E1010008E1010008E1010008BF
:10008000DD030008E1010008E1010008E1010008CA
:10009000E1010008E1010008E1010008E1010008B8
:1000A000E1010008E1010008E1010008E1010008A8
:1000B000E10100088D190008E1010008E1010008D4
:1000C000E1010008E1010008E1010008E101000888
:1000D000E10100087D200008FD2000083D22000805
:1000E000A5050008E1010008E1010008E1010008A0
:1000F000E1010008E1010008E1010008E101000858
:10010000E1010008E1010008E1010008E101000847
:10011000E1010008E1010008011B0008E1010008FD
:10012000E1010008E1010008E1010008E101000827
:10013000E1010008E1010008E1010008E101000817
:10014000E1010008E1010008E1010008E101000807
:10015000E1010008E1010008E1010008E1010008F7
:10016000E1010008E1010008E1010008E1010008E7
:10017000E1010008E1010008E101000800000000C1
:10018000E1010008E1010008E1010008E1010008C7
:10019000E1010008E1010008E1010008E1010008B7
:1001A000E1010008E1010008E1010008DFF80CD0DE
:1001B00000F03CF80048004705250008880A0020A8
:1001C0000848016841F47001016007480047FEE7F4
:1001D000FEE7FEE7FEE7FEE7FEE7FEE7FEE7FEE7F7
:1001E000FEE7000088ED00E0AD01000810B5431AFD
:1001F000934209D28318881803E010F8011D03F810
:10020000011D521EF9D210BD40EA01039B0703D025
:1002100009E008C9121F08C0042AFAD203E011F845
:10022000013B00F8013B521EF9D210BD064C074DB0
:1002300006E0E06840F0010394E8070098471034B6
:10024000AC42F6D3FFF7B6FF10300008303000089C
:1002500070B58C1810F8015B15F0070301D110F888
:10026000013B2A1106D110F8012B03E010F8016BB5
:1002700001F8016B5B1EF9D12B0705D40023521E38
:100280000DD401F8013BFAE710F8013BCB1A921CA0
:1002900003E013F8015B01F8015B521EF9D5A1429E
:1002A000D8D3002070BD00001CB50E48006840F097
:1002B00080000C4908600120032100230246CDE99B
:1002C00000100821084800F06CFA00200749086077
:1002D0004FF4167002F0DCF800200549C1F88C02DA
:1002E0001CBD000030380240001C02408C8243429A
:1002F0000080434200BFFEE710B52D492D4800F0B5
:100300001DF938B12A492B4800F0F2F8002129489C
:1003100000F008F92649274800F010F980B1244977
:10032000244800F0E5F80021224800F0FBF82049BD
:10033000204800F0C3F8002240211F4802F02DF8A9
:100340001E491C4800F0FAF838B11C49194800F061
:10035000CFF81B49174800F0B1F81A49154800F0CA
:10036000EDF838B11749134800F0C2F816491148A2
:1003700000F0A4F815490F48603000F0DFF838B1FC
:1003800013490C4800F0B4F812490A4800F096F8F6
:100390001149084800F0D2F840B10F49054800F073
:1003A000A7F80C49C039034800F088F810BD0000D8
:1003B00000880010286002400048004000440010FF
:1003C00000040010002200100002001000110020A4
:1003D00000110010000100104000009010B52C49E1
:1003E0002C4800F0ABF838B129492A4800F080F8D1
:1003F0000021284800F096F82749264800F09EF88A
:1004000080B12549234800F073F80021214800F00D
:1004100089F821491F4800F051F8002240211F4867
:1004200001F0BBFF1E491B4800F088F838B11C4999
:10043000184800F05DF81B49164800F03FF81A49CB
:10044000144800F07BF838B11749124800F050F812
:100450001649104800F032F815490E4800F06EF8C1
:1004600038B113490B4800F043F81249094800F02D
:1004700025F81149074800F061F840B10E490548D8
:1004800000F036F80B49C039024800F017F810BDEB
:10049000008800108860024000880020004400406E
:1004A0000044002000040020002200200002002060
:1004B0000011002000010020400000A00246094B6E
:1004C0009A4201D2084801E00648103801F0005372
:1004D0001BB1064B0B40C36002E0044B0B40836032
:1004E0007047000010640240006002407D0F7D0FE5
:1004F0000246094B9A4201D2084801E006481038EA
:1005000001F000531BB1064B0B40C36002E0044BEB
:100510000B4083607047000010640240006002409E
:100520007D0F7D0F21B1026842F00102026003E0FD
:10053000026822F0010202607047000070B50246B6
:10054000002000240025124EB24201D2114B01E0DE
:100550000F4B103B104E0E4036B11E2606EAD1243A
:10056000166806EA040502E0566906F0800501F007
:1005700000560EB15C6800E01C68084E344004EA86
:10058000010616B10DB1012000E0002070BD000091
:1005900010640240006002403C0F3C0F7D0F7D0F55
:1005A0007047000010B54FF4805000F02FF840B1B4
:1005B0000448406980F0080002494861881400F04E
:1005C0001FF810BD0020024010B5042000F01EF8F6
:1005D00088B10948006880F01000074908600748A2
:1005E00090ED000AF7EE000A30EE200A80ED000AD6
:1005F000042000F005F810BD140C02400C0100208E
:100600000149086070470000143C01400146002089
:10061000034A12680A400AB1012000E00020704736
:10062000143C0140002123498279002A3AD00A462D
:10063000126803689A430B461A600A1D1268036821
:100640009A430B1D1A60027911440A6803681A4321
:100650000A60184A0832126803689A43154B083337
:100660001A601A1D126803689A43124B0C331A6001
:100670004279102A0ED11A1F126803681A430D4BD3
:1006800008331A601A1D126803681A43094B0C33A9
:100690001A600DE00749427911440A6803681A4359
:1006A0000A6005E0027911440A6803689A430A6007
:1006B00070470000003C014010B501F0CBF801F09C
:1006C0001DF901F08BF901F0D3F910BDF0B50A4620
:1006D00000210023002400BF3DE0012505FA01F3BD
:1006E000156805EA03049C4234D105684F000326CF
:1006F000BE40B543056015794E00B54006683543E8
:1007000005601579012D02D01579022D16D1856865
:100710004F000326BE40B543856055794E00B54075
:10072000866835438560456801268E40B54345603F
:10073000456896798E40B6B235434560C5684F002E
:100740000326BE40B543C560D5794E00B540C668A6
:100750003543C560491C1029BFD3F0BDF0B5002357
:1007600000244D07ED0E02FA05F3CE1000F120052E
:1007700055F826504E07F70E0F26BE40B543CF1052
:1007800000F1200646F82750CE1000F1200555F85C
:10079000265045EA0304CE1000F1200545F8264016
:1007A000F0BD2DE9F0470C46DDE908670021002582
:1007B0008C4600BF60E04FF0010808FA01F504EA3A
:1007C000050CAC4557D1D0F800804FEA410A4FF0F4
:1007D000030909FA0AF928EA0908C0F80080D0F8E4
:1007E00000804FEA410902FA09F948EA0908C0F80D
:1007F0000080012A01D0022A27D1D0F808804FEAD0
:10080000410A4FF0030909FA0AF928EA0908C0F871
:100810000880D0F808804FEA410906FA09F948EA49
:100820000908C0F80880D0F804904FF0010808FAD1
:1008300001F829EA0809C0F80490D0F8048003FA06
:1008400001F948EA0908C0F80480D0F80C804FEAA2
:10085000410A4FF0030909FA0AF928EA0908C0F821
:100860000C80D0F80C804FEA410907FA09F948EAF0
:100870000908C0F80C80491C10299CD3BDE8F087FA
:1008800000BFFEE721B1028842F48062028004E0EA
:1008900002884FF6FF331A400280704770B5024657
:1008A0000024002500230020958A138B1B0445EAB1
:1008B000030626F07F4404EA01068E4201D101209E
:1008C00000E0002070BD21B1028842F001020280E8
:1008D00004E002884FF6FE731A400280704710B59C
:1008E00000F004F800F0BEF810BD00001CB50121B6
:1008F000480500F0EDFC0121022000F0D9FC0422A3
:1009000008211148FFF72AFF042209210E48FFF7AA
:1009100025FF4FF48070009002208DF804008DF8C0
:10092000050001208DF8060000208DF807006946BB
:100930000548FFF7CBFE4FF400700090694602486F
:10094000FFF7C4FE1CBD00000004024021B1028874
:1009500042F48072028004E002884FF6FF631A407E
:100960000280704721B1028842F40072028004E0E4
:1009700002884FF6FF531A40028070472DE9FF4767
:1009800004460D460026B1460427DFF8CC80A68831
:100990004FF6C0700640684600F0BAFCDDF80880EB
:1009A0002E48B8FBF0F01FFA80F946EA0906A68047
:1009B00020884FF6FE7108402080002628492868CC
:1009C00088420CD828684000B8FBF0F087B2042FAA
:1009D00000DA04273E4309F10100208427E0E8887B
:1009E0004BF6FF71884206D1286800EB4000B8FB47
:1009F000F0F087B209E0286800EBC00101EB0010BD
:100A0000B8FBF0F087B247F48047C7F30B0008B992
:100A100047F0010747F4004006434FF4967009FB86
:100A200000F04FF47A7190FBF1F0401C2084A68313
:100A3000208840F00100208026884FF6F5300640DF
:100A4000A8886989084306432680A889298908431C
:100A50002081BDE8FF87000000127A0040420F00AD
:100A6000A08601001FB50020ADF804004BF6FF7012
:100A7000ADF806000A20ADF808004FF48060ADF82C
:100A80000A000001ADF80C000748009069460748CD
:100A9000FFF774FF01210548FFF715FF0121034807
:100AA000FFF7F0FE1FBD0000400D030000540040A2
:100AB0002DE9F04105460F4614461E4601211D480A
:100AC000FFF744FF00BF1C491A48FFF7E7FE002864
:100AD000F9D000222946174800F070F800BF1749E6
:100AE0001448FFF7DBFE0028F9D03946114800F022
:100AF0006DF800BF1149891C0E48FFF7CFFE002892
:100B0000F8D00CE021780B4800F060F8641C00BFBE
:100B10000A49891C0748FFF7C1FE0028F8D0301E9B
:100B2000A6F101018EB2EDD101210248FFF71AFFB3
:100B3000BDE8F0810054004001000300820007007E
:100B400070B504460E46154601211948FFF7FEFE12
:100B500000BF18491648FFF7A1FE0028F9D000226F
:100B60002146134800F02AF800BF13491048FFF748
:100B700095FE0028F9D031460D4800F027F800BF57
:100B80000D49891C0A48FFF789FE0028F8D029463C
:100B9000074800F01BF800BF0749891C0448FFF70D
:100BA0007DFE0028F8D001210148FFF7DBFE70BD73
:100BB00000540040010003008200070012B141F020
:100BC000010101E001F0FE010182704701827047DE
:100BD0000246B3EE041AB0EE410AB3EE0E1AF0EE7E
:100BE000410A501A124B186018460068114B1B68D6
:100BF000C01A01EE100AB8EEC11A21EE001A0C4814
:100C0000D0ED001AF8EEE11A00EEA11A0A48D0ED74
:100C1000001AF8EEE11A31EE211ABDEEC11A80ED8C
:100C2000001A03480068034B1860034800687047C7
:100C3000F0000020F8000020F40000201FB5012182
:100C4000802000F035FB0121880300F051FB00F00B
:100C500094F90420029000208DF80C008DF80F000C
:100C600002A91848FFF732FD0221072000F0EEFB31
:100C70000420009000208DF8040008208DF8050065
:100C800001208DF806006846FFF7CCFC4FF4805039
:100C9000029002A90B48FFF719FD0C21072000F074
:100CA000D5FB4FF48050009000208DF804000C20FC
:100CB0008DF8050001208DF806006846FFF7B2FCAC
:100CC0001FBD0000001C02401CB51348006840F422
:100CD0008070114908600846006840F0080008600C
:100CE0000120032100230246CDE9001008210B4812
:100CF000FFF757FD0120032100230246CDE9001034
:100D000010210748FFF74DFD0120064908600649FC
:100D1000C1F88C021CBD00003038024000200240A7
:100D2000000C0240908241420000444210B5002174
:100D30000448008800F016FD00210348008800F0F8
:100D40003DFF10BD080100200A0100204A0A52029E
:100D50000243014B1A60704708ED00E000BFFEE758
:100D600041F21851884200DD08460249884200DA03
:100D700008467047E8EAFFFF00B503460A46981A9E
:100D8000184908600846006817490968401A00EECB
:100D9000100AB8EEC00A1548D0ED000A20EE200A6D
:100DA000134890ED001A0F48D0ED000AF8EEE00A63
:100DB00001EE200A0F48D0ED000AF8EEE00A30EE0E
:100DC000C00ABDEEC00A80ED000A06480068064968
:100DD000086008480068FFF7C3FF06490860084636
:100DE000006800BD1C010020240100200C0100202F
:100DF000100100202001002000B503460A46981A81
:100E0000184908600846006817490968401A00EE4A
:100E1000100AB8EEC00A1548D0ED000A20EE200AEC
:100E2000134890ED001A0F48D0ED000AF8EEE00AE2
:100E300001EE200A0F48D0ED000AF8EEE00A30EE8D
:100E4000C00ABDEEC00A80ED000A064800680649E7
:100E5000086008480068FFF783FF064908600846F5
:100E6000006800BD28010020300100200C01002096
:100E7000100100202C01002000B503460A46981AF4
:100E8000184908600846006817490968401A00EECA
:100E9000100AB8EEC00A1548D0ED000A20EE200A6C
:100EA000134890ED001A0F48D0ED000AF8EEE00A62
:100EB00001EE200A0F48D0ED000AF8EEE00A30EE0D
:100EC000C00ABDEEC00A80ED000A06480068064967
:100ED000086008480068FFF743FF064908600846B5
:100EE000006800BD340100203C0100200C010020FE
:100EF000100100203801002000B503460A46981A68
:100F0000184908600846006817490968401A00EE49
:100F1000100AB8EEC00A1548D0ED000A20EE200AEB
:100F2000134890ED001A0F48D0ED000AF8EEE00AE1
:100F300001EE200A0F48D0ED000AF8EEE00A30EE8C
:100F4000C00ABDEEC00A80ED000A064800680649E6
:100F5000086008480068FFF703FF06490860084674
:100F6000006800BD40010020480100200C01002065
:100F70001001002044010020704708B54FF4C06004
:100F800000F052F808208DF8000002208DF80100D2
:100F900001208DF802008DF80300684600F008F883
:100FA00028208DF80000684600F002F808BD000017
:100FB00070B5002100230F22C4781CB3174C24689D
:100FC00004F4E064C4F5E064C4F30721C1F104044F
:100FD000E3B20A4144789C40E1B284781440214352
:100FE0000C07210E0E4C05786155047804F01F059E
:100FF0000124AC4005786D11AD0005F1E025C5F880
:10100000004109E0047804F01F050124AC40054DBF
:101010000678761145F8264070BD00000CED00E022
:1010200000E400E080E100E002490143024A11606F
:10103000704700000000FA050CED00E010B500F06C
:1010400083F800F051F800F08DF810BD2DE9F0475D
:1010500005460C4616464FF0000AA01CC4B2D14605
:101060003AE005F1B000C2B200217820FFF768FD38
:101070002746E01704EB107000111030C2B20021B7
:101080007820FFF75DFDE01704EB10700011A4EB72
:101090000010C2B200217820FFF752FD4FF0000887
:1010A00011E00AEB0610A0F500700E490A5C402121
:1010B0007820FFF745FD0AF1010000F0FF0A08F172
:1010C000010000F0FF08B8F1080FEADB681CC5B2A8
:1010D00009F1010000F0FF09B9F1020FC1DBBDE821
:1010E000F08700008E25000870B5B0241BE0224672
:1010F00000217820FFF724FD102200217820FFF73F
:101100001FFD002211467820FFF71AFD002506E09A
:10111000002240217820FFF713FD681CC5B2842D02
:10112000F6DB601CC4B2B82CE1DB70BD10B5044620
:10113000812200217820FFF703FD2246002178203C
:10114000FFF7FEFC10BD000008B505A00068009088
:1011500003236A4600217820FFF7AAFC08BD00009F
:10116000AE8D100000B587B01C2206A16846FFF7BF
:101170003DF81C236A4600217820FFF799FC07B050
:1011800000BD0000AE0010D580A83FD300B0408D58
:1011900014A1C8DA1281FFD9F1DB302000A4A6AF78
:1011A00070B5002420E004F1B000C2B20021782024
:1011B000FFF7C6FC102200217820FFF7C1FC0222B5
:1011C00000217820FFF7BCFC002509E005EBC410E6
:1011D00007490A5C40217820FFF7B2FC681CC5B2C1
:1011E000802DF3DB601CC4B2082CDCDB70BD00007A
:1011F0000E2C000810B56420FFF798FFFFF7D0FF12
:101200004FF47A7001F044F9FFF76EFF4B22002192
:101210000846FFF71BFF502208210020FFF716FFAA
:101220003A2210210020FFF711FF3122182100205F
:10123000FFF70CFF322220210020FFF707FF3322A7
:1012400028210020FFF702FF4B2240210020FFF75A
:10125000FDFE492248210020FFF7F8FE3A225021E6
:101260000020FFF7F3FE312258210020FFF7EEFEA9
:10127000322260210020FFF7E9FE3322682100209E
:10128000FFF7E4FE582200210220FFF7DFFE3A229A
:1012900008210220FFF7DAFE592240210220FFF741
:1012A000D5FE3A2248210220FFF7D0FE10BD70473C
:1012B00029B1064A12680243044B1A6004E0034A4B
:1012C00012688243014B1A607047000030380240B8
:1012D00029B1064A12680243044B1A6004E0034A2B
:1012E00012688243014B1A60704700004038024088
:1012F00029B1064A12680243044B1A6004E0034A0B
:1013000012688243014B1A60704700004438024063
:10131000F0B5002100220024022500260223324FCE
:101320003F6807F00C0121B1042905D0082937D105
:1013300005E02E4F076036E02D4F076033E02A4F5F
:101340003F1F3F68C7F38056274F3F1F3F6807F096
:101350003F036EB1264FB7FBF3F7DFF88CC0ACF15B
:10136000040CDCF800C0CCF3881C07FB0CF40CE088
:101370001E4FB7FBF3F7DFF870C0ACF1040CDCF8DC
:1013800000C0CCF3881C07FB0CF4174F3F1F3F68CD
:10139000C7F301477F1C7D00B4FBF5F7076002E04F
:1013A000124F076000BF00BF0F4F3F6807F0F0010A
:1013B0000909104F7A5C0768D74047600A4F3F68B9
:1013C00007F4E051890A0B4F7A5C4768D740876081
:1013D000054F3F6807F46041490B064F7A5C476848
:1013E000D740C760F0BD0000083802400024F40078
:1013F00040787D01000000200146022904D0032925
:101400000BD0042917D10FE04FF08042526A10B27E
:1014100000224FF080435A620FE0094A126810B26E
:101420000022074B1A6008E0064A126810B2002238
:10143000044B1A6001E0002000BF00BF70470000AD
:1014400024040040240800407047000030B500220A
:101450008B071C0F0F2303FA04F20B4B8C1053F86D
:1014600024309343084C8D1044F8253023468C10CB
:1014700053F824308C07240F00FA04F42343024C61
:101480008D1044F8253030BD0838014000B50246C3
:10149000002A07DD00200A49086001200949C1F837
:1014A000A00206E001200649086000200549C1F8B5
:1014B000A002104601F064F80349086000BD000076
:1014C000A4024142000041423C040140F0B5044600
:1014D0000D4616461F461448006840F001001249A8
:1014E000086000201049083108600F4800680F4963
:1014F00008400D4908600E48091D0860081F006873
:1015000020F48020091F0860002007490C31086082
:101510003B4632462946204600F00EF80021084698
:10152000FFF714FCF0BD000000380240FFFFF6FE9C
:101530001030002470470000F0B504460D4600212D
:1015400000203D4E366846F480363B4F3E6001E059
:101550004E1CB1B2384E366806F400361EB941F65C
:10156000FF76B142F4DB41F6FF76B14201D10120B2
:1015700060E0314E4036366846F080562E4F403798
:101580003E602E4E366846F440462C4F3E602A4E52
:101590000836366846F41446274F08373E60264E14
:1015A000366826F08076244F3E6045EA841601278F
:1015B000C7EB520746EA074646EA036646F480064A
:1015C0001D4F3F1D3E603E1F366846F080763F1F30
:1015D0003E6000BF184E366806F00076002EF9D047
:1015E000174E366846F48076154F3E603E463668A4
:1015F00046F400763E603E46366846F480663E60BD
:101600003E46366846F005063E600B4E08363668A4
:1016100026F00306084F08373E603E46366846F01F
:1016200002063E6000BF044E0836366806F00C061F
:10163000082EF8D1F0BD00000038024000700040D4
:10164000003C02401CB501210220FFF731FE0220C0
:101650008DF8040000208DF8060001208DF80700A9
:1016600003208DF805004FF480400090694604483F
:10167000FFF72CF809220E210148FFF76FF81CBD77
:101680000004024030B589B004460D46FFF7DAFF8A
:1016900001214020FFF71CFE1848048007941848D9
:1016A000B0FBF5F0401E80B2ADF818000020ADF898
:1016B0001A00ADF8200006A9124800F093FC602043
:1016C000ADF804000120ADF806000020ADF81000D0
:1016D00001A90C4800F058FB08210A4800F092FBD1
:1016E0000121084800F0EAFA0121064800F0F5FA65
:1016F0000021012000F008F809B030BD4C010020A5
:1017000040A5AE020018004070B504460D461348CF
:1017100000886843642190FBF1F086B2012C06D06A
:10172000022C09D0032C0CD0042C14D10EE031462D
:101730000B4800F04FFC0FE03146094800F04CFC2C
:101740000AE03146064800F049FC05E0314604480D
:1017500000F046FC00E000BF00BF70BD4C0100205F
:101760000018004030B58BB004460D4601210846F4
:10177000FFF79EFD02208DF8280000208DF82A003A
:101780004FF47060099000208DF82B0003208DF835
:10179000290009A92D48FEF799FF012208212B48AD
:1017A000FEF7DCFF012209212848FEF7D7FF0122BE
:1017B0000A212648FEF7D2FF01220B212348FEF71B
:1017C000CDFF01210846FFF793FD0020ADF8200072
:1017D000ADF81A00ADF818508DF82200079406A94C
:1017E0001B4800F0FFFB6020ADF804000120ADF8BD
:1017F00006000020ADF80800322003900020ADF86C
:1018000010004FF48070ADF8140001A9104800F0EA
:10181000BBFA0020039001A90D4800F0FDFA00205A
:10182000039001A90A4800F049FB0020039001A998
:10183000074800F093FB0121054800F04EFA012112
:10184000034800F056FA0BB030BD00000000024023
:101850000000014000B585B001210846FFF738FDC2
:1018600001210846FFF724FD01210220FFF720FD9A
:101870004FF40040039003208DF8110002208DF8F2
:10188000100001208DF812008DF8130003A91948EB
:10189000FEF71CFF0820039003A91748FEF716FF68
:1018A000684600F0E1FB0020ADF8000042F227306E
:1018B00001900020ADF80800ADF8020069464FF035
:1018C000804000F08FFB01220F210A48FEF746FFFF
:1018D000012203210848FEF741FF00231A46012197
:1018E000880700F015FA0121880700F0F6F905B025
:1018F00000BD0000000002400004024000B585B0B9
:1019000001210220FFF7E4FC01210846FFF7D0FC8B
:10191000C020039003208DF8110002208DF81000E4
:1019200001208DF812008DF8130003A91548FEF769
:10193000CDFE684600F098FB0020ADF800004FF6A1
:10194000FE7001900020ADF80800ADF80200694675
:101950000D4800F047FB022206210A48FEF7FEFE72
:10196000022207210748FEF7F9FE00231A4601214B
:10197000054800F0CDF90121034800F0AEF905B0AB
:1019800000BD0000000002400004004010B501212D
:101990000E4800F0DEF9012815D101210B4800F0B6
:1019A00099F90220FFF728FD0949086008680949EC
:1019B0000968FFF70DF90849086000F029FD06489D
:1019C0000068FFF763FD002010BD00000004004028
:1019D000AC010020EC0000201400002000B585B010
:1019E00001210420FFF774FC01210220FFF760FCB5
:1019F000C020039003208DF8110002208DF8100004
:101A000001208DF812008DF8130003A91548FEF788
:101A10005DFE022206211348FEF7A0FE02220721E6
:101A20001048FEF79BFE684600F01EFB0020ADF854
:101A300000004FF6FE7001900020ADF80800ADF8F0
:101A400002006946084800F0CDFA00231A46012139
:101A5000064800F05DF90121044800F03EF905B0A8
:101A600000BD0000000402400004004000080040E7
:101A700000B585B001210820FFF72AFC01210846A6
:101A8000FFF716FC032003908DF8110002208DF85B
:101A9000100001208DF812008DF8130003A91548DD
:101AA000FEF714FE684600F0DFFA0020ADF80000F3
:101AB0004FF6FE7001900020ADF80800ADF802006E
:101AC00069460D4800F08EFA022200210948FEF70F
:101AD00045FE022201210748FEF740FE00231A4678
:101AE0000121064800F014F90121044800F0F5F83E
:101AF00005B000BD0000024000040040000C0040A2
:101B000000B589B042F6E060019002900390049025
:101B10000121264800F026F9002844D00220FFF7D2
:101B20006BFC234908600320FFF766FC20494860EE
:101B30000420FFF761FC1E4988600520FFF75CFC6C
:101B40001B49C8601A4A01991068FFF715F90590FA
:101B5000174A02995068FFF74FF90690144A039903
:101B60009068FFF789F90790114A0499D068FFF748
:101B7000C3F908900598A0F5FA700E490860069818
:101B8000A0F5FA700C4988630798A0F5FA70094926
:101B9000083908600898A0F5FA700749086401211F
:101BA000024800F097F809B000BD000000100040A6
:101BB000AC0100203C0401400000014030B58BB076
:101BC00004460D4601210420FFF772FB38480480CB
:101BD00002208DF8280000208DF82A004FF4707044
:101BE000099000208DF82B0003208DF8290009A909
:101BF0003048FEF76BFD032206212E48FEF7AEFDAE
:101C0000032207212B48FEF7A9FD032208212948BA
:101C1000FEF7A4FD032209212648FEF79FFD0121BE
:101C20000220FFF765FB0020ADF82000ADF81A0098
:101C3000ADF81850E0B28DF822001D4800880790DA
:101C400006A91D4800F0CEF96020ADF8040001207F
:101C5000ADF806000020ADF808000390ADF81000C4
:101C60004FF48070ADF814000121134800F026F8FD
:101C700001A9114800F088F80020039001A90E483E
:101C800000F0CAF80020039001A90B4800F016F9F3
:101C90000020039001A9084800F060F901210648DE
:101CA00000F01BF80121044800F023F80BB030BD10
:101CB0000A010020000802400004014021B102880E
:101CC00042F08002028004E002884FF67F731A40DF
:101CD00002807047CA430282704721B1028842F0F5
:101CE0000102028004E002884FF6FE731A4002806F
:101CF000704731B1B0F8442042F40042A0F84420CB
:101D000005E0B0F84420C2F30E02A0F8442070476A
:101D1000F0B50C4615461E4600210022002301891D
:101D2000028B038C4FF6F877394021434FF6FC477E
:101D30003A4040F201173A434FF6DD773B404FF609
:101D4000FF7707EA06172F433B4301810283038491
:101D5000F0BD02460020138A0B400BB1012000E0C9
:101D60000020704730B50246002000230024158A69
:101D700005EA0103958905EA010413B10CB10120BC
:101D800000E0002030BD000070B5002400220023D8
:101D9000058C4FF6FE7635400584028C8388048BD3
:101DA0004FF68F752C40B51E2C400D882C43751EA8
:101DB0002A408D892A434D882A43104DA84202D0DB
:101DC0000F4DA84213D14FF6F7752A40CD892A430B
:101DD0004FF6FB752A408D882A434FF6FF652B404E
:101DE0004FF6FF552B400D8A2B434D8A2B438380A2
:101DF00004838D684563028470BD000000000140CB
:101E0000000401400A460021018B4FF6F773194088
:101E1000114301837047000070B5002400220023A5
:101E2000058C4FF6EF7635400584028C8388048B51
:101E300048F6FF752C404FF6FF452C400D884FF6B5
:101E4000FF7606EA05252C434FF6DF752A408D897B
:101E500006EA05152A434D8806EA05152A43154D5D
:101E6000A84202D0144DA8421DD14FF67F752A40DA
:101E7000CD894FF6FF7606EA05152A434FF6BF7562
:101E80002A408D8806EA05152A434FF6FF352B4078
:101E90004FF2FF752B400D8A06EA85052B434D8ACC
:101EA00006EA85052B43838004838D68856302845D
:101EB00070BD0000000001400004014070B5002426
:101EC00000220023058C4FF6FF6635400584028C06
:101ED0008388848B4FF68F752C404FF6FC752C4011
:101EE0000D882C434FF6FF552A408D894FF6FF761B
:101EF00006EA05252A434D8806EA05252A43154D9D
:101F0000A84202D0144DA8421DD14FF2FF752A40BD
:101F1000CD894FF6FF7606EA05252A434FF6FF35B1
:101F20002A408D8806EA05252A434EF6FF752B4088
:101F30004DF6FF752B400D8A06EA05152B434D8A99
:101F400006EA05152B43838084838D68C56302846C
:101F500070BD0000000001400004014070B5002287
:101F600000230024058C4EF6FF7635400584038C53
:101F70008488828B48F6FF752A404FF6FF452A4039
:101F80000D884FF6FF7606EA05252A434DF6FF75C4
:101F90002B408D8906EA05352B434D8806EA053529
:101FA0002B430A4DA84202D0094DA84208D14BF656
:101FB000FF752C400D8A4FF6FF7606EA85152C43F7
:101FC000848082838D680564038470BD00000140B5
:101FD000000401404163704781637047C1637047EB
:101FE0000164704700220288184B98420ED0184BAB
:101FF00098420BD0B0F1804F08D0164B984205D0D4
:10200000154B984202D0154B984204D14FF68F736E
:102010001A404B881A43124B984207D0114B9842F2
:1020200004D04FF6FF431A400B891A4302804B68D5
:10203000C3620B880385054B984202D0044B98423B
:1020400001D18B7A0386012383827047000001400F
:10205000000401400004004000080040000C004063
:1020600000100040001400404FF0FF31416000219B
:102070000180018141808172704700001C490988FC
:1020800001F0200109B31A498988C8B219490988A1
:1020900001F40041C9B91749098801F4804161B1CF
:1020A0000A2803D00021134A118020E01149098831
:1020B00041F400410F4A118019E00D2806D10D4965
:1020C000098841F480410B4A118010E009490988D0
:1020D000C1F30D01084A505406490988491C054AB4
:1020E000118011460988C72901DD00211180704740
:1020F0000010014004010020BC01002070B5002543
:1021000040F22551464800F051F9002812D04448C9
:10211000008844490870424800F072F9414908704B
:1021200008460078592806D13F48007818B90120A0
:102130003D4908706EE03B480078592807D13A487D
:102140000078012803D102203749087062E0364840
:102150000078022807D133480078344908700320FA
:102160003149087056E030480078032852D12D4894
:1021700000782F4908702D480078097840EA01203E
:102180002C490870084600782B490860084600680A
:102190004FF47A7190FBF1F00A2190FBF1F201FB10
:1021A0001200303084B2224650210220FEF74EFF4A
:1021B00021480068642190FBF1F00A2190FBF1F2C4
:1021C00001FB1200303084B2224658210220FEF773
:1021D0003DFF194800680A2190FBF1F090FBF1F2F5
:1021E00001FB1200303084B2224660210220FEF74B
:1021F0002DFF114800680A2190FBF1F201FB12004B
:10220000303084B2224668210220FEF71FFF0020F2
:10221000054908704021024800F0B0F870BD000088
:1022200000440040540100205701002055010020C7
:1022300056010020580100207C01002070B50025C7
:1022400040F22551464800F0B1F8002812D0444829
:10225000008844490870424800F0D2F841490870AB
:1022600008460078592806D13F48007818B901205F
:102270003D4908706EE03B480078592807D13A483C
:102280000078012803D102203749087062E03648FF
:102290000078022807D133480078344908700320B9
:1022A0003149087056E030480078032852D12D4853
:1022B00000782F4908702D480078097840EA0120FD
:1022C0002C490870084600782B49086008460068C9
:1022D0004FF47A7190FBF1F00A2190FBF1F201FBCF
:1022E0001200303084B2224610210220FEF7AEFEEA
:1022F00021480068642190FBF1F00A2190FBF1F283
:1023000001FB1200303084B2224618210220FEF771
:102310009DFE194800680A2190FBF1F090FBF1F254
:1023200001FB1200303084B2224620210220FEF749
:102330008DFE114800680A2190FBF1F201FB1200AA
:10234000303084B2224628210220FEF77FFE002092
:10235000054908704021024800F010F870BD0000E7
:1023600000480040800100208301002081010020FE
:102370008201002084010020A801002010B5002265
:10238000002340F66A14A14200D100BF0A120124C2
:102390009440A3B2DC43048010BD1AB1838A0B437E
:1023A000838202E0838A8B438382704770B5024642
:1023B000002400230025002040F66A16B14200D117
:1023C00000BFC1F3421501F01F03012606FA03F313
:1023D000012D02D19689334006E0022D02D1168AE2
:1023E000334001E0968A33400C12012606FA04F4C9
:1023F0001688344013B10CB1012000E0002070BDFC
:1024000001468888C0F30800704700BFFEE700005F
:1024100041F6BC30074909684242914202DA414222
:10242000044A116003490968814201DD01490860DD
:10243000704700001400002002E008C8121F08C105
:10244000002AFAD170477047002001E001C1121F35
:10245000002AFBD1704700004FF0E021096921F00C
:1024600004014FF0E0221161C21700EB5272C2F377
:10247000C702054B1A704FF47A714143C1F3CF0183
:10248000024A118070470000FC000020FE0000207E
:1024900070B504464FF4077094FBF0F0C6B24FF4E9
:1024A000077094FBF0F100FB114085B205E04FF49A
:1024B000077000F009F8701EC6B2002EF7D115B1F2
:1024C000284600F001F870BD01460D4A12884A43C3
:1024D0004FF0E0235A6100229A6101221A6100BF85
:1024E0004FF0E022106900F001021AB100F48032CE
:1024F000002AF5D000224FF0E0231A619A6170475C
:10250000FE0000200823022219214FF4B470FEF7C8
:10251000DDFF0020154908601549C1F8A802B42064
:10252000FFF79AFFFEF7DBF9FEF700FCFEF7CCFBA6
:10253000FEF784FBFDF7B8FEFEF780FDFEF7BCF862
:10254000FEF758FE00BFC820FFF7A2FF0020094990
:1025500008600949C1F88C02C820FFF799FF0749B4
:1025600044F62060FFF78EF800BFFEE7A402404269
:1025700000004042908241420000444240420F002D
:102580000146002901DA484200E008467047000091
:10259000000000000000000000000000000000003B
:1025A00038FCFC3800000000000D0D000000000E9B
:1025B0001E00001E0E00000000000000000020F8B9
:1025C000F820F8F82000020F0F020F0F0200387CED
:1025D000444747CC98000306041C1C070300303016
:1025E0000080C06030000C060301000C0C0080D895
:1025F0007CE4BCD84000070F0808070F0800001053
:102600001E0E00000000000000000000000000009E
:10261000F0F80C040000000003070C0800000000A4
:10262000040CF8F000000000080C0703000080A074
:10263000E0C0C0E0A08000020301010302000080AE
:1026400080E0E08080000000000303000000000044
:102650000000000000000000101E0E00000080803E
:1026600080808080800000000000000000000000EA
:102670000000000000000000000C0C000000000042
:102680000080C06030000C06030100000000F8FC70
:1026900004C424FCF800070F0908080F0700001005
:1026A00018FCFC0000000008080F0F080800080CC8
:1026B00084C4643C18000E0F0908080C0C00080CB8
:1026C000444444FCB800040C0808080F0700C0E0AC
:1026D000B098FCFC8000000000080F0F08007C7C14
:1026E0004444C4C48400040C0808080F0700F0F830
:1026F0004C4444C08000070F0808080F07000C0C6A
:102700000484C47C3C0000000F0F00000000B8FCF3
:10271000444444FCB800070F0808080F0700387C41
:10272000444444FCF800000808080C0703000000BB
:10273000003030000000000000060600000000002D
:102740000030300000000000080E0600000000808D
:10275000C0603018080000000103060C080040406B
:102760004040404040000202020202020200000813
:10277000183060C0800000080C0603010000181C1F
:1027800004C4E43C18000000000D0D000000F0F847
:1027900008C8C8F8F000070F080B0B0B0100E0F0A9
:1027A000988C98F0E0000F0F0000000F0F0004FC61
:1027B000FC4444FCB800080F0F08080F0700F0F8AD
:1027C0000C04040C180003070C08080C060004FC99
:1027D000FC040CF8F000080F0F080C07030004FCC1
:1027E000FC44E40C1C00080F0F08080C0E0004FC4D
:1027F000FC44E40C1C00080F0F0800000000F0F877
:102800000C84848C980003070C0808070F00FCFC5C
:10281000404040FCFC000F0F0000000F0F000000C4
:1028200004FCFC0400000000080F0F08000000007A
:102830000004FCFC0400070F08080F07000004FC5C
:10284000FCC0F03C0C00080F0F00010F0E0004FC50
:10285000FC0400000000080F0F08080C0E00FCFC30
:10286000387038FCFC000F0F0000000F0F00FCFC5C
:102870003870E0FCFC000F0F0000000F0F00F0F8B4
:102880000C040CF8F00003070C080C07030004FC10
:10289000FC44447C3800080F0F0800000000F8FCDE
:1028A000040404FCF800070F080E3C3F270004FC5A
:1028B000FC44C4FC3800080F0F00000F0F00183C48
:1028C0006444C49C1800060E0808080F0700001C8A
:1028D0000CFCFC0C1C000000080F0F080000FCFCA6
:1028E000000000FCFC00070F0808080F0700FCFCB4
:1028F000000000FCFC000103060C06030100FCFCC8
:10290000008000FCFC00030F0E030E0F03000C3CC4
:10291000F0C0F03C0C000C0F0300030F0C00003C57
:102920007CC0C07C3C000000080F0F0800001C0C9D
:1029300084C4643C1C000E0F0908080C0E00000043
:10294000FCFC0404000000000F0F080800003870B1
:10295000E0C0800000000000000103070E0000003E
:102960000404FCFC0000000008080F0F0000080C25
:102970000603060C08000000000000000000000034
:102980000000000000002020202020202020000047
:10299000030704000000000000000000000000A089
:1029A000A0A0E0C00000070F0808070F080004FC03
:1029B000FC2060C08000080F0708080F0700C0E077
:1029C000202020604000070F0808080C040080C089
:1029D0006024FCFC0000070F0808070F0800C0E097
:1029E000A0A0A0E0C000070F0808080C040040F8F1
:1029F000FC440C180000080F0F0800000000C0E0A5
:102A00002020C0E02000276F48487F3F000004FCE2
:102A1000FC4020E0C000080F0F00000F0F00000076
:102A200020ECEC0000000000080F0F080000000080
:102A3000000020ECEC0000307040407F3F0004FCC0
:102A4000FC80C0602000080F0F01030E0C00000086
:102A500004FCFC0000000000080F0F080000E0E08C
:102A600060C060E0C0000F0F000F000F0F0020E0FB
:102A7000C02020E0C000000F0F00000F0F00C0E0DA
:102A8000202020E0C000070F0808080F070020E002
:102A9000C02020E0C000407F7F48080F0700C0E052
:102AA0002020C0E02000070F08487F7F400020E082
:102AB000C0602060C000080F0F080000000040E068
:102AC000A02020604000040C09090B0E0400202007
:102AD000F8FC202000000000070F080C0400E0E0D4
:102AE0000000E0E00000070F0808070F080000E002
:102AF000E00000E0E0000003070C0C070300E0E04A
:102B0000000000E0E000070F0C070C0F070020603A
:102B1000C080C0602000080C0703070C0800E0E03C
:102B2000000000E0E000474F4848683F1F00606039
:102B300020A0E06020000C0E0B09080C0C000040E7
:102B400040F8BC040400000000070F080800000063
:102B500000BCBC0000000000000F0F0000000004DB
:102B600004BCF84040000008080F07000000080CF3
:102B7000040C080C0400000000000000000080C0ED
:102B8000603060C0800007070404040707001022BB
:102B9000640C8008494A4CF84C4A49080000040477
:102BA000FE010404040404FF0404040604001010DD
:102BB000D0FF50902040FF00FF4020300000040371
:102BC00000FF8044221907003F414640700000F892
:102BD00048484848FF48484848FC080000000007AB
:102BE000020202023F42424242474070000080809F
:102BF0008282828282E2A2928A8680C08000000065
:102C000000000040807F0000000000000000000085
:102C100000000000000000000000000000000000B4
:102C20000000000000000000FFFFFF070707070784
:102C30000707070707070707070707070707070724
:102C40000707070707070707070000000000000045
:102C5000000003070F1F3F7BF3E3C383030303035A
:102C60000303030303030303030303030303030334
:102C7000FFFFFF0000000000000000000000000057
:102C80000000000000000000000000000000000044
:102C90000000000000000000000000000000000034
:102CA0000000000000000000FFFFFF000000000027
:102CB0000000000000000000000000000000000014
:102CC000000000000000C0C0C000000000000000C4
:102CD0000000000000000000000103070F1E3C7808
:102CE000F0E0C080000000000000000000000000D4
:102CF000FFFFFF00000000000000000000000000D7
:102D000000000000000000000000000000000000C3
:102D100000000000000000000000000000000000B3
:102D20000000000000000000FFFFFF0000000000A6
:102D30000000000000000000000000000000000093
:102D4000000000000000FFFFFF0000000000000086
:102D50000000000000000000000000000000000073
:102D6000000103070F1E3C78F0E0C0800000000067
:102D7000FFFFFF0000000000000000000000000056
:102D80000000000000000000000000000000000043
:102D90000000000000000000000000000000000033
:102DA00000000000000000003F3F3F38383838384E
:102DB0003838383838383838383838383838383893
:102DC0003838383838383F3F3F00000000000000F6
:102DD00000000000000000000000000000000000F3
:102DE0000000000000000000000103070F1E3C3837
:102DF0003F3F3F0000000000000000000000000016
:102E000000000000000000000000000000000000C2
:102E100000000000000000000000000000000000B2
:102E20000000000000000000FEFEFE0000000000A8
:102E30000000000000000000000000000000000092
:102E4000000000000000FEFEFE0000000000000088
:102E50000000FCFCFC1C1C1C1C1C1C1C1C1C1C1C4A
:102E60001C1C1C1C1C1C1C1C1C1C1C1C1C1C1C1CA2
:102E7000FCFCFC000000000000000000000000005E
:102E80000000000000000000000000000000000042
:102E90000000000000000000000000000000000032
:102EA0000000000000000000FFFFFFC0C0C0C0C065
:102EB000C0C0C0C0C0C0C0C0C0C0C0C0C0C0C0C012
:102EC000C0C0C0C0C0C0FFFFFF0000000000000085
:102ED0000000FFFFFF0000000000000000000000F5
:102EE00000000000000000000000000000000000E2
:102EF000FFFFFF00000000000000000000000000D5
:102F000000000000000000000000000000000000C1
:102F100000000000000000000000000000000000B1
:102F20000000000000000000FFFFFF01010101019F
:102F30000101010101010101010101010101010181
:102F4000010101010101FFFFFF000000000000007E
:102F50000000FFFFFF000000000000000000000074
:102F60000000000000000000000000000000000061
:102F7000FFFFFF0000000000000000000000000054
:102F80000000000000000000000000000000000041
:102F90000000000000000000000000000000000031
:102FA0000000000000000000FFFFFF000000000024
:102FB0000000000000000000000000000000000011
:102FC000000000000000FFFFFF0000000000000004
:102FD0000000FFFFFFE0E0E0E0E0E0E0E0E0E0E054
:102FE000E0E0E0E0E0E0E0E0E0E0E0E0E0E0E0E0E1
:102FF000FFFFFF00000000000000000000000000D4
:1030000000000000000000000000000000000000C0
:103010003030000800000020AC0100005002000821
:10302000B8300008AC010020DC080000482400088B
:10303000412D0102030404760607080901F6414602
:103040003A3330082411C9A8C3E8CDEAB3C9A3AC08
:10305000C7EBD7B0C8EB31BAC5CEEFC1CFA3ACB286
:10306000A2B9D8B1D5B2D6C3C5260A1332261DB52A
:10307000BDB4EF402FCAD5BBF5B5E32B580BB3F663
:10308000CABECCE1BBF5C2EB1E193809151E0F13E1
:10309000C7EBC8A1B3F67E491B09147311021B329A
:1030A000252723272323F0411AA0041BE0400819F9
:0830B00004013C0A4F302C0022
:04000005080001AD41
:00000001FF
