:020000040800F2
:1000000050090020C1010008B10E00089F09000836
:10001000AD0E0008A5070008211E00080000000022
:10002000000000000000000000000000F1130008C4
:10003000A907000800000000B91100089D1400087D
:10004000E1010008E1010008E1010008E101000808
:10005000E1010008E1010008E1010008E1010008F8
:10006000E1010008E1010008E1010008E1010008E8
:10007000E1010008E1010008E1010008E1010008D8
:10008000E1010008E1010008E1010008E1010008C8
:10009000E1010008E1010008E1010008E1010008B8
:1000A000E1010008E1010008E1010008E1010008A8
:1000B000E101000899160008E1010008E1010008CB
:1000C000E1010008E1010008E1010008E101000888
:1000D000E1010008751C0008E1010008E1010008C9
:1000E000E1010008E1010008E1010008E101000868
:1000F000E1010008E1010008E1010008E101000858
:10010000E1010008E1010008E1010008E101000847
:10011000E1010008E1010008E9160008E10100081A
:10012000E1010008E1010008E1010008E101000827
:10013000E1010008E1010008E1010008E101000817
:10014000E1010008E1010008E1010008E101000807
:10015000E1010008E1010008E1010008F51C0008C8
:10016000E1010008E1010008E1010008E1010008E7
:10017000E1010008E1010008E101000800000000C1
:10018000E1010008E1010008E1010008E1010008C7
:10019000E1010008E1010008E1010008E1010008B7
:1001A000E1010008E1010008E1010008DFF80CD0DE
:1001B00000F0CAFA0048004709280008500900204A
:1001C0000848016841F47001016007480047FEE7F4
:1001D000FEE7FEE7FEE7FEE7FEE7FEE7FEE7FEE7F7
:1001E000FEE7000088ED00E0AD010008202A04DBF6
:1001F000203A00FA02F1002070479140C2F120033A
:1002000020FA03F3194390407047202A06DBCB17EE
:10021000203A41FA02F043EAE07306E041FA02F3C1
:10022000D040C2F12002914008431946704710B5F2
:10023000431A934209D28318881803E010F8011D6D
:1002400003F8011D521EF9D210BD40EA01039B07BD
:1002500003D009E008C9121F08C0042AFAD203E03B
:1002600011F8013B00F8013B521EF9D210BD2DE9F7
:10027000FE4F804681EA0300C00F0C46009021F03B
:10028000004123F00045B8EB0200A94105D24046E9
:10029000214690461C460B46024623F00040104380
:1002A00047D0270DC7F30A00C3F30A510290401A42
:1002B000019040286BDAC3F3130040F4801B0098D0
:1002C000924620B10023D2EB030A63EB0B0B01989B
:1002D0005946C0F140025046FFF788FF06460D46DA
:1002E00050465946019AFFF790FF10EB0800614114
:1002F000002487EA115284EAE7731A4340D0009A37
:1003000062B3019A012A4FEA075215DC001B61EB28
:1003100002014FF0004202EA0752CDE90042001C00
:1003200041F5801132462B4600F0A8F903B0BDE834
:10033000F08F40462146F9E7001B61EB0201001CEB
:1003400041F5801300185B412018A2F5001747EB18
:10035000030140EAD570B6196D4111E06D084FEA0E
:10036000360645EAC0754FEA0752001B61EB0201F1
:10037000001C41F5801149084FEA30000019514135
:1003800032462B4603B0BDE8F04F00F068B9009844
:10039000012240000023D0EB020263EBE0730098DF
:1003A00021464FEAE074B8EB000061EB0401E9E795
:1003B00083F000435BE781F0004158E72DE9FE4FF1
:1003C00081EA030404F0004421F0004100944FF05E
:1003D000000B23F0004350EA01045ED052EA03040C
:1003E0005BD0C3F30A54C1F30A552C44A4F2F3348E
:1003F0000194A0FB0254C1F3130141F48011C3F333
:10040000130343F4801301FB024400FB034E840AF0
:10041000970A44EA815447EA8357A4FB0768029588
:100420008D0A05FB07854FEA932C04FB0C54270526
:10043000029D4FEA065847EA1637B5EB08056EEB02
:10044000070C870E920E47EA811742EA8312A7FB38
:100450000201B6EB0B0164EB00042B0D43EA0C33F5
:100460005E1844EB1C50DA465146E7FB0201C5F327
:1004700013044FEA0B3343EA14534FEA0432019C4E
:1004800043EA0603A4F10C040294009CCDE900B4F5
:1004900000F0F4F803B0BDE8F08F00200146F9E762
:1004A0002DE9F04D81EA030404F0004B21F00045F2
:1004B00014464FF0000A23F0004150EA050220D014
:1004C00054EA01021DD0C5F30A570246C5F31303CF
:1004D000C1F31300C1F30A5640F4801543F48013AE
:1004E000A7EB0608101BD64608F2FD3873EB050093
:1004F00002D308F1010801E092185B41B8F1000F46
:1005000003DA00200146BDE8F08D00204FF4801191
:10051000064684460EE0171B73EB050705D3121B36
:1005200063EB050306434CEA010C49084FEA30002F
:1005300092185B4150EA0107EDD152EA030012D054
:1005400082EA040083EA0501084305D0101BAB4191
:1005500006D20122002306E000224FF0004302E011
:100560006FF0010253101AEB06004CEB085110EB30
:100570000A0041EB0B01BDE8F04D00F070B800003F
:1005800030B5041E71F1000404DB4FF0004440421A
:1005900064EB0101141E73F1000405DB1C464FF0EF
:1005A0000043524263EB0403994208BF904230BDBE
:1005B00030B50B46014600202022012409E021FA33
:1005C00002F59D4205D303FA02F5491B04FA02F530
:1005D0002844151EA2F10102F1DC30BD2DE9F05FC7
:1005E0000546002092469B468846064681464024A2
:1005F0001BE0284641464746224600F020F8534675
:100600005A46C01A914110D3114618462246FFF7A8
:10061000EDFD2D1A67EB01084F462246012000210F
:10062000FFF7E4FD17EB00094E41201EA4F1010481
:10063000DFDC484631462A464346BDE8F09F202A83
:1006400004DB203A21FA02F00021704721FA02F37C
:10065000D040C2F12002914008431946704710B5BE
:10066000141E73F1000408DA401C41F100019218D5
:100670005B411A4301D120F0010010BD2DE9F04D7E
:1006800092469B4611B1B1FA81F202E0B0FA80F2D3
:1006900020329046FFF7AAFD04460F4640EA0A00C2
:1006A00041EA0B0153465A46084313D0114653EA18
:1006B000010019D0C8F140025046FFF7C0FF0546BF
:1006C0000E46504659464246FFF790FD084305D076
:1006D000012004E020463946BDE8F08D00200543A6
:1006E00046EAE0762C4337430A986305E40AA0EB18
:1006F00008000022FD0A44EA47540A3002D50020CF
:100700000146E9E7010510196941DDE908450019CD
:100710006941BDE8F04DA2E7C1F30A52C1F31301EC
:1007200040F2FF3341F480119A4202DA0020014680
:10073000704740F233439A42A2F2334202DC524203
:10074000FFF77DBFFFF752BD064C074D06E0E0689E
:1007500040F0010394E8070098471034AC42F6D308
:10076000FFF728FD90350008B03500081CB50A4891
:10077000006840F08000084908600020032103461B
:100780000122CDE900100821044800F099F8012069
:10079000034908601CBD000030380240001C0240C4
:1007A0008C82434200BFFEE7704730B5CC1000F1A9
:1007B000200353F824304C07E50E0F24AC40A3432C
:1007C000CD1000F1200444F82530CC1000F12003B6
:1007D00053F824304C07E40E02FA04F42343CD10FE
:1007E00000F1200444F8253030BDF0B50A46002160
:1007F0000023002400BF3DE0012505FA01F3156840
:1008000005EA03049C4234D105684F000326BE402C
:10081000B543056015794E00B5400668354305605F
:100820001579012D02D01579022D16D185684F005A
:100830000326BE40B543856055794E00B5408668B5
:1008400035438560456801268E40B543456045685F
:1008500096798E40B6B235434560C5684F00032691
:10086000BE40B543C560D5794E00B540C668354336
:10087000C560491C1029BFD3F0BDF0B5002300248A
:100880004D07ED0E02FA05F3CE1000F1200555F8E4
:1008900026504E07F70E0F26BE40B543CF1000F18D
:1008A000200646F82750CE1000F1200555F82650B6
:1008B00045EA0304CE1000F1200545F82640F0BDBE
:1008C0002DE9F0470C46DDE90867002100258C463C
:1008D00000BF60E04FF0010808FA01F504EA050CDA
:1008E000AC4557D1D0F800804FEA410A4FF00309D8
:1008F00009FA0AF928EA0908C0F80080D0F800804F
:100900004FEA410902FA09F948EA0908C0F80080EB
:10091000012A01D0022A27D1D0F808804FEA410AE3
:100920004FF0030909FA0AF928EA0908C0F8088013
:10093000D0F808804FEA410906FA09F948EA09089F
:10094000C0F80880D0F804904FF0010808FA01F8C8
:1009500029EA0809C0F80490D0F8048003FA01F9E4
:1009600048EA0908C0F80480D0F80C804FEA410A30
:100970004FF0030909FA0AF928EA0908C0F80C80BF
:10098000D0F80C804FEA410907FA09F948EA09084A
:10099000C0F80C80491C10299CD3BDE8F08700BF2B
:1009A000FEE721B1028842F48062028004E00288FE
:1009B0004FF6FF331A400280704770B5024600249C
:1009C000002500230020958A138B1B0445EA0306AB
:1009D00026F07F4404EA01068E4201D1012000E0A6
:1009E000002070BD21B1028842F00102028004E0C3
:1009F00002884FF6FE731A400280704710B500F06F
:100A000003F800F0BDF810BD1CB50121480500F049
:100A1000E5FB0121022000F0D1FB0422082111484E
:100A2000FFF72BFF042209210E48FFF726FF4FF4A2
:100A30008070009002208DF804008DF805000120E0
:100A40008DF8060000208DF8070069460548FFF77D
:100A5000CCFE4FF40070009069460248FFF7C5FED7
:100A60001CBD00000004024021B1028842F48072E3
:100A7000028004E002884FF6FF631A40028070474C
:100A800021B1028842F40072028004E002884FF62D
:100A9000FF531A40028070472DE9FF4704460D4678
:100AA0000026B1460427DFF8CC80A6884FF6C07038
:100AB0000640684600F0B2FBDDF808802E48B8FB1F
:100AC000F0F01FFA80F946EA0906A68020884FF662
:100AD000FE710840208000262849286888420CD8EA
:100AE00028684000B8FBF0F087B2042F00DA042732
:100AF0003E4309F10100208427E0E8884BF6FF71AE
:100B0000884206D1286800EB4000B8FBF0F087B2BD
:100B100009E0286800EBC00101EB0010B8FBF0F021
:100B200087B247F48047C7F30B0008B947F00107C5
:100B300047F4004006434FF4967009FB00F04FF471
:100B40007A7190FBF1F0401C2084A683208840F04D
:100B50000100208026884FF6F5300640A888698974
:100B6000084306432680A889298908432081BDE8D7
:100B7000FF87000000127A0040420F00A0860100AB
:100B80001FB50020ADF804004BF6FF70ADF806006D
:100B90000A20ADF808004FF48060ADF80A000001AB
:100BA000ADF80C000748009069460748FFF774FF4E
:100BB00001210548FFF716FF01210348FFF7F1FE69
:100BC0001FBD0000400D0300005400402DE9F0411E
:100BD00005460F4614461E4601211D48FFF744FFF7
:100BE00000BF1C491A48FFF7E8FE0028F9D0002290
:100BF0002946174800F070F800BF17491448FFF75E
:100C0000DCFE0028F9D03946114800F06DF800BF2D
:100C10001149891C0E48FFF7D0FE0028F8D00CE0DF
:100C200021780B4800F060F8641C00BF0A49891C59
:100C30000748FFF7C2FE0028F8D0301EA6F10101D8
:100C40008EB2EDD101210248FFF71AFFBDE8F08115
:100C500000540040010003008200070070B5044604
:100C60000E46154601211948FFF7FEFE00BF184940
:100C70001648FFF7A2FE0028F9D0002221461348AB
:100C800000F02AF800BF13491048FFF796FE00282D
:100C9000F9D031460D4800F027F800BF0D49891CF6
:100CA0000A48FFF78AFE0028F8D02946074800F0D6
:100CB0001BF800BF0749891C0448FFF77EFE002887
:100CC000F8D001210148FFF7DBFE70BD0054004061
:100CD000010003008200070012B141F0010101E0B0
:100CE00001F0FE0101827047018270471CB50B487C
:100CF000006840F0800009490860012002210023BB
:100D00000246CDE9001030210548FFF7D9FD01204A
:100D1000044908600449C1F894021CBD30380240FF
:100D2000001C024090824342008043420246B3EEE0
:100D3000041AB0EE410AB3EE0E1AF0EE410A501A50
:100D4000124B186018460068114B1B68C01A01EE60
:100D5000100AB8EEC11A21EE001A0C48D0ED001AA4
:100D6000F8EEE11A00EEA11A0A48D0ED001AF8EEEA
:100D7000E11A31EE211ABDEEC11A80ED001A0348C6
:100D80000068034B18600348006870471C0000208F
:100D900024000020200000201CB51348006840F407
:100DA0008070114908600846006840F0080008603B
:100DB0000120032100230246CDE9001008210B4841
:100DC000FFF77EFD0120032100230246CDE900103C
:100DD00010210748FFF774FD012006490860064905
:100DE000C1F88C021CBD00003038024000200240D7
:100DF000000C024090824142000044422DE9F04143
:100E00000746884614461D46284600F033F8C5F1CB
:100E1000040007FA00F60F20284100EA0800064304
:100E200006F00F06E21704EBD2625211920002F1B3
:100E3000E022D2F800212146E31704EBD3635B11D3
:100E4000A4EB431C012303FA0CF31A432046E317D7
:100E500004EBD3635B119B0003F1E023C3F8002193
:100E60000348005D40EA061001490855BDE8F081DD
:100E700000E400E00146072323EA01021202054BC9
:100E800018684FF6FF031840034B18431043014BFB
:100E9000186070470CED00E00000FA054A0A5202A3
:100EA0000243014B1A60704708ED00E000BFFEE707
:100EB0007047000070B5002100230F22C4781CB3D6
:100EC000174C246804F4E064C4F5E064C4F307211B
:100ED000C1F10404E3B20A4144789C40E1B2847851
:100EE000144021430C07210E0E4C057861550478FF
:100EF00004F01F050124AC4005786D11AD0005F12B
:100F0000E025C5F8004109E0047804F01F0501243C
:100F1000AC40054D0678761145F8264070BD0000BE
:100F20000CED00E000E400E080E100E00249014354
:100F3000024A1160704700000000FA050CED00E065
:100F400010B500F0E3F800F0B1F800F0EDF810BDD6
:100F50002DE9F04705460C4616464FF0000AD146EB
:100F600038E005F1B000C2B200217820FFF776FE2C
:100F70002746E01704EB107000111030C2B20021B8
:100F80007820FFF76BFEE01704EB10700011A4EB64
:100F90000010C2B200217820FFF760FE4FF0000879
:100FA0000FE00AEB461010490A5C40217820FFF759
:100FB00055FE0AF1010000F0FF0A08F1010000F0FF
:100FC000FF08B8F1100FECDB681CC5B209F1010095
:100FD00000F0FF09B9F1020FC3DBAF220021782036
:100FE000FFF73CFEBDE8F087103100082DE9F0471F
:100FF00005460C4616464FF0000AA01CC4B2D14666
:101000003AE005F1B000C2B200217820FFF726FED9
:101010002746E01704EB107000111030C2B2002117
:101020007820FFF71BFEE01704EB10700011A4EB13
:101030000010C2B200217820FFF710FE4FF0000828
:1010400011E00AEB0610A0F500700E490A5C402181
:101050007820FFF703FE0AF1010000F0FF0A08F113
:10106000010000F0FF08B8F1080FEADB681CC5B208
:1010700009F1010000F0FF09B9F1020FC1DBBDE881
:10108000F0870000102B000870B506460C460025BE
:1010900008E014F8012BE806010E3046FFF7A6FF22
:1010A000681CC5B220780028F3D170BD70B5B0249B
:1010B0001BE0224600217820FFF7D0FD10220021FE
:1010C0007820FFF7CBFD002211467820FFF7C6FD00
:1010D000002506E0002240217820FFF7BFFD681CB4
:1010E000C5B2842DF6DB601CC4B2B82CE1DB70BD48
:1010F00010B50446812200217820FFF7AFFD22467B
:1011000000217820FFF7AAFD10BD000008B505A05A
:101110000068009003236A4600217820FFF756FDFF
:1011200008BD0000AE8D100000B587B01C2206A1DE
:101130006846FFF77CF81C236A4600217820FFF7F9
:1011400045FD07B000BD0000AE0010D580A83FD31C
:1011500000B0408D14A1C8DA1281FFD9F1DB302034
:1011600000A4A6AF70B5002420E004F1B000C2B224
:1011700000217820FFF772FD102200217820FFF770
:101180006DFD022200217820FFF768FD002509E0AF
:1011900005EBC41007490A5C40217820FFF75EFD8B
:1011A000681CC5B2802DF3DB601CC4B2082CDCDBEC
:1011B00070BD0000903100087047000029B1064A58
:1011C00012680243044B1A6004E0034A1268824327
:1011D000014B1A60704700003038024029B1064ABE
:1011E00012680243044B1A6004E0034A1268824307
:1011F000014B1A60704700004038024029B1064A8E
:1012000012680243044B1A6004E0034A12688243E6
:10121000014B1A607047000044380240F0B50021CD
:1012200000220024022500260223324F3F6807F0E7
:101230000C0121B1042905D0082937D105E02E4F32
:10124000076036E02D4F076033E02A4F3F1F3F68AD
:10125000C7F38056274F3F1F3F6807F03F036EB12B
:10126000264FB7FBF3F7DFF88CC0ACF1040CDCF8C9
:1012700000C0CCF3881C07FB0CF40CE01E4FB7FB3E
:10128000F3F7DFF870C0ACF1040CDCF800C0CCF36D
:10129000881C07FB0CF4174F3F1F3F68C7F301473B
:1012A0007F1C7D00B4FBF5F7076002E0124F07607A
:1012B00000BF00BF0F4F3F6807F0F0010909104F52
:1012C0007A5C0768D74047600A4F3F6807F4E051EF
:1012D000890A0B4F7A5C4768D7408760054F3F68A3
:1012E00007F46041490B064F7A5C4768D740C760F6
:1012F000F0BD0000083802400024F40040787D0171
:10130000000000200146022906D003291DD004292F
:1013100033D0052961D148E04FF08042128802F0B5
:10132000100252B14FF08042526AC2F1FF304FF0CA
:10133000FF324FF080435A6206E04FF08042506A1D
:1013400000224FF080435A6249E0264A128802F098
:10135000100252B1234A243212684FF6FF73981AD2
:101360001A46204B24331A6006E01E4A24321068C5
:1013700000221C4B24331A6031E01B4A128802F011
:10138000100252B1184A243212684FF6FF73981AAD
:101390001A46154B24331A6006E0134A24321068AB
:1013A0000022114B24331A6019E0104A128802F00F
:1013B000100252B10D4A24321268C2F1FF304FF0D0
:1013C000FF320A4B24331A6006E0084A24321068C0
:1013D0000022064B24331A6001E0002000BF00BF4A
:1013E000704700000004004000080040000C00406E
:1013F0007047000000B50246002A07DD00200A49B8
:10140000086001200949C1F8A00206E00120064950
:10141000086000200549C1F8A002104601F064FAF6
:101420000349086000BD0000A4024142000041429F
:101430003C040140F0B504460D4616461F461448CC
:10144000006840F00100124908600020104908318E
:1014500008600F4800680F4908400D4908600E48B1
:10146000091D0860081F006820F48020091F08601B
:10147000002007490C3108603B4632462946204689
:1014800000F00EF800210846FFF708FDF0BD00004F
:1014900000380240FFFFF6FE1030002470470000C5
:1014A000F0B504460D46002100203D4E366846F456
:1014B00080363B4F3E6001E04E1CB1B2384E36687C
:1014C00006F400361EB941F6FF76B142F4DB41F670
:1014D000FF76B14201D1012060E0314E40363668DE
:1014E00046F080562E4F40373E602E4E366846F40A
:1014F00040462C4F3E602A4E0836366846F4144665
:10150000274F08373E60264E366826F08076244FF7
:101510003E6045EA84160127C7EB520746EA0746B4
:1015200046EA036646F480061D4F3F1D3E603E1F9F
:10153000366846F080763F1F3E6000BF184E366822
:1015400006F00076002EF9D0174E366846F4807605
:10155000154F3E603E46366846F400763E603E4695
:10156000366846F480663E603E46366846F00506BC
:101570003E600B4E0836366826F00306084F0837E3
:101580003E603E46366846F002063E6000BF044EAE
:101590000836366806F00C06082EF8D1F0BD0000BB
:1015A0000038024000700040003C024030B58BB073
:1015B00004460D4601210846FFF700FE02208DF883
:1015C000280000208DF82A004FF470600990002058
:1015D0008DF82B0003208DF8290009A92C48FFF76E
:1015E00004F9012208212A48FFF747F901220921BD
:1015F0002748FFF742F901220A212548FFF73DF964
:1016000001220B212248FFF738F901210846FFF794
:10161000F5FD0020ADF82000ADF81A00ADF8185027
:101620008DF82200079406A91A4800F0B7FA602046
:10163000ADF804000120ADF806000020ADF8080068
:101640000390ADF810004FF48070ADF8140001A9BC
:10165000104800F087F90020039001A90D4800F020
:10166000BFF90020039001A90A4800F00BFA0020FE
:10167000039001A9074800F055FA0121054800F040
:1016800013F90121034800F01BF90BB030BD000035
:10169000000002400000014010B501210E4800F09A
:1016A0001EF9012815D101210B4800F0FAF802209B
:1016B000FFF728FE09490860086809490968FFF72B
:1016C00035FB0849086000F0ADFB06480068FFF7ED
:1016D00091FE002010BD00000004004078000020B2
:1016E000180000201400002008B50121134800F064
:1016F000FFF8002821D00220FFF704FE10490860FF
:101700000320FFF7FFFD0E4948600420FFF7FAFDB4
:101710000B4988600520FFF7F5FD0949C8600846B8
:10172000C0680090084683684268016805A000F020
:101730008DFB0121014800F0B4F808BD0010004005
:1017400078000020456E636F646572303D2564202B
:101750000D0A20456E636F646572313D2564200D6E
:101760000A20456E636F646572323D2564200D0A60
:1017700020456E636F646572333D2564200D0A0059
:1017800030B58BB004460D4601210420FFF716FD4D
:101790003948048002208DF8280000208DF82A00A6
:1017A0004FF47070099000208DF82B0003208DF805
:1017B000290009A93148FFF718F8032206212F480C
:1017C000FFF75BF8032207212C48FFF756F80322A6
:1017D00008212A48FFF751F8032209212748FFF77B
:1017E0004CF801210220FFF709FD0020ADF8200090
:1017F000ADF81A00ADF81850E0B28DF822001E487E
:101800000088079006A91E4800F0C8F96020ADF8CE
:1018100004000120ADF806000020ADF808003220D9
:1018200003900020ADF810004FF48070ADF8140064
:101830000121134800F026F801A9114800F092F8A0
:101840000020039001A90E4800F0CAF80020039080
:1018500001A90B4800F016F90020039001A90848DF
:1018600000F060F90121064800F01EF8012104484B
:1018700000F026F80BB030BD360000200008024012
:101880000004014021B1028842F08002028004E09D
:1018900002884FF67F731A4002807047CA43028263
:1018A0007047CA430282704721B1028842F00102A8
:1018B000028004E002884FF6FE731A4002807047EF
:1018C00031B1B0F8442042F40042A0F8442005E0D1
:1018D000B0F84420C2F30E02A0F84420704702463C
:1018E0000020138A0B400BB1012000E0002070475C
:1018F00030B50246002000230024158A05EA0103C2
:10190000958905EA010413B10CB1012000E0002023
:1019100030BD1AB183890B43838102E083898B43F5
:10192000838170470EB501211020FFF757FC41F26B
:101930008730019042F22730ADF800006946084830
:1019400000F02CF901210648FFF7A8FF01221146FB
:101950000348FFF7DEFF01210148FFF7A5FF0EBD99
:101960000010004070B5002400220023058C4FF6C3
:10197000FE7635400584028C8388048B4FF68F7584
:101980002C40B51E2C400D882C43751E2A408D8995
:101990002A434D882A43104DA84202D00F4DA84239
:1019A00013D14FF6F7752A40CD892A434FF6FB75C0
:1019B0002A408D882A434FF6FF652B404FF6FF558E
:1019C0002B400D8A2B434D8A2B43838004838D68E3
:1019D0004563028470BD0000000001400004014026
:1019E00070B5002400220023058C4FF6EF763540B9
:1019F0000584028C8388048B48F6FF752C404FF6D3
:101A0000FF452C400D884FF6FF7606EA05252C434E
:101A10004FF6DF752A408D8906EA05152A434D8861
:101A200006EA05152A43154DA84202D0144DA842D6
:101A30001DD14FF67F752A40CD894FF6FF7606EA15
:101A400005152A434FF6BF752A408D8806EA05150D
:101A50002A434FF6FF352B404FF2FF752B400D8A7E
:101A600006EA85052B434D8A06EA85052B438380CC
:101A700004838D688563028470BD0000000001400E
:101A80000004014070B5002400220023058C4FF6AD
:101A9000FF6635400584028C8388848B4FF68F75F2
:101AA0002C404FF6FC752C400D882C434FF6FF550B
:101AB0002A408D894FF6FF7606EA05252A434D8890
:101AC00006EA05252A43154DA84202D0144DA84226
:101AD0001DD14FF2FF752A40CD894FF6FF7606EAF9
:101AE00005252A434FF6FF352A408D8806EA05254D
:101AF0002A434EF6FF752B404DF6FF752B400D8A9D
:101B000006EA05152B434D8A06EA05152B4383800B
:101B100084838D68C563028470BD000000000140AD
:101B20000004014070B5002200230024058C4EF60D
:101B3000FF7635400584038C8488828B48F6FF75D8
:101B40002A404FF6FF452A400D884FF6FF7606EAF9
:101B500005252A434DF6FF752B408D8906EA05358C
:101B60002B434D8806EA05352B430A4DA84202D087
:101B7000094DA84208D14BF6FF752C400D8A4FF64F
:101B8000FF7606EA85152C43848082838D68056480
:101B9000038470BD0000014000040140002202885F
:101BA000184B98420ED0184B98420BD0B0F1804F92
:101BB00008D0164B984205D0154B984202D0154BD1
:101BC000984204D14FF68F731A404B881A43124B38
:101BD000984207D0114B984204D04FF6FF431A4069
:101BE0000B891A4302804B68C3620B880385054B3F
:101BF000984202D0044B984201D18B7A038601238C
:101C0000838270470000014000040140000400404E
:101C100000080040000C004000100040001400408C
:101C200010B5002106480088FFF7C0FC00210548D8
:101C30000088FFF7A5FD00F007F8FFF773FE10BD61
:101C4000340000203600002008B54FF4E060FFF7B4
:101C50006DF936208DF8000000208DF8010003207A
:101C60008DF8020001208DF803006846FFF722F985
:101C700008BD00001C49098801F0200109B31A4978
:101C80008988C8B21949098801F40041C9B91749BE
:101C9000098801F4804161B10A2803D00021134A68
:101CA000118020E01149098841F400410F4A118058
:101CB00019E00D2806D10D49098841F480410B4AED
:101CC000118010E009490988C1F30D01084A5054F8
:101CD00006490988491C054A118011460988C72907
:101CE00001DD00211180704700100140300000200C
:101CF0008800002010B5002401211D4800F054F890
:101D000030B11B4800F087F80121194800F034F881
:101D10000821174800F048F830B1154800F07BF86A
:101D20000821134800F028F80221114800F03CF87F
:101D300030B10F4800F06FF802210D4800F01CF898
:101D400040F225510A4800F03CF880B120210848B3
:101D500000F012F840F22551054800F016F804484A
:101D600000F059F8C4B2214602A000F06FF810BD8F
:101D7000004800402564000001F40072B2F5007FC5
:101D800000D100BFCA430280704710B50022002373
:101D900040F66A14A14200D100BF0A120124944007
:101DA000A3B2DC43048010BD02460020B1F5007FE1
:101DB00000D100BF13880B400BB1012000E00020D0
:101DC000704770B50246002400230025002040F62D
:101DD0006A16B14200D100BFC1F3421501F01F03E2
:101DE000012606FA03F3012D02D19689334006E05D
:101DF000022D02D1168A334001E0968A33400C123C
:101E0000012606FA04F41688344013B10CB10120FF
:101E100000E0002070BD01468888C0F308007047CC
:101E200000BFFEE741F6BC300749096842429142D3
:101E300002DA4142044A116003490968814201DD26
:101E40000149086070470000140000200FB4054BE2
:101E500010B503A9044A029800F0DAF810BC5DF846
:101E600014FB0000ED2700082C00002002E008C849
:101E7000121F08C1002AFAD170477047002001E004
:101E800001C1121F002AFBD1704700002DE9FF5F3E
:101E900082B00021DDE90430020DDDF840B00343DB
:101EA00018D044F61050A2F2FF3242431514119894
:101EB00001281FD0A5EB0B00401C5FEA000A4FF081
:101EC00000064E4FDFF83891B046504615D5CAF19E
:101ED000000413E0119801244AA3012801D16FEAFC
:101EE0000B010298119AC0E90031C0E9024206B024
:101EF000BDE8F09FCBF10000DFE704460021404A37
:101F0000491842EB0450CDE9001012E0E00707D079
:101F100032463B4640464946FEF750FA80468946DF
:101F200032463B4610461946FEF748FA06460F462B
:101F30006410002CEAD1DDE90401DDE90023BAF1E7
:101F4000000F06DAFEF73AFA42464B46FEF736FA3B
:101F500005E0FEF7A5FA42464B46FEF7A1FA044615
:101F60000E460022284BFEF70BFB03D84FF0FF3044
:101F7000014607E00022254B20463146FEF777F95F
:101F8000FEF7CAFB102409E0002C0ADB0A2200231A
:101F9000FEF724FB039B30321A55641E50EA0102FF
:101FA000F2D1641C039AC4F111031444119A012A5A
:101FB00003D0012208430DD10AE0084304D00020D9
:101FC0004FF0110B119072E7A3EB0B056D1E0DE0A6
:101FD0005B4504DD4FF0000205F1010504E003DA82
:101FE0004FF00002A5F10105002AECD002981199EA
:101FF000C0E90231C0E9004579E700000000144063
:102000000000F03F300000000000F0430000E03F1F
:102010002DE9FF4F95B09B468946064600250FE205
:10202000252877D100242746F84A0121059400E0AD
:10203000044316F8013F203B01FA03F01042F7D1A8
:1020400030782A2811D06FF02F033078A0F13002B9
:10205000092A16D8059A44F0020402EB820203EB27
:1020600042021044761C0590EFE759F8042B0592C4
:10207000002A03DA504244F40054059044F002046C
:10208000761C30782E2816D116F8010F44F004047F
:102090002A280DD06FF02F023078A0F13003092BE1
:1020A00009D807EB870302EB4303C718761CF3E755
:1020B00059F8047B761C30786C280FD006DC4C284D
:1020C00017D068280DD06A2814D104E0742810D0E5
:1020D0007A280FD10DE044F400140AE044F480148F
:1020E00001E044F440147278824202D104F5801475
:1020F000761C761C307866280BD013DC582877D0F5
:1021000009DC002875D04528F6D04628F4D04728A9
:102110001AD19DE118E0632835D0642879D065286C
:1021200012D195E1702873D008DC6728F1D06928B6
:102130006FD06E280DD06F2806D1B5E073282CD053
:10214000752875D0782874D05A46179990476D1C19
:1021500075E1C4F30250022809D003280DD0D9F844
:10216000001004280DD00D6009F1040967E1D9F8C9
:102170000010EA17C1E90052F6E7D9F800100D8007
:10218000F2E70D70F0E719F8041B8DF8001000203D
:102190008DF80100EA46012003E059F804AB4FF046
:1021A000FF3061074FF0000102D40DE008F101019A
:1021B0008846B9420FDA8045F8DB1AF80810002982
:1021C000F4D108E008F1010188468142FADB1AF8EF
:1021D00008100029F6D105985B46A0EB08072146B8
:1021E0003846179A00F094FA284400EB080507E0F7
:1021F0004DE029E10DE01AF8010B5A461799904776
:10220000B8F10108F7D25B4621463846179A13E128
:1022100042E00A220092C4F302524FF0000A022A5E
:1022200008D059F804CB032A4FEAEC710AD00DE02C
:1022300029E02AE009F1070121F00702F2E802C1D2
:10224000914609E00FFA8CFC4FEAEC71042A03D1A5
:102250004FFA8CFC4FEAEC71002907DA0A4600219C
:10226000DCF1000C61EB02012D2202E0220504D515
:102270002B228DF80420012203E0E20701D0202266
:10228000F7E7904659E00A2102E010220DE0102104
:102290004FF0000A00910BE010224FF0000A44F0CA
:1022A00004040827009203E008224FF0000A00927D
:1022B000C4F30252022A05D059F804CB0021032AA4
:1022C00008D009E009F1070121F00702F2E802C194
:1022D000914605E01FFA8CFC042A01D10CF0FF0C9A
:1022E0004FF00008220728D5702806D0009B83F005
:1022F000100353EA0A0305D00EE040228DF80420B3
:10230000012208E05CEA010206D030228DF80420A8
:102310008DF8050002229046009B83F0080353EAE3
:102320000A030AD15CEA010201D1620705D5302215
:102330008DF804204FF001087F1E582804D034A0E7
:1023400003900EA802900DE036A0F9E753466046D0
:10235000009AFEF743F984460398825C0298401E77
:10236000029002705CEA0100F0D1029806A9081AF6
:1023700000F1200A600702D524F4803400E0012730
:10238000574502DDA7EB0A0000E0002000EB0A0140
:10239000009005984144401A0590E00306D45B463E
:1023A0002146179A059800F0B3F90544002706E086
:1023B00001A85A46C05D179990476D1C7F1C474580
:1023C000F6DBE0030CD55B462146179A059800F032
:1023D0009FF9054404E030205A46179990476D1C38
:1023E0000099481E00900029F5DC08E00298029947
:1023F0005A460078491C0291179990476D1CBAF112
:102400000001AAF1010AF1DC65E1000009280100E0
:10241000303132333435363738396162636465665A
:10242000000000003031323334353637383941421C
:10243000434445460000000000F058F90544761C6E
:10244000307800287FF4ECAD19B02846BDE8F08F55
:10245000620700D4062709F1070222F0070CFCE806
:102460000223E14603F000485FEA080C02D00FF2B5
:10247000702C0DE05FEA045C02D50FF2682C07E0D7
:102480005FEAC47C02D00FF2602C01E0AFF2700C66
:102490004FF0FF3823F00043CDF850C065280CD032
:1024A00006DC452809D046281DD047283DD13DE00F
:1024B000662818D067287ED138E00021112F01DB73
:1024C000112000E0781CCDE9000106A90EA8FFF755
:1024D000DDFCDDE90F010E9A03910021009207F166
:1024E000010A04914DE04FF000400097CDE9011042
:1024F00006A90EA8FFF7CAFCDDE90F0203920E9BA6
:1025000011990022DDF80CA00093049211B9791CF6
:1025100000EB010AB7EB0A0004D4C0F1FF3007F169
:10252000010A0490AAEB0700019044E0012F00DAB1
:1025300001270021112F01DD112000E03846CDE9EF
:10254000000106A90EA8FFF7A1FCDDE90F010E9A14
:102550000391002104910092BA4621070CD40399FB
:10256000514500DA8A46BAF1010F05DD009AAAF159
:102570000101515C302908D0B84202DA10F1040F91
:1025800006DA0121CDE9011015E0AAF10101E9E720
:10259000002805DC049901440491AAEB000102E043
:1025A000411C514500DD8A460499401A401C0190A7
:1025B0004FF000400290200704D40198504501DB01
:1025C000CDF8048000208DF84F0002980DF14F07E0
:1025D000B0F1004F25D02B200E9002984FF002084A
:1025E00000280CDA404202902D200E9007E00A21CC
:1025F0000298FDF7DDFF3031029007F8011DB8F1B8
:102600000001A8F10108F2DC02980028EFD1791E40
:102610000E980870307800F0200040F0450007F870
:10262000020D12A8C01B00F107081498007800B131
:10263000012000EB0A01019801EBE071059841448B
:10264000401A401E0590E00306D45B462146179AC7
:10265000059800F05DF805441498007818B15A46C2
:10266000179990476D1CE00324D55B462146179AC5
:10267000059800F04DF805441CE00498002807DB9D
:10268000DDE90301884203DD0098405C179901E011
:10269000179930205A469047049805F10105401CCF
:1026A00004900198401E019004D12E205A4617999B
:1026B00090476D1CBAF10001AAF1010ADDDC05E0CA
:1026C00017F8010B5A46179990476D1CB8F1000195
:1026D000A8F10108F4DC5B462146179A0598ABE6A1
:1026E0002D0000002B000000200000002DE9F0412B
:1026F000044600251E461746880404D405E03946E2
:102700002020B0476D1C641EF9D52846BDE8F08135
:102710002DE9F041044600251E469046C80301D528
:10272000302700E02027880404D505E041463846DC
:10273000B0476D1C641EF9D52846BDE8F081000045
:102740004FF0E021096921F004014FF0E02211610E
:10275000C21700EB5272C2F3C702054B1A704FF456
:102760007A714143C1F3CF01024A118070470000E2
:10277000280000202A00002070B504464FF407709E
:1027800094FBF0F0C6B24FF4077094FBF0F100FB3D
:10279000114085B205E04FF4077000F009F8701E93
:1027A000C6B2002EF7D115B1284600F001F870BD71
:1027B00001460D4A12884A434FF0E0235A61002235
:1027C0009A6101221A6100BF4FF0E022106900F007
:1027D00001021AB100F48032002AF5D000224FF035
:1027E000E0231A619A6170472A00002000BF054A61
:1027F000128802F04002002AF9D0C2B2014B9A803E
:1028000070470000001001400823022219214FF4F4
:10281000B470FEF70FFEB420FFF792FF00F06CF9E2
:10282000FEF7BAFAFFF7FCF926A0FFF70FFBFEF759
:10283000E5F8FEF75BFAFEF783FB6420FEF758FC31
:10284000FEF790FC4FF47A70FFF796FFFEF72EFC30
:102850001EA10020FEF718FC002220210220FEF716
:1028600077FB012230210220FEF772FB0222402179
:102870001046FEF76DFB032250210220FEF768FB95
:102880000020154908601549C1F88C02FDF76EFF5C
:10289000C820FFF771FF00201149086011A0FFF761
:1028A000D5FA0DE0282200214120FEF7D7F94FF498
:1028B000FA60FFF761FF502200214120FEF7CEF9B8
:1028C000F0E70000696E6974206F6B002020202003
:1028D00020204741484F200090824142000044425E
:1028E0008C8243426F6B00000146002901DA4842A6
:1028F00000E0084670470000F0B52DED028B83B074
:1029000005460E46384905FB01F000EE100AF8EEC8
:10291000400A300100EE100AB8EE400A80EE801A3C
:10292000B0EE418ABCEEC80A10EE100A84B200EE86
:10293000104AB8EE400A38EE400AF3EE000A20EEE4
:10294000200ABCEEC00A10EE107A4FF6FF7000EAC3
:102950000414E01984B22548006840F001002349BE
:10296000086022481430006840F010001F491431FC
:1029700008600120022100230A46CDE900104FF42F
:10298000C0611B48FDF79CFF072209211848FDF78D
:102990000CFF07220A211648FDF707FF154804819E
:1029A000808920F40040134988810846808940F0DE
:1029B000080088810846808940F004008881084624
:1029C000808940F0200088810223252203210846C7
:1029D000FEF714FA0748808940F4005005498881C1
:1029E00003B0BDEC028BF0BD40420F003038024016
:1029F0000000024000100140F0B52DED028B83B0C5
:102A000005460E46384905FB01F000EE100AF8EEC7
:102A1000400A300100EE100AB8EE400A80EE801A3B
:102A2000B0EE418ABCEEC80A10EE100A84B200EE85
:102A3000104AB8EE400A38EE400AF3EE000A20EEE3
:102A4000200ABCEEC00A10EE107A4FF6FF7000EAC2
:102A50000414E01984B22548006840F0400023497E
:102A6000086022481430006840F010001F491431FB
:102A700008600120022100230A46CDE900104FF42E
:102A800084411B48FDF71CFF08220E211848FDF762
:102A90008CFE082209211648FDF787FE154804819F
:102AA000808920F40040134988810846808940F0DD
:102AB000080088810846808940F004008881084623
:102AC000808940F0200088810223252203210846C6
:102AD000FEF794F90748808940F400500549888141
:102AE00003B0BDEC028BF0BD40420F003038024015
:102AF000001802400010014010B54FF4E1315A2097
:102B0000FFF7FAFE4FF4E1315A20FFF775FF10BDD1
:102B100000000000000000000000000000000000B5
:102B2000000038FCFC3800000000000D0D00000023
:102B3000000E1E00001E0E0000000000000000003D
:102B400020F8F820F8F82000020F0F020F0F020003
:102B5000387C444747CC98000306041C1C0703003C
:102B600030300080C06030000C060301000C0C0007
:102B700080D87CE4BCD84000070F0808070F080085
:102B800000101E0E00000000000000000000000009
:102B90000000F0F80C040000000003070C0800001F
:102BA0000000040CF8F000000000080C070300000F
:102BB00080A0E0C0C0E0A080000203010103020089
:102BC000008080E0E080800000000003030000003F
:102BD00000000000000000000000101E0E000000B9
:102BE0008080808080808000000000000000000065
:102BF00000000000000000000000000C0C000000BD
:102C000000000080C06030000C06030100000000DE
:102C1000F8FC04C424FCF800070F0908080F07009B
:102C2000001018FCFC0000000008080F0F08080046
:102C3000080C84C4643C18000E0F0908080C0C0032
:102C4000080C444444FCB800040C0808080F0700B2
:102C5000C0E0B098FCFC8000000000080F0F0800E6
:102C60007C7C4444C4C48400040C0808080F07009A
:102C7000F0F84C4444C08000070F0808080F070014
:102C80000C0C0484C47C3C0000000F0F000000000A
:102C9000B8FC444444FCB800070F0808080F0700BC
:102CA000387C444444FCF800000808080C07030082
:102CB00000000030300000000000000606000000A8
:102CC00000000030300000000000080E0600000088
:102CD0000080C0603018080000000103060C0800E6
:102CE0004040404040404000020202020202020016
:102CF0000008183060C0800000080C0603010000C6
:102D0000181C04C4E43C18000000000D0D00000075
:102D1000F0F808C8C8F8F000070F080B0B0B01000B
:102D2000E0F0988C98F0E0000F0F0000000F0F000B
:102D300004FCFC4444FCB800080F0F08080F07000F
:102D4000F0F80C04040C180003070C08080C06002B
:102D500004FCFC040CF8F000080F0F080C0703003B
:102D600004FCFC44E40C1C00080F0F08080C0E00C7
:102D700004FCFC44E40C1C00080F0F0800000000D9
:102D8000F0F80C84848C980003070C0808070F00E7
:102D9000FCFC404040FCFC000F0F0000000F0F0047
:102DA000000004FCFC0400000000080F0F080000F5
:102DB00000000004FCFC0400070F08080F070000D7
:102DC00004FCFCC0F03C0C00080F0F00010F0E00CB
:102DD00004FCFC0400000000080F0F08080C0E00A3
:102DE000FCFC387038FCFC000F0F0000000F0F00D7
:102DF000FCFC3870E0FCFC000F0F0000000F0F001F
:102E0000F0F80C040CF8F00003070C080C070300A2
:102E100004FCFC44447C3800080F0F08000000004C
:102E2000F8FC040404FCF800070F080E3C3F2700E0
:102E300004FCFC44C4FC3800080F0F00000F0F0016
:102E4000183C6444C49C1800060E0808080F0700CC
:102E5000001C0CFCFC0C1C000000080F0F080000FC
:102E6000FCFC000000FCFC00070F0808080F07002E
:102E7000FCFC000000FCFC000103060C0603010042
:102E8000FCFC008000FCFC00030F0E030E0F03008F
:102E90000C3CF0C0F03C0C000C0F0300030F0C00C6
:102EA000003C7CC0C07C3C000000080F0F08000004
:102EB0001C0C84C4643C1C000E0F0908080C0E0096
:102EC0000000FCFC0404000000000F0F08080000D4
:102ED0003870E0C0800000000000000103070E0011
:102EE00000000404FCFC0000000008080F0F0000B4
:102EF000080C0603060C080000000000000000009B
:102F000000000000000000002020202020202020C1
:102F100000000307040000000000000000000000A3
:102F200000A0A0A0E0C00000070F0808070F0800DD
:102F300004FCFC2060C08000080F0708080F070091
:102F4000C0E0202020604000070F0808080C0400A3
:102F500080C06024FCFC0000070F0808070F080071
:102F6000C0E0A0A0A0E0C000070F0808080C040003
:102F700040F8FC440C180000080F0F080000000087
:102F8000C0E02020C0E02000276F48487F3F0000BD
:102F900004FCFC4020E0C000080F0F00000F0F00F1
:102FA000000020ECEC0000000000080F0F080000FB
:102FB0000000000020ECEC0000307040407F3F003B
:102FC00004FCFC80C0602000080F0F01030E0C0001
:102FD000000004FCFC0000000000080F0F080000C7
:102FE000E0E060C060E0C0000F0F000F000F0F00B6
:102FF00020E0C02020E0C000000F0F00000F0F00F5
:10300000C0E0202020E0C000070F0808080F0700DC
:1030100020E0C02020E0C000407F7F48080F07006C
:10302000C0E02020C0E02000070F08487F7F40005C
:1030300020E0C0602060C000080F0F080000000002
:1030400040E0A02020604000040C09090B0E0400A1
:103050002020F8FC202000000000070F080C0400CE
:10306000E0E00000E0E00000070F0808070F08009C
:1030700000E0E00000E0E0000003070C0C070300A4
:10308000E0E0000000E0E000070F0C070C0F070075
:103090002060C080C0602000080C0703070C0800F7
:1030A000E0E0000000E0E000474F4848683F1F00B4
:1030B000606020A0E06020000C0E0B09080C0C00E2
:1030C000004040F8BC040400000000070F0808009E
:1030D000000000BCBC0000000000000F0F0000005A
:1030E000000404BCF84040000008080F070000007E
:1030F000080C040C080C0400000000000000000094
:1031000080C0603060C08000070704040407070027
:103110001022640C8008494A4CF84C4A49080000C7
:103120000404FE010404040404FF0404040604006F
:103130001010D0FF50902040FF00FF4020300000D2
:10314000040300FF8044221907003F4146407000FD
:1031500000F848484848FF48484848FC0800000034
:103160000007020202023F42424242474070000012
:1031700080808282828282E2A2928A8680C08000DF
:10318000000000000040807F000000000000000000
:10319000000000000000000000000000000000002F
:1031A000000000000000000000000000000000001F
:1031B000000000000000000000000000000000000F
:1031C00000000000000000000000000000000000FF
:1031D00000000000000000000000000000000000EF
:1031E00000000000000000000000000000000000DF
:1031F00000000000000000000000000000000000CF
:1032000000000000000000000000000000000000BE
:1032100000000000000000000000000000000000AE
:10322000000000000000000000F8FC1C3830381CD2
:10323000FCF800F8F800F8F8000000F8FC8C8C8C22
:103240000080D050F0E000F0F020300000808000DE
:10325000808000808000000C1224120C000000000E
:1032600000000000800000000000000018244488D6
:1032700044241800000000000000000000000000CE
:10328000000000000000000000000000000000003E
:10329000000000000000000000000000000000002E
:1032A0000000000000000000000383800080800018
:1032B000030300080B0B0F078040804083030303C8
:1032C00000000303030300038380808080C3C3C026
:1032D000C3C3C0C3C3C0C0C0C0C0808080C0C04022
:1032E0002018040300000000002050A0502000001F
:1032F00000000000000000000000000000000000CE
:1033000000000000000000000000000000000000BD
:1033100000000000000000000000000000000000AD
:10332000000000000000000000030408110804036E
:103330000000000000000000010284C2E1603010C3
:1033400078ECFCF63A1B0585971312131311111133
:103350001111110181FFF9F9F2C2822225058D8B2D
:1033600093B3E6C68C1C18387070E0C08000000073
:10337000000000182448241800000000000000008D
:10338000000000000000000000000000000000003D
:10339000000000000000000000000000000000002D
:1033A0000000000000000000000080E0E070301825
:1033B000181C1C1C0C1C1616160627636DAECE0EB0
:1033C0000E0F0F0F0E060607070606060606060670
:1033D00006060666776767E7070707060606070714
:1033E00087C76723231210000808090B0F0E0E0C65
:1033F0003C70F0C0800000000000000000000000F1
:1034000000000000000000000000000000000000BC
:1034100000000000000000000000000000000000AC
:10342000000000000000F0F8DEFFF63611E0F0F8D2
:10343000FCFEDE1E3F3F1EFEFEFCF8F2E408010724
:10344000FC00000000000000000000000000000080
:1034500000000000000000FF00000000003CFFE74B
:10346000311CE6FFFFFFFEFE1F3F3F1FFFFEFEFC7D
:10347000F8F8F031FBFFFEFC38000000000000000F
:10348000000000000000000000000000000000003C
:10349000000000000000000000000000000000002C
:1034A0000000000000000003074F4C60607F7F7F3A
:1034B0007F7D4D44727240797D7F7F7F7F7C70700D
:1034C00073737070747474747474747474747474C6
:1034D00076767676767676737070727272737070B6
:1034E000707C7F7F7F7F7D7D62727260687D7F7F71
:1034F0007F7F7774676763000000000000000000B2
:1035000000000000000000000000000000000000BB
:1035100000000000000000000000000000000000AB
:10352000000000000000000000000000000000009B
:10353000000000000000000000000000000000008B
:10354000000000000000000000000000000000007B
:10355000000000000000000000000000000000006B
:10356000000000000000000000000000000000005B
:10357000000000000000000000000000000000004B
:10358000000000000000000000000000000000003B
:10359000B035000800000020780000006C1E000814
:1035A0002836000878000020D80800007C1E00089B
:1035B00000000000010203040102030406070809D9
:1035C00001000000000000003200000000000000C8
:1035D00000000000000000000000000000000000EB
:1035E00000000000272327230000F0410000A04135
:1035F0000000E0400000A0400000000000000000CB
:1036000000000000000000000000000000000000BA
:1036100000000000000000000000000000000000AA
:083620000000000000000000A2
:04000005080001AD41
:00000001FF
